:0400000011EF01F00B
:08000800046ED8CF05F0E0CF33
:1000100006F00001E9CF0CF0EACF07F0E1CF08F0DD
:10002000E2CF09F0D9CF0AF0DACF0BF0F3CF12F01C
:10003000F4CF13F0FACF14F0F5CF15F0F6CF16F099
:10004000F7CF17F000C00EF001C00FF002C010F0A3
:1000500003C011F09DAA30EF00F09EBA57EF00F0F8
:100060000EC000F00FC001F010C002F011C003F08C
:100070000CC0E9FF07C0EAFF078E08C0E1FF09C016
:10008000E2FF0AC0D9FF0BC0DAFF12C0F3FF13C0B2
:10009000F4FF14C0FAFF15C0F5FF16C0F6FF17C035
:1000A000F7FF045006C0E0FF05C0D8FF10009EAA6D
:1000B000FED7AECF1BF01C8093908A709E9A30EFD3
:1000C00000F0EA6A330EE96EEF500DE0020E016EA9
:1000D000006A002EFED7012EFBD7970E006E002E71
:1000E000FED7EF2EF3D765EF01F0000E016EC25080
:1000F000C30B0110C26E060E006E002EFED700006C
:10010000C282C2B2FED7C4CF1DF0040E016EC2502F
:10011000C30B0110C26E060E006E002EFED700004B
:10012000C282C2B2FED7C4CF1EF0080E016EC2500A
:10013000C30B0110C26E060E006E002EFED700002B
:10014000C282C2B2FED7C4CF1FF00C0E016EC250E5
:10015000C30B0110C26E060E006E002EFED700000B
:10016000C282C2B2FED7C4CF20F0958083A002D055
:100170001C8201D01C92958283A202D01C8401D0E3
:100180001C9468EF01F0100E016EC250C30B0110F9
:10019000C26E060E006E002EFED70000C282C2B2F2
:1001A000FED7C4CF21F0140E016EC250C30B011054
:1001B000C26E060E006E002EFED70000C282C2B2D2
:1001C000FED7C4CF22F0180E016EC250C30B01102F
:1001D000C26E060E006E002EFED70000C282C2B2B2
:1001E000FED7C4CF23F01C0E016EC250C30B01100A
:1001F000C26E060E006E002EFED70000C282C2B292
:10020000FED7C4CF24F0958083A002D01C8601D0F5
:100210001C96958283A202D01C8801D01C9869EF9D
:1002200001F0F86AD09E078E700ED36ED350B89648
:100230000C0EAF6EA20EAC6E900EAB6E1C807D0EDF
:100240001D6E7D0E1E6E7D0E1F6E7D0E206E1C922D
:100250001C947D0E216E7D0E226E7D0E236E7D0E12
:10026000246E1C961C98256A266A1C8A286A276AAE
:100270002A6A296A2C6A0A0E2B6E0A0E2D6E2E6AC5
:10028000690E2F6E690E306EC150C00B0F09C16E22
:10029000070EB46E1A6A450E196E070E466EB70E3B
:1002A000456E486A476AC00EF2129D8AC150C00B63
:1002B0000709C16EC050C00BC06EC09EC280316ABB
:1002C000020E326EFA0E336EFCD6322EFBD70DD7ED
:1002D0005AD71CA032D01CA201D02E801CA401D061
:1002E0002E821CA601D02E841CA801D02E861D5063
:1002F0009EA8FED7AD6E1E509EA8FED7AD6E1F50B5
:100300009EA8FED7AD6E20509EA8FED7AD6E2150A0
:100310009EA8FED7AD6E22509EA8FED7AD6E23508C
:100320009EA8FED7AD6E24509EA8FED7AD6E2E506F
:0E0330009EA8FED7AD6E2E6A1C90C9D70300A2
:020000040030CA
:0E00000020C93E1E0007A1000FC00FE00F40F8
:00000001FF
;PIC18F4550
;CRC=A139  CREATED="22-nov.-24 03:37"
