:04000000BCEF12F04F
:08000800046ED8CF05F0E0CF33
:1000100006F00001E9CF0CF0EACF07F0E1CF08F0DD
:10002000E2CF09F0D9CF0AF0DACF0BF0F3CF12F01C
:10003000F4CF13F0FACF14F0F5CF15F0F6CF16F099
:10004000F7CF17F000C00EF001C00FF002C010F0A3
:1000500003C011F09DAA30EF00F09EBA88EF02F0C5
:100060000EC000F00FC001F010C002F011C003F08C
:100070000CC0E9FF07C0EAFF078E08C0E1FF09C016
:10008000E2FF0AC0D9FF0BC0DAFF12C0F3FF13C0B2
:10009000F4FF14C0FAFF15C0F5FF16C0F6FF17C035
:1000A000F7FF045006C0E0FF05C0D8FF1000F76A54
:1000B000BE0FF66E000EF7220900F5501200000088
:1000C00000000000005F00000003000300143E1465
:1000D0003E14242A7F2A124333086661364955228A
:1000E000500005030000001C2241000041221C00BA
:1000F00014083E081408083E0808005030000008A4
:1001000008080808006060000020100804023E5142
:1001100049453E04027F000042615149462241495F
:1001200049361814127F1027454545393E4949493B
:100130003201017109073649494936264949493E84
:100140000036360000005636000008142241001424
:1001500014141414004122140802015109063E41EE
:1001600059555E7E0909097E7F494949363E41411C
:1001700041227F4141413E7F494949417F09090967
:10018000013E4141493A7F0808087F00417F410014
:10019000304040403F7F081422417F404040407F34
:1001A000020C027F7F0204087F3E4141413E7F09ED
:1001B0000909061E2121215E7F0909097600F76AD7
:1001C000CE0FF66E010EF7220900F55012002649F7
:1001D00049493201017F01013F4040403F1F20401B
:1001E000201F7F2010207F41221C22410708700819
:1001F000076151494543007F410000020408102077
:100200000000417F000402010204404040404000E1
:100210000102040020545454787F44444438384444
:10022000444444384444447F385454541804047EAD
:100230000505085454543C7F0804047800447D406C
:10024000002040443D007F1028440000417F4000D2
:100250007C047804787C0804047838444444387C6E
:1002600014141408081414147C007C080404485462
:1002700054542004043F44443C4040207C1C204013
:10028000201C3C4030403C44281028440C50505026
:100290003C4464544C44000836414100007F000057
:1002A00041413608000201020402B80FF66E020E48
:1002B000F7220900F55012000000000000000100C4
:1002C000000000000000000000000000000000002E
:1002D000010000000000000000010000000000001C
:1002E000000000000000000002000000000000000C
:1002F00000000000000000020000000000000000FC
:1003000000000000020000000000000000000000EB
:1003100000000000000000000000000303000000D7
:1003200000030000000000000000000000000000CA
:1003300000020301000000000000000000000000B7
:1003400000000000000000020000010001000000A9
:100350000000000100010000000000000000000398
:100360000000030003000000000000000000000087
:10037000000000000000000000000000000000007D
:10038000000000000000000000000000000000006D
:10039000000000000000000000000000000000005D
:1003A000000000000000000000000000000000004D
:1003B000000000000000000000000000000000003D
:1003C000000000000000000000000000000000002D
:1003D000000000000000000000000000000000001D
:1003E000000000000000000000000000000000000D
:1003F00000000000000000000000000000000000FD
:1004000000000000000000000000000000000000EC
:1004100000000000000000000000000000000000DC
:1004200000000000000000000000000000000000CC
:1004300000000000000000000000000000000000BC
:1004400000000000000000000000000000000000AC
:10045000000000000000000000000000000000009C
:10046000000000000000000000000000000000008C
:10047000000000000000000000000000000000007C
:10048000000000000000000000000000000000006C
:10049000000000000000000000000000000000005C
:1004A000000000000000000000000000000000004C
:1004B000000000000000000000000000000000003C
:1004C000000000000000000000000000000000002C
:1004D000000000000000000000000000000000001C
:1004E000000000000000000000000000000000000C
:1004F00000000000000000000000000000000000FC
:1005000000000000000000000000000000000000EB
:100510009EAAFED7AECF0DF202011151F70F47E2AE
:10052000090F0001E0EF02F00DC213F202013FD00B
:100530000DC212F202013BD00DC214F2020137D0FB
:100540000DC215F2020133D00DC217F202012FD0F5
:100550000DC216F202012BD00DC218F2020127D0F3
:100560000DC219F2020123D002010DA102D0010E29
:1005700001D0000E1095E8B010850DA302D0010E39
:1005800001D0000E1097E8B010870DA502D0010E23
:1005900001D0000E1099E8B010890DA702D0010E0D
:1005A00001D0000E109BE8B0108B01D00201112B7E
:1005B0001151090801E1116B9E9A000130EF00F022
:1005C000E824F76AF736DB0FF66E050EF7220A000D
:1005D000F550FA6E0800F550F96E2805300538051B
:1005E000400548055005580560056805020EEA6E8D
:1005F0006F0EE96EEF500DE0060E016E006A002EE0
:10060000FED7012EFBD77B0E006E002EFED7EF2EFD
:10061000F3D71200000E956E93988A9802018E53BC
:1006200003E093928A8202D093908A8000D000D017
:100630000000956A8FC28CFF00D000D00000939A12
:100640008A8A00D000D00000939A8A9A93908A9068
:1006500093928A920001120002016F6B6F5107089A
:100660003CE393948A948E6B400E8F6F0001D2DF2F
:10067000010E02018E6F400E8F6F0001CBDF020171
:100680006F51B809716F8E6B8F6F0001C3DF02016C
:100690006F51B809716F010E8E6F71C28FF2000138
:1006A000B9DF93948A840201706B70513F0813E3A1
:1006B0006E51FF0DF3CF8FF28E6B0001ABDF0201A5
:1006C0006E51FF0DF3CF8FF2010E8E6F0001A2DF8E
:1006D0000201702BEAD76F2BC1D700011200949052
:1006E0008B80939A8A9A93908A9093928A92939409
:1006F0008A9402018E6BC00E8F6F00018BDF010E9A
:1007000002018E6FC00E8F6F000184DF02018E6BBD
:10071000400E8F6F00017EDF010E02018E6F400ED2
:100720008F6F000177DF02018E6BB80E8F6F0001B3
:1007300071DF010E02018E6FB80E8F6F00016ADF4C
:1007400002014F2D0ED08E6B3F0E8F6F000162DFC6
:10075000010E02018E6F3F0E8F6F00015BDF0DD027
:1007600002018E6B3E0E8F6F000154DF010E0201FD
:100770008E6F3E0E8F6F00014DDF02016E6B000128
:100780006BDFD5EF13F0FF0E956E93988A88020108
:100790008D5303E093928A8202D093908A8000D096
:1007A00000D00000939A8A8A00D000D0000095689B
:1007B00083CF8EF2939A8A9A93908A9093928A9298
:1007C0008EC201F00001120002018B9187513F0897
:1007D00003E2400E875F8B8193948A94879F878D75
:1007E000000E8BB1010E8C6F8E6F87C28FF20001ED
:1007F00011DF000E02018BB1010E8C6F8831006E8B
:10080000003200321F0E00160050BF0BB8098D6F6A
:100810008CC28EF28F6F0001FDDE93948A84000EED
:1008200002018BB1010E8C6F8D6F0001ACDF000EE9
:1008300002018BB1010E8C6F8D6F0001A4DF01C02E
:100840008AF20201892D0FD08851070B8C6F010E9F
:10085000006E8C51016E04E0D8900036012EFCD75A
:1008600000508A130FD08851070B8C6F010E006E59
:100870008C51016E04E0D8900036012EFCD7005058
:10088000FF0A8A1793948A94000E8BB1010E8C6F25
:100890008E6F87C28FF20001BDDE93948A84000EB2
:1008A00002018BB1010E8C6F8E6F8AC28FF2000134
:1008B000B1DE120002017B6B7B517725E96E000EE1
:1008C0007821EA6EEF52D8B4AAD07B517725E96E31
:1008D000000E7821EA6EEF50520822E37B51772513
:1008E000E96E000E7821EA6E200EEF5C050DF350E4
:1008F000036A856F020EEA6E800EE96E896B85C20F
:1009000088F2050E016EF76A8551000157EC00F080
:100910000A000900F5CFEEFF012EFBD731D002010E
:100920007B517725E96E000E7821EA6EEF507E0844
:1009300021E37B517725E96E000E7821EA6E530E94
:10094000EF5C050DF350036A856F020EEA6E800EB0
:10095000E96E896B85C288F2050E016EF76A8551D2
:1009600000012DDC0A000900F5CFEEFF012EFBD7B8
:1009700007D00201806B816B826B836B846B0001FB
:1009800002017951050DF35075257F0806E2756B5C
:100990007951070DF350010F76277C6B7C510408C9
:1009A0003BE37D6B7951070DF3507D5D31E2036AC6
:1009B0007C51800FE96E020E0320EA6EEFCF00F04B
:1009C0007D51016E04E0D8900032012EFCD700A0CA
:1009D0001DD07E6B79517E5D19E27F6B79517F5D11
:1009E00013E27F517525856F7D517903F35076258C
:1009F0007E25866F85C287F2886F7AC289F20001F0
:100A0000E3DE02017F2BEAD77E2BE4D77D2BCAD70A
:100A10007C2B79517527C2D77B2B752B4DD70001C5
:100A20001200006A016A02018451D89085B1002643
:100A30000032013285B300260032013285B500262E
:100A40000032013285B700260032013285B9002616
:100A50000032013285BB00260032013285BD0026FE
:100A60000032013285BF002600320132000112003F
:100A700002017551775D836F835183AF03D0000E00
:100A8000D88083557E6F7651785D836F835183AFB5
:100A900003D0000ED88083557F6F75C27AF276C27C
:100AA0007BF27551775D02E27C6902D0010E7C6FAA
:100AB0007651785D02E27D6902D0010E7D6F7F5133
:100AC000800A006E7E51800A005C01E050E2020E56
:100AD000846F7FC285F20001A4DF02017E51015CB8
:100AE000036AE8BE0306806F03C081F2826B7EBF9B
:100AF0003DD082517E5D3AE37AC287F27BC288F2B2
:100B000079C289F2000160DE020181AF11D0020ECC
:100B1000846F7FC285F2000184DF0150036AE8BE62
:100B2000030602018027035081237C517A271CD0C1
:100B3000020E846F7FC285F2000173DF01C083F271
:100B4000020E0201846F7EC285F200016ADF01504D
:100B50000201835D036AE8BE0306802703508123F8
:100B60007C517A277D517B27822BC1D74FD0020E33
:100B7000846F7EC285F2000154DF02017F51015C67
:100B8000036AE8BE0306806F03C081F2826B7FBFF9
:100B90003DD082517F5D3AE37AC287F27BC288F210
:100BA00079C289F2000110DE020181AF11D0020E7C
:100BB000846F7EC285F2000134DF0150036AE8BE13
:100BC000030602018027035081237D517B271CD01F
:100BD000020E846F7EC285F2000123DF01C083F222
:100BE000020E0201846F7FC285F200011ADF0150FC
:100BF0000201835D036AE8BE030680270350812358
:100C00007C517A277D517B27822BC1D700011200AE
:100C100002014F51010A000104E0030AD8B496D042
:100C20002AD1410E0201506F530E516F540E526F74
:100C3000450E536F520E546F4F0E556F490E566F3F
:100C4000440E576F530E586F596B260E756F040E76
:100C5000766F020E786F500E776F010E796F7A6F94
:100C6000000128DE02015A6B5A510F086DE35B6BDD
:100C70005B510F0867E35B51100DF350766B756F96
:100C8000036A5A517525016E7651032201501B0FDC
:100C9000E96E000E0320EA6EEF2C2AD0140E5A25BE
:100CA000756F1A0E5B25766F75C287F2886F896B38
:100CB00000018ADD520E02015A25756F1A0E5B255E
:100CC000766F75C287F2886F010E896F00017CDD37
:100CD000600E02015A25756F1A0E5B25766F75C27C
:100CE00087F2886F010E896F00016EDD28D0020146
:100CF000140E5A25756F1A0E5B25766F75C287F232
:100D0000886F010E896F00015FDD520E02015A25C6
:100D1000756F1A0E5B25766F75C287F2886F896BC7
:100D2000000152DD600E02015A25756F1A0E5B2517
:100D3000766F75C287F2886F896B000145DD02010D
:100D40005B2B96D75A2B90D73DD10001410E020163
:100D50005C6F530E5D6F540E5E6F450E5F6F520EEB
:100D6000606F4F0E616F490E626F440E636F530EDA
:100D7000646F656B260E756F040E766F020E786FCA
:100D80005C0E776F010E796F7A6F000193DD0201BF
:100D9000666B66510F086DE3676B67510F0867E379
:100DA0006751100DF350766B756F036A66517525A8
:100DB000016E7651032201501B0FE96E000E0320D5
:100DC000EA6EEF2C29D0140E6625756F1A0E672572
:100DD000766F75C287F2886F010E896F0001F4DCAF
:100DE000520E02016625756F1A0E6725766F75C261
:100DF00087F2886F896B0001E7DC600E02016625CF
:100E0000756F1A0E6725766F75C287F2886F896BCA
:100E10000001DADC29D00201140E6625756F1A0E66
:100E20006725766F75C287F2886F896B0001CCDC0D
:100E3000520E02016625756F1A0E6725766F75C210
:100E400087F2886F010E896F0001BEDC600E02011F
:100E50006625756F1A0E6725766F75C287F2886FE3
:100E6000010E896F0001B0DC0201672B96D7662B5B
:100E700090D7A8D00001020E0201686F68510C08DB
:100E80000FE3200E756F68C276F2610E776F68C24D
:100E900078F2010E796F0001EBDD0201682BEED7CD
:100EA000410E696F530E6A6F540E6B6F450E6C6F77
:100EB000520E6D6F4F0E6E6F490E6F6F440E706F56
:100EC000530E716F726B260E756F040E766F020EE5
:100ED000786F690E776F010E796F7A6B0001EADC2B
:100EE0000201736B73510F086DE3746B74510F083B
:100EF00067E37451100DF350766B756F036A73518D
:100F00007525016E7651032201501B0FE96E000E0C
:100F10000320EA6EEF2C2BD0140E7325756F1A0E7A
:100F20007425766F75C287F2886F010E896F000194
:100F30004BDC520E02017325756F1A0E7425766F05
:100F400075C287F2886F010E896F00013DDC600E6B
:100F500002017325756F1A0E7425766F75C287F2BC
:100F6000886F010E896F00012FDC27D00201140E5B
:100F70007325756F1A0E7425766F75C287F2886FA8
:100F8000896B000121DC520E02017325756F1A0E68
:100F90007425766F75C287F2886F896B000114DC47
:100FA000600E02017325756F1A0E7425766F75C277
:100FB00087F2886F896B000107DC0201742B96D7DA
:100FC000732B90D700011200520E0201506F450E94
:100FD000516F540E526F550E536F520E546F4E0E8A
:100FE000556F566B500E576F4C0E586F410E596F20
:100FF000590E5A6F5B6B4F5344E01D0E5C6F5C5192
:1010000029080FE3140E756F5CC276F25A0E776FE3
:101010005CC278F2010E796F00012ADD02015C2BBF
:10102000EED7180E756F1E0E766F020E786F570E84
:10103000776F010E796F7A6B00013CDC2B0E020199
:101040005D6F5D5137080EE3140E756F5DC276F269
:101050005A0E776F5DC278F2796B000109DD0201EB
:101060005D2BEFD7180E756F2C0E766F020E786F12
:10107000500E776F010E796F7A6F00011BDC45D03F
:1010800002011D0E5E6F5E5129080EE3140E756F8E
:101090005EC276F25A0E776F5EC278F2796B00010B
:1010A000E7DC02015E2BEFD7180E756F1E0E766F10
:1010B000020E786F570E776F010E796F7A6F00010D
:1010C0005AEC04F02B0E02015F6F5F5137080FE3FB
:1010D000140E756F5FC276F25A0E776F5FC278F2A8
:1010E000010E796F0001C4DC02015F2BEED7180EF0
:1010F000756F2C0E766F020E786F500E776F010EA3
:10110000796F7A6B00015AEC04F012000201515120
:101110005303F3CF01F0F4CF00F05403F350002653
:1011200052515303F3500020026E0001C7EF14F038
:1011300002016E6B00012CEC03F0500E02014F6FA8
:10114000720E506F650E516F730E526F690E536FB2
:101150006F0E546F6E0E556F610E566F200E576FE7
:10116000700E586F610E596F720E5A6F610E5B6F81
:10117000200E5C6F720E5D6F650E5E6F730E5F6F9B
:10118000740E606F610E616F720E626F740E636F2A
:10119000646B756B766B020E786F4F0E776F010E76
:1011A000796F7A6F00015AEC04F0E1EF14F08E0EC3
:1011B000006E86C201F085C202F0036A015209E1A5
:1011C00002C001F0026A080E005E015202E1006AEC
:1011D00008D0D89001BE04D0023601360006F9D7F7
:1011E000019E120002015751D8B4A5D0636F5B5124
:1011F000D8B4A1D0635F05E37F0E6327D8B09BD03E
:1012000006D0810E635FD8A096D0D8B494D063C2C4
:1012100000F0016A026A036A626B58C261F2618F70
:1012200059C260F25AC25FF2190E636F5E515F5F7E
:101230000DE2010E605F0AE2615F08E2625F06E2B2
:10124000622B612B602B5E515F2728D05D51605F60
:1012500012E2010E615F0FE2625F0DE2622B612B11
:101260005D5160275E515F2719E3602B17E1612B09
:1012700015E1622B13D05C518009615F0EE2010E13
:10128000625F0BE2622B5C51800961275D51602730
:10129000E9E3612BE7E1622BE5D70380632F01D0FF
:1012A0000BD0D8905F37603761376237D8900336FC
:1012B000023601366437BAD764A106D0D89001321D
:1012C00002320332643302D0000635E064BF1ED020
:1012D000D8905F376037613762375E515F5F07E2F2
:1012E000010E605F04E2615F02E2625F1AE35D513A
:1012F000605F05E2010E615F02E2625F12E35C5132
:101300008009615F03E2010E625F0BE3032A09E1DA
:10131000022A07E1012A05E1002A0DE0013202322A
:10132000033258C263F25C51631B63AF02D0018E7B
:1013300006D0019E04D0006A016A026A036A0001B5
:1013400012008E0E006E02018151005E82C202F018
:1013500083C201F0028E005209E0D890025202E1ED
:10136000015204E002320132002EF7D782AF05D0DD
:10137000011E021E012AD8B4022A00011200020135
:101380006051016A5F5D03E25FC200F00CD0006A49
:10139000080E616F5F3700366051005CD8B0006E98
:1013A0000136612FF7D700011200800ED8A202D0BB
:1013B00002018A1B02018F6B906B86C28EF28A51EA
:1013C0008E1B8551D8B4DFD08D6F006E8951D8B493
:1013D000E3D08D5FD8B483D03EE38AC293F2938F7B
:1013E0008BC292F28CC291F2906BD890933392336D
:1013F000913390338D2FF8D78EAF03D08F81E0D00B
:101400008F918D918F89020EEA6E880EE96EEBD076
:101410008F998EBF0AD08DA113D09333923391331D
:101420009033002AD8B4C7D00BD093BF0CD0D8903B
:1014300090379137923793370006D8B4BCD0F5D7A0
:101440008F8D6DD08F9D86C28EF286AF02D0938F26
:10145000ABD0939FA9D089C28DF289C200F085518B
:101460008D5F86C293F2938F87C292F288C291F207
:10147000906BD89093339233913390338D2FF8D76C
:101480008EAF03D08F839CD08F938D918F8B020E64
:10149000EA6E8C0EE96EA7D08F9B8EBF0AD08DA10D
:1014A00013D09333923391339033002AD8B483D03E
:1014B0000BD093BF0CD0D890903791379237933799
:1014C0000006D8B478D0F5D78F8F29D08F9F8AC2E5
:1014D0008EF28AAF02D0938F67D0939F65D08AC275
:1014E00093F2938F8BC292F28CC291F28EAF04D0A2
:1014F000939F8F8565D08F95906B8D91020EEA6ECC
:10150000880EE96E70D08EBF1CD086C28EF28DA17F
:1015100006D09333923391339033002A4CE090AF4E
:101520000BD0912B09E1922B07E1932B05E193332B
:1015300092339133002A3FE08FBD84D78FBFC6D747
:101540001CD0800E931B93AF04D03AD08AC28EF287
:101550000AD086C28EF2935306E1925304E191536E
:1015600002E1006A21D093BF08D0D890903791371C
:1015700092379337002EF7D71ED08EAF02D0938FBD
:1015800013D0939F11D089C200F08AC293F28BC20C
:1015900092F28CC291F208D085C200F086C293F21A
:1015A00087C292F288C291F293C201F092C202F015
:1015B00091C203F034D0006A016A026A036A2FD034
:1015C000906B911F921F931F901F902B05E1912B01
:1015D00003E1922B01E1932B8FB112D78FB354D734
:1015E0008FB589D7B3D7EF50912705E3922B03E14D
:1015F000932BD8B48D81ED52EF50922703E3932BB8
:10160000D8B48D81ED52EF50EFBE01D0800A932700
:10161000D8B08D818FB9FCD68FBB3ED774D700016F
:101620001200020114514F081EE315514F0808E340
:10163000860E006E610E016E026A036A4ED012D0F1
:101640001551AA0808E2860E006E070E016E026AA6
:10165000036A43D007D0860E006E340E016E026A14
:10166000036A3BD03AD01451AA081DE215514F0825
:1016700009E3870E006E1D0E016E800E026E036A76
:101680002CD010D01551AA0808E2840E006E340E3A
:10169000016E026A036A21D005D0006A016A026AFB
:1016A000036A1BD01AD015514F0808E3870E006E4D
:1016B000070E016E026A036A10D00FD01551AA08F6
:1016C00008E2860E006E340E016E026A036A05D0CF
:1016D00004D0006A016A026A036A00018AEF15F009
:1016E00002018551D8B471D0006E8951D8B46DD043
:1016F000002604E3810E002668E204D07F0E005E1F
:1017000064E363E086C28DF28A518D1B868F8A8FD7
:1017100088518C03F4CF8FF287518B03F4CF03F001
:10172000F3CF8EF28C03F3508F27F4508E23000EEC
:10173000032288518B03F3508F27F4508E23000E21
:10174000026A0322022286518C03F3508E27F45042
:101750000322000E022286518B03F3500326F4501D
:101760000222000E016A012288518A03F3508E275B
:10177000F4500322000E0222012287518A03F35003
:101780000326F4500222000E012286518A03F350F0
:101790000226F4500122002A01BE05D08E370336FE
:1017A000023601360006000E8EAF0AD0032A02224E
:1017B0000122015005E1025003E1035001E1002A3A
:1017C0008DBF018E8DAF019E04D0006A016A026A4E
:1017D000036A000112000201866B12C285F2000149
:1017E000E6DC03C052F202C051F201C050F200C068
:1017F0004FF2D88203C088F202C087F201C086F29D
:1018000000C085F202018C6B8B6B7E0E8A6F850E99
:10181000896F0001CADD03C052F202C051F201C05B
:1018200050F200C04FF203C05AF202C059F201C098
:1018300058F200C057F202015E6B5D6B700E5C6F78
:10184000830E5B6F0001CEDCCAEF15F00201866BE0
:1018500013C285F20001ABDC03C052F202C051F2A8
:1018600001C050F200C04FF2D88203C088F202C01B
:1018700087F201C086F200C085F202018C6B8B6B8F
:101880007E0E8A6F850E896F00018FDD03C052F2D4
:1018900002C051F201C050F200C04FF203C05AF230
:1018A00002C059F201C058F200C057F202015E6B4B
:1018B0005D6B700E5C6F830E5B6F000193DCD4EF89
:1018C00015F082C289F202018651891B89AF05D0C9
:1018D000D894D89082BFD8802FD082C289F285C296
:1018E0008AF281518A5F06E089AF26D0D850010A7A
:1018F000D86E22D086C28AF282518A5F06E089AF12
:101900001BD0D850010AD86E17D087C28AF28351F3
:101910008A5F06E089AF10D0D850010AD86E0CD08B
:1019200088C28AF284518A5F06E089AF05D0D85018
:10193000010AD86E01D0D8900001120002014F5167
:10194000070B006E4F31016E013201321F0E01167E
:1019500001505125E96E000E5221EA6E016A012AFA
:10196000002A01D00136002EFDD7505303E001506C
:10197000EF1203D0011E0150EF1600011200020108
:10198000666B656B646B7F0E636F7E0E6D6F800E92
:101990006E6F6F6B706B7A0E716F2A0E726FAA0E7C
:1019A000736FA30E746F750E756FB60E766F090E9A
:1019B000776FB40E786F6F0E796F4F0E7A6FB60E29
:1019C0007B6FAA0E7C6F690E7D6F8B0E7E6FF60E9D
:1019D0007F6FE80E806F5AC284F259C283F258C2F8
:1019E00082F257C281F2886B876B866B856B000130
:1019F00068DF05E302015851800A586F00015AC29E
:101A000088F259C287F258C286F257C285F2830E15
:101A100002018C6FF90E8B6F220E8A6F7E0E896F1A
:101A200000015EDE03C084F202C083F201C082F2D4
:101A300000C081F286DC01C067F25AC288F259C246
:101A400087F258C286F257C285F2830E02018C6F6C
:101A5000F90E8B6F220E8A6F7E0E896F000140DEB9
:101A600003C084F202C083F201C082F200C081F29E
:101A70000201866B67C285F20001D7EC08F0D882BC
:101A800084C288F283C287F282C286F281C285F262
:101A900003C08CF202C08BF201C08AF200C089F24E
:101AA00084DC03C06CF202C06BF201C06AF200C0B9
:101AB00069F2030E02016717675303E067510208DA
:101AC0001CE16CC288F26BC287F26AC286F269C2FC
:101AD00085F2DB0E8C6F0F0E8B6F490E8A6F7F0EB7
:101AE000896F0001FDDD03C062F202C061F201C036
:101AF00060F200C05FF26BD00201672D35D0D88252
:101B0000886B876B866B7F0E856F6CC28CF26BC2A5
:101B10008BF26AC28AF269C289F2000146DC03C014
:101B200084F202C083F201C082F200C081F203C0DD
:101B300088F202C087F201C086F200C085F2DB0E97
:101B400002018C6F0F0E8B6F490E8A6F7F0E896FAB
:101B50000001C6DD03C062F202C061F201C060F2A2
:101B600000C05FF234D00201D8826CC288F26BC22E
:101B700087F26AC286F269C285F28C6B8B6B8A6BC4
:101B80007F0E896F000111DC03C084F202C083F272
:101B900001C082F200C081F203C088F202C087F265
:101BA00001C086F200C085F2DB0E02018C6F0F0EC1
:101BB0008B6F490E8A6F7F0E896F000191DD03C024
:101BC00062F202C061F201C060F200C05FF2020185
:101BD0005E6B5D6B5C6B7F0E5B6F62C288F261C295
:101BE00087F260C286F25FC285F262C28CF261C285
:101BF0008BF260C28AF25FC289F2000171DD03C01C
:101C000062F202C061F201C060F200C05FF2020144
:101C1000686B685104085CE366C288F265C287F2AB
:101C200064C286F263C285F262C28CF261C28BF238
:101C300060C28AF25FC289F2000152DD03C066F21F
:101C400002C065F201C064F200C063F20201685193
:101C5000040DF350036A6D0FE96E020E0320EA6E65
:101C6000EFCF85F2ECCF86F2ECCF87F2ECCF88F2A3
:101C700066C28CF265C28BF264C28AF263C289F2D8
:101C800000012EDDEACF82F2E9CF81F2D8925EC266
:101C900088F25DC287F25CC286F25BC285F203C045
:101CA0008CF202C08BF201C08AF200C089F2D5EC3E
:101CB00009F082C2EAFF81C2E9FF03C05EF202C0FE
:101CC0005DF201C05CF200C05BF20201682BA1D79B
:101CD0006751020802E0672D03D05C51800A5C6FF7
:101CE0005BC200F05CC201F05DC202F05EC203F0B4
:101CF00000011200D88252C288F251C287F250C24B
:101D000086F24FC285F2DB0E02018C6F0F0E8B6FD5
:101D1000490E8A6F7F0E896F0001D5EC09F003C070
:101D200056F202C055F201C054F200C053F203C093
:101D30005AF202C059F201C058F200C057F21FDE39
:101D400021EF1AF002014F51070B006E4F31016E67
:101D5000013201321F0E011601505025E96E000EAE
:101D60005121EA6EEFCF01F0002A01D00132002E9E
:101D7000FDD7010E01160001120002015451080D99
:101D8000F3505225566F5451080DF3505325576F99
:101D900056517F08D8B0CCD052C275F253C276F2F9
:101DA0007F0E776F53C278F255C279F2000138EC9A
:101DB00005F07F0E0201565D586F756B53C276F2C7
:101DC000776F53C278F255C279F2000138EC05F012
:101DD000020157513F086FE23F0E575D586F3F0EAB
:101DE000575D596F52C275F258C276F27F0E776F07
:101DF00059C278F255C279F2000138EC05F03F0E75
:101E00000201575D586F7F0E565D596F3F0E575D4B
:101E10005A6F756B58C276F259C277F2786F55C215
:101E200079F2000138EC05F052C275F253C276F235
:101E300052C277F23F0E0201786F55C279F200016B
:101E400038EC05F03F0E0201575D586F52C275F233
:101E5000766B52C277F2786F55C279F2000138EC96
:101E600005F07F0E0201565D586F7F0E565D596F6B
:101E700058C275F253C276F2776F3F0E786F55C233
:101E800079F2000138EC05F07F0E0201565D586FC3
:101E90007F0E565D596F3F0E575D5A6F58C275F2EF
:101EA000766B59C277F2786F55C279F2000138EC3F
:101EB00005F03CD0020152C275F257C276F27F0E95
:101EC000776F57C278F255C279F2000138EC05F00D
:101ED0007F0E0201565D586F756B57C276F2776FB1
:101EE00057C278F255C279F2000138EC05F052C2BF
:101EF00075F253C276F252C277F257C278F255C2E7
:101F000079F238EC05F07F0E0201565D586F7F0EB6
:101F1000565D596F58C275F253C276F2776F57C249
:101F200078F255C279F2000138EC05F085D0020153
:101F300052C275F253C276F256C277F253C278F2A9
:101F400055C279F2000138EC05F0020157513F0803
:101F50004EE23F0E575D586F3F0E575D596F52C2AC
:101F600075F258C276F256C277F2786F55C279F29E
:101F7000000138EC05F052C275F253C276F252C23B
:101F800077F23F0E0201786F55C279F2000138EC0A
:101F900005F03F0E0201575D586F52C275F2766B25
:101FA00052C277F2786F55C279F2000138EC05F031
:101FB00056C275F253C276F256C277F23F0E020154
:101FC000786F55C279F2000138EC05F03F0E02013E
:101FD000575D586F56C275F2766B56C277F2786FBE
:101FE00055C279F2000138EC05F026D0020152C248
:101FF00075F257C276F256C277F257C278F255C2DE
:1020000079F2000138EC05F052C275F253C276F253
:1020100052C277F257C278F255C279F238EC05F025
:1020200056C275F253C276F256C277F257C278F2B0
:1020300055C279F238EC05F012001BC2EAFF1AC251
:10204000E9FF020166C2EFFFE92AD8B4EA2AEF6A83
:102050001A2BD8B41B2B00011200EACF65F2E9CF8E
:1020600064F202015E39F009606F6027E20F616F70
:10207000320F636F5E510F0B612761276327E90FF2
:10208000626F622762275D390F0B62276327623711
:102090006337631F63375D510F0B63276037070E8C
:1020A0005F6F0A0E62076327FDE361076227FDE3A6
:1020B00060076127FDE35F076027FDE3020EEA6E1C
:1020C0005F0EE96E070E6415649DE926000EEA2294
:1020D000E950630804E1EA50020801E1648DEF5021
:1020E000006E08E164BD06D064B915D064B702D0B3
:1020F000200E03D064876499300E0026EACF5EF28A
:10210000E9CF5DF200C066F2000197DF5EC2EAFF30
:102110005DC2E9FF0201EE5064ADDAD70001E6EFDF
:1021200010F001505DC25FF2640E0201606F0001A9
:10213000BFEC09F000C05DF20150300E08E1020171
:102140005EA30FD05EB70DD05EB9200E04D00201A1
:102150005E975E995E81012601C066F200016DDF27
:1021600002015DC25FF20A0E606F0001BFEC09F070
:1021700000C05DF20150300E08E102015EB70AD0E6
:102180005EA108D05EB9200E0001012601C066F2F2
:1021900054DF0201300E5D275DC266F200014DDFA3
:1021A00009EF11F0020E02011B6F530E1A6F666FDA
:1021B000000143DF3A0E0201666F00013EDF100EA0
:1021C000E96E50C25EF24FC25DF247D70201756BF5
:1021D000766B020E786F530E776F010E796F52C2D5
:1021E0007AF200015AEC04F0020E02011B6F590E44
:1021F0001A6F4C0E666F000120DF3A0E0201666F07
:1022000000011BDF51C25DF21B0E02015E6F000177
:1022100088D7670E0201756F766B020E786F590EC4
:10222000776F010E796F52C27AF200015AEC04F016
:1022300012000201866B4FC285F20001D7EC08F054
:1022400003C053F202C052F201C051F200C050F27A
:10225000D88203C088F202C087F201C086F200C0B3
:1022600085F202018C6B8B6B7E0E8A6F850E896FF7
:102270000001D5EC09F003C053F202C052F201C0D4
:1022800051F200C050F203C05AF202C059F201C02C
:1022900058F200C057F202015E6B5D6B700E5C6F0E
:1022A000830E5B6F0001F2EC08F0120002014F5147
:1022B000CD0804E2020E016E16D006D04F5131084F
:1022C00003E3040E016E0FD05051CD0804E2010E5D
:1022D000016E09D006D05051310803E3030E016EA0
:1022E00002D0000E016E0001120002014F533DE0CA
:1022F000010E6E6F00012CEC03F0500E0201506FC6
:102300004C0E516F410E526F590E536F450E546F64
:10231000520E556F200E566F310E576F200E586FAC
:10232000570E596F490E5A6F4E0E5B6F530E5C6F0E
:10233000210E5D6F5E6B1D0E756F160E766F020EB1
:10234000786F500E776F010E796F7A6B00015AEC3F
:1023500004F0020E02016E6FFA0E6F6F0001F6ECD0
:1023600002F002016E2FF8D73CD0010E6E6F000113
:102370002CEC03F0500E02015F6F4C0E606F410EAB
:10238000616F590E626F450E636F520E646F200EBF
:10239000656F320E666F200E676F570E686F490EBD
:1023A000696F4E0E6A6F530E6B6F210E6C6F6D6B03
:1023B0001D0E756F160E766F020E786F5F0E776FBB
:1023C000010E796F7A6B00015AEC04F0020E0201E3
:1023D0006E6FFA0E6F6F0001F6EC02F002016E2FC5
:1023E000F8D700011200020E02014F5D526F020E7B
:1023F0005025536F020E4F25546F020E5025556F16
:1024000052C275F253C276F254C277F2786F51C25B
:1024100079F2000138EC05F0020E02014F5D526FB7
:10242000020E505D536F020E4F25546F020E505D29
:10243000556F52C275F253C276F254C277F2786F7A
:1024400051C279F2000138EC05F0020E02014F5D35
:10245000526F020E5025536F020E4F5D546F020EE5
:10246000505D556F52C275F253C276F254C277F284
:10247000786F51C279F2000138EC05F0020E0201CA
:102480004F25526F020E5025536F020E4F25546F89
:10249000020E505D556F52C275F253C276F254C2AD
:1024A00077F2786F51C279F2000138EC05F0040E32
:1024B00002014F5D526F040E5025536F040E4F25DD
:1024C000546F040E5025556F52C275F253C276F206
:1024D00054C277F2786F51C279F2000138EC05F0FE
:1024E000040E02014F5D526F040E505D536F040ED7
:1024F0004F25546F040E505D556F52C275F253C292
:1025000076F254C277F2786F51C279F2000138EC5A
:1025100005F0040E02014F5D526F040E5025536FFB
:10252000040E4F5D546F040E505D556F52C275F22C
:1025300053C276F254C277F2786F51C279F2000139
:1025400038EC05F0040E02014F25526F040E5025A1
:10255000536F040E4F25546F040E505D556F52C2D9
:1025600075F253C276F254C277F2786F51C279F2A3
:10257000000138EC05F01200F86AD09E078EB8868C
:10258000080EAF6E020EB06EA60EAC6E900EAB6E65
:1025900001011E6B1D6B1C6B1B6B226B216B206B77
:1025A0001F6B400E256F200E266F2A6B296B286B40
:1025B000276B2E6B2D6B2C6B2B6B326B316B306B57
:1025C0002F6B366B356B346B336B400E396F200ECF
:1025D0003A6F3E6B3D6B3C6B3B6B426B416B406BB0
:1025E0003F6B4381140E446F456B4383466F476BCB
:1025F0004B6B4A6B496B486B4F6B4E6B4D6B4C6B27
:10260000400E526F200E536F576B566B556B546BC9
:102610005B6B5A6B596B586B4395676B666B656B5D
:10262000646B6B6B6A6B696B686B4397776B766BEC
:10263000756B746B7B6B7A6B796B786B4399439B8F
:10264000876B866B856B846B8B6B8A6B896B886BF6
:10265000439D0201046B056B0101438F0201076B6F
:10266000066B096B086B0B6B0A0E0A6F0C6F690E19
:102670000E6F740E0F6F10811093116B7D0E126F21
:10268000136F146F156F10951097166F176F186FE3
:10269000196F1099109B1B6B1A6BC150C00B0F095F
:1026A000C16E070EB46E020E1A6E950E196E050EEF
:1026B000966F670E956F986B976B000148D0164028
:1026C0001B0004C0010BC00006C00109C00008C007
:1026D0000108C00008C00109C00006C0010BC0000D
:1026E00004C0011AC0000280010104C00002800180
:1026F0000107C00004C0010280000004C00106C040
:10270000000AC00105C0000CC00104C0000CC001DB
:1027100003800000000EC001028000000EC0011105
:10272000C0002801DCFE01FD03FE03FF02FD03FEE5
:1027300002FF02FF02FE03FEFF02FFFE03FE02FF96
:1027400001FE03FF03FEFF02FDFD03FE0100000E7C
:10275000F86E260EF76EBE0EF66E0900F550006E8E
:10276000000A13E00900F550016EE8BE05D03F0BEA
:10277000EA6E0900F550E96E01BC090001AC0900E0
:10278000F550EE6E004EE9D7F9D7F86AC00EF21296
:102790009D8A640E02016F6F0001F6EC02F0010EDB
:1027A00002014F6F00016FEF03F002016E6B000139
:1027B0002CEC03F002011C6B1D6B1E6B1F6B010EDA
:1027C0004F6F000108EC06F0020120912093209544
:1027D000366B376B386B396B20970E51690A0001E5
:1027E0000EE01A0A56E01E0AD8B485D0070AD8B4FB
:1027F000B5D0200AD8B4F0EF1CF0E9EF21F00201C7
:1028000013517D0802E21C6B08D012517D0803E2CF
:10281000020E1C6F02D0010E1C6F1D511C5D09E0E1
:102820006E6B00012CEC03F01CC24FF208EC06F0BA
:10283000020110A729D01C51010A000103E0030A7C
:102840000FE01CD0730E02010E6F6E6B00012CECBA
:1028500003F0010E02014F6F0001E4EC07F013D00A
:102860006D0E02010E6F6E6B00012CEC03F0010E79
:1028700002014F6F0001E4EC07F005D0690E020180
:102880000E6F2087000102011CC21DF2EAEF21F049
:102890000001020113517C0803E2010E1E6F01D0FA
:1028A0001E6B1F511E5D09E06E6B00012CEC03F0E6
:1028B0001EC24FF2E4EC07F0020110A517D01E5122
:1028C000000A000103E0010A09E00FD0690E0201CD
:1028D0000E6F6E6B00012CEC03F007D06A0E020144
:1028E0000E6F6E6B00012CEC03F002011EC21FF292
:1028F000EAEF21F00001020113517C0803E2010E0E
:102900001E6F01D01E6B1F511E5D09E06E6B000132
:102910002CEC03F01EC24FF2E4EC07F0020110A50C
:1029200018D01E51000A000103E0010A09E010D08E
:10293000690E02010E6F6E6B00012CEC03F008D0E3
:102940004A0E02010E6F20876E6B00012CEC03F023
:1029500002011EC21FF2EAEF21F00001010143AFA4
:10296000D6D0439F02013A6B3A51130825E3036A1C
:102970003A51220FE96E020E0320EA6E526B04C236
:1029800051F2546B140E536F000186EF08F002C031
:1029900052F201C051F202013A510124016E000EBF
:1029A0000220036E015003C0F7FF000155EC01F057
:1029B000EF6E02013A2BD8D7045309E1000198EFDA
:1029C00008F03F0E0101526F1F0E536F0201042BDE
:1029D0003B6B3B511308D8A093D0036A3B51B40F13
:1029E000E96E010E0320EA6E866B3BC285F20001A0
:1029F000D7EC08F003C054F202C053F201C052F207
:102A000000C051F203C05AF202C059F201C058F29C
:102A100000C057F202015E6B5D6B5C6B800E5B6FFA
:102A20000001F2EC08F003C084F202C083F201C09E
:102A300082F200C081F2A1EC09F001C05FF20A0E3F
:102A40000201606F0001BFEC09F000C0EFFF036AF4
:102A500002013B51B40FE96E010E0320EA6E866B52
:102A60003BC285F20001D7EC08F0EACF52F2E9CF81
:102A700051F2D8820201886B876B200E866F830E1D
:102A8000856F03C08CF202C08BF201C08AF200C0D5
:102A900089F20001D5EC09F052C2EAFF51C2E9FF08
:102AA00003C056F202C055F201C054F200C053F206
:102AB00003C05AF202C059F201C058F200C057F2E6
:102AC00002015E6B5D6B5C6B800E5B6F0001F2EC74
:102AD00008F003C084F202C083F201C082F200C099
:102AE00081F2A1EC09F001C05FF20A0E0201606FF1
:102AF0000001BFEC09F000C0EFFF02013B2B69D7DA
:102B00006E6B00012CEC03F0ECEF1CF001010001F6
:102B100011EF0BF003C052F202C051F201C050F2AB
:102B200000C04FF203C088F202C087F201C086F2F3
:102B300000C085F2F90E02018C6F0F0E8B6F490EEB
:102B40008A6F800E896F000170EC0BF003C052F2A7
:102B500002C051F201C050F200C04FF203C05AF25D
:102B600002C059F201C058F200C057F202015E6B78
:102B70005D6B340E5C6F860E5B6F0001F2EC08F04B
:102B800003C04FF102C04EF101C04DF100C04CF145
:102B9000EBEF0BF003C057F102C056F101C055F145
:102BA00000C054F126EF0CF003C05BF102C05AF1F3
:102BB00001C059F100C058F10201866B52C185F283
:102BC0000001D7EC08F003C052F202C051F201C07C
:102BD00050F200C04FF2D89203C088F202C087F2D0
:102BE00001C086F200C085F257C18CF256C18BF24B
:102BF00055C18AF254C189F2D5EC09F003C052F2F2
:102C000002C051F201C050F200C04FF203C084F282
:102C100002C083F201C082F200C081F20201886B1F
:102C2000876B866B856B000161EC0CF032E302016F
:102C3000866B52C185F20001D7EC08F003C052F256
:102C400002C051F201C050F200C04FF2D89203C04E
:102C500088F202C087F201C086F200C085F257C137
:102C60008CF256C18BF255C18AF254C189F2D5EC6F
:102C700009F003C084F202C083F201C082F200C0F6
:102C800081F2A1EC09F07F0E01240101526F19D0ED
:102C9000000157C184F256C183F255C182F254C17A
:102CA00081F2A1EC09F00150010152250201506F9F
:102CB0005F6F7F0E606F0001BFEC09F000C052F142
:102CC00001010201866B53C185F20001D7EC08F0C7
:102CD00003C052F202C051F201C050F200C04FF2E4
:102CE000D88203C088F202C087F201C086F200C019
:102CF00085F25BC18CF25AC18BF259C18AF258C17C
:102D000089F2D5EC09F003C052F202C051F201C0C1
:102D100050F200C04FF203C084F202C083F201C03F
:102D200082F200C081F20201886B876B866B856B33
:102D3000000161EC0CF032E30201866B53C185F2B5
:102D40000001D7EC08F003C052F202C051F201C0FA
:102D500050F200C04FF2D88203C088F202C087F25E
:102D600001C086F200C085F25BC18CF25AC18BF2C1
:102D700059C18AF258C189F2D5EC09F003C084F236
:102D800002C083F201C082F200C081F2A1EC09F01E
:102D90003F0E01240101536F19D000015BC184F281
:102DA0005AC183F259C182F258C181F2A1EC09F0F3
:102DB00001500101535D0201506F5F6F3F0E606F64
:102DC0000001BFEC09F000C053F1010102013C6BAE
:102DD0003C511308D8A01CD1036A3C51B40FE96ED2
:102DE000010E0320EA6EEFCF4FF2036A3C51DC0F75
:102DF000E96E010E0320EA6EEF504F25006EE8AE3B
:102E000024D0036A3C51B40F016E010E032201C0AD
:102E10004FF203C050F2036A3C51B40FE96E010E49
:102E20000320EA6EEFCF51F2036A3C51DC0FE96EEA
:102E3000010E0320EA6EEF5051257F0F516F50C2F3
:102E4000EAFF01C0E9FFEF6E54D0036A3C51B40FB2
:102E5000E96E010E0320EA6EEFCF4FF2036A3C5198
:102E6000DC0FE96E010E0320EA6EEF504F257F085C
:102E700024E2036A3C51B40F016E010E032201C02B
:102E80004FF203C050F2036A3C51B40FE96E010ED9
:102E90000320EA6EEFCF51F2036A3C51DC0FE96E7A
:102EA000010E0320EA6EEF505125810F516F50C281
:102EB000EAFF01C0E9FFEF6E1CD0036A3C51B40F7A
:102EC000016E010E032203C050F203C0EAFF01C0ED
:102ED000E9FFEFCF51F2036A3C51DC0FE96E010EBE
:102EE0000320EA6EEF50512550C2EAFF01C0E9FF0E
:102EF000EF6E036A3C51C80FE96E010E0320EA6EC3
:102F0000EFCF4FF2036A3C51F00FE96E010E032040
:102F1000EA6EEF504F25006EE8AE24D0036A3C51B4
:102F2000C80F016E010E032201C04FF203C050F220
:102F3000036A3C51C80FE96E010E0320EA6EEFCF21
:102F400051F2036A3C51F00FE96E010E0320EA6E64
:102F5000EF5051253F0F516F50C2EAFF01C0E9FF0A
:102F6000EF6E54D0036A3C51C80FE96E010E032086
:102F7000EA6EEFCF4FF2036A3C51F00FE96E010E9B
:102F80000320EA6EEF504F253F0824E2036A3C51CC
:102F9000C80F016E010E032201C04FF203C050F2B0
:102FA000036A3C51C80FE96E010E0320EA6EEFCFB1
:102FB00051F2036A3C51F00FE96E010E0320EA6EF4
:102FC000EF505125C10F516F50C2EAFF01C0E9FF18
:102FD000EF6E1CD0036A3C51C80F016E010E032234
:102FE00003C050F203C0EAFF01C0E9FFEFCF51F286
:102FF000036A3C51F00FE96E010E0320EA6EEF50B8
:10300000512550C2EAFF01C0E9FFEF6E3C2BE0D62C
:103010003D6B3D511308D8A07AD0036A3D51220F71
:10302000E96E020E0320EA6EEF52D8B46CD0036A48
:103030003D51B40FE96E010E0320EA6EEF5001011D
:10304000525D62E061E3036A02013D51B40FE96E33
:10305000010E0320EA6EEFCF4FF2036A3D51220FBB
:10306000E96E020E0320EA6EEF50080DF3504F2573
:103070000101525D49E2036A02013D51C80FE96E48
:10308000010E0320EA6EEF500101535D3DE03CE389
:10309000036A02013D51C80FE96E010E0320EA6E7A
:1030A000EFCF4FF2036A3D51220FE96E020E03206B
:1030B000EA6EEF50080DF3504F250101535D24E2F5
:1030C000690E02010E6F0101438F02016E6B000158
:1030D0002CEC03F002014F6B000108EC06F002013A
:1030E0000951075D08E303E10651085D04E207C2E8
:1030F00009F206C208F20451055D02E204C205F2BB
:10310000076B066B046B010102013D2B82D70101A5
:1031100043A55BD167C184F266C183F265C182F2C7
:1031200064C181F20001A1EC09F0036A0150E8BE1C
:10313000030601016027035061236BC184F26AC159
:1031400083F269C182F268C181F20001A1EC09F049
:10315000036A0150E8BE030601016227035063239E
:1031600002013E6B3E511308D8A0DCD0036A3E51E9
:10317000220FE96E020E0320EA6EEF52D8B4CED0D1
:10318000036A3E51B40FE96E010E0320EA6EEF5060
:10319000010161BF4ED0615303E1605D4AE049E344
:1031A000036A02013E51B40FE96E010E0320EA6E7C
:1031B000EFCF4FF2036A3E51220FE96E020E032059
:1031C000EA6EEF50080DF3504F25010161BF04D0A6
:1031D00061532FE1605D2DE2036A02013E51C80F89
:1031E000E96E010E0320EA6EEF50010163BF21D0AA
:1031F000635303E1625D1DE01CE3036A02013E517B
:10320000C80FE96E010E0320EA6EEFCF4FF2036A9A
:103210003E51220FE96E020E0320EA6EEF50080DB8
:10322000F3504F25010163BF56D0635302E1625D45
:1032300052E3036A02013E51B40FE96E010E03200E
:10324000EA6EEF5001015EBF6AD05E5D68E067E341
:10325000036A02013E51B40FE96E010E0320EA6ECB
:10326000EFCF4FF2036A3E51220FE96E020E0320A8
:10327000EA6EEF50080DF3504F2501015EBF02D0FA
:103280005E5D4DE2036A02013E51C80FE96E010E18
:103290000320EA6EEF5001015FBF41D05F5D3FE068
:1032A0003EE3036A02013E51C80FE96E010E03209E
:1032B000EA6EEFCF4FF2036A3E51220FE96E020E23
:1032C0000320EA6EEF50080DF3504F2501015FBF58
:1032D00002D05F5D24E2036A02013E51220FE96ED3
:1032E000020E0320EA6EEF50FF0A050F0627000EBC
:1032F0000723036A3E51220FE96E020E0320EA6E95
:10330000EF063EC24FF2010E506F020E526F360EA4
:10331000516F00019EEC0CF00201208501010201B9
:103320003E2B20D75CC175F25DC176F25EC177F2AB
:103330005FC178F2796B000138EC05F05EC175F27F
:103340005FC176F260C177F262C178F2010E0201CC
:10335000796F000138EC05F0020120B524D001019D
:1033600061BF05D061530EE160517F080BE361BF7F
:1033700009D063BF05D0635305E162513F0802E302
:1033800063AF0FD043955EC175F25FC176F260C145
:1033900077F262C178F20201796B000138EC05F036
:1033A000010112D002012095010143955EC175F221
:1033B0005FC176F260C177F262C178F20201796B87
:1033C000000138EC05F0010169D0020110A765D0B9
:1033D000010143854FC15AF24EC159F24DC158F215
:1033E0004CC157F20001BFEC0CF003C052F202C016
:1033F00051F201C050F200C04FF203C088F202C087
:1034000087F201C086F200C085F202018C6B8B6BE3
:10341000400E8A6F810E896F000170EC0BF003C0C3
:1034200067F102C066F101C065F100C064F14FC1EF
:1034300052F24EC151F24DC150F24CC14FF27AEFEF
:103440000EF003C052F202C051F201C050F200C0AF
:103450004FF203C088F202C087F201C086F200C0BA
:1034600085F202018C6B8B6B400E8A6F810E896F27
:10347000000170EC0BF003C06BF102C06AF101C0F7
:1034800069F100C068F1010152C160F1616B53C183
:1034900062F1636B020E0201216F010102013F6BB9
:1034A0003F511308D8A0EFD0036A3F51220FE96EB5
:1034B000020E0320EA6EEF52D8B47CD03FC24FF226
:1034C000020E516F360E506F0001A2EC0EF001A0FB
:1034D0002ED0036A02013F518C0FE96E010E0320CA
:1034E000EA6EEFCF52F2036A3F51A00FE96E010E70
:1034F0000320EA6EEFCF53F2036A3F51220FE96EC9
:10350000020E0320EA6E010EEF24516F546F556BCB
:103510000001BDEC0EF03FC24FF20201506B020EF3
:10352000526F360E516F00019EEC0CF020D0036AF2
:1035300002013F518C0FE96E010E0320EA6EEFCFBE
:1035400052F2036A3F51A00FE96E010E0320EA6EAA
:10355000EFCF53F2036A3F51220FE96E020E0320B0
:10356000EA6EEFCF54F2556B0001BDEC0EF0036A2A
:1035700002013F51B40FE96E010E0320EA6EEFCF56
:1035800052F2036A3F51C80FE96E010E0320EA6E42
:10359000EFCF53F2036A3F51220FE96E020E032070
:1035A000EA6EEFCF54F2010E556F0001BDEC0EF044
:1035B00039D002013FC24FF2020E516F360E506FEA
:1035C0000001A2EC0EF001A02DD0036A02013F51D0
:1035D0008C0FE96E010E0320EA6EEFCF52F2036A00
:1035E0003F51A00FE96E010E0320EA6EEFCF53F2B8
:1035F000036A3F51220FE96E020E0320EA6E010EAC
:10360000EF24516F546F556B0001BDEC0EF03FC2BB
:103610004FF20201506B020E526F360E516F0001D5
:103620009EEC0CF0036A02013F518C0F016E010EFB
:10363000032203C050F2036A3F51B40FE96E010E3A
:103640000320EA6EEFCF51F250C2EAFF01C0E9FF5A
:1036500051C2EFFF036A3F51A00F016E010E03221A
:1036600003C050F2036A3F51C80FE96E010E0320F8
:10367000EA6EEFCF51F250C2EAFF01C0E9FF51C23A
:10368000EFFF3F2B0DD7010143A509D05EC15CF1CF
:103690005FC15DF160C15EF162C15FF108D052C1EE
:1036A0005CF153C15DF152C15EF153C15FF1010E96
:1036B000505D02014F6F010E010151250201506F53
:1036C000010E010150250201516F010E010151252A
:1036D0000201526F4FC275F250C276F251C277F2B8
:1036E000786F796B000138EC05F0010E0101505D37
:1036F00002014F6F010E0101515D0201506F010E79
:10370000010150250201516F010E0101515D0201BD
:10371000526F4FC275F250C276F251C277F2786F93
:10372000796B000138EC05F0010E0101505D0201DA
:103730004F6F010E010151250201506F010E010171
:10374000505D0201516F010E0101515D0201526F86
:103750004FC275F250C276F251C277F2786F796B30
:10376000000138EC05F0010E0101502502014F6FF8
:10377000010E010151250201506F010E010150257A
:103780000201516F010E0101515D0201526F4FC2E2
:1037900075F250C276F251C277F2786F796B000100
:1037A00038EC05F0010E0101525D02014F6F010E70
:1037B000010153250201506F010E01015225020142
:1037C000516F010E010153250201526F4FC275F274
:1037D00050C276F251C277F2786F010E796F000114
:1037E00038EC05F0010E0101525D02014F6F010E30
:1037F0000101535D0201506F010E010152250201CA
:10380000516F010E0101535D0201526F4FC275F2FB
:1038100050C276F251C277F2786F010E796F0001D3
:1038200038EC05F0010E0101525D02014F6F010EEF
:10383000010153250201506F010E0101525D020189
:10384000516F010E0101535D0201526F4FC275F2BB
:1038500050C276F251C277F2786F010E796F000193
:1038600038EC05F0010E0101522502014F6F010EE7
:10387000010153250201506F010E01015225020181
:10388000516F010E0101535D0201526F4FC275F27B
:1038900050C276F251C277F2786F010E796F000153
:1038A00038EC05F04FC14BF14EC14AF14DC149F121
:1038B0004CC148F152C150F153C151F10201406B6A
:1038C000405113080BE3036A4051220FE96E020EC8
:1038D0000320EA6EEF503927402BF2D7395304E02A
:1038E000010143AF03D002010101438F0BC250F22B
:1038F0000AC24FF20CC251F20201526B0001D2EC2B
:1039000010F007C250F206C24FF204C251F2010E8B
:103910000201526F0001D2EC10F007C20BF206C296
:103920000AF204C20CF20201866B39C285F2000170
:10393000D7EC08F003C052F202C051F201C050F2BD
:1039400000C04FF203C088F202C087F201C086F2C5
:1039500000C085F2CD0E02018C6FCC0E8B6F4C0E29
:103960008A6F7C0E896F000170EC0BF0D882020127
:10397000886B876B300E866F830E856F03C08CF269
:1039800002C08BF201C08AF200C089F20001D5ECBE
:1039900009F003C084F202C083F201C082F200C0C9
:1039A00081F2A1EC09F002C050F201C04FF202C056
:1039B00051F20201512B5107D8B406D06F690001B2
:1039C000F6EC02F00201F7D74FC26FF20001F6ECFD
:1039D00002F00201396B00010201EAEF21F000015F
:1039E000020120A70DD020970A0E0101256F140EA9
:1039F000266F780E396F280E3A6F4387438B02018A
:103A000012C24FF2000119EC11F003C02AF102C0FA
:103A100029F101C028F100C027F113C24FF219ECBF
:103A200011F003C02EF102C02DF101C02CF100C035
:103A30002BF10201866B25C185F20001D7EC08F05D
:103A400003C052F202C051F201C050F200C04FF266
:103A5000D89203C088F202C087F201C086F200C08B
:103A600085F22AC18CF229C18BF228C18AF227C1C2
:103A700089F2D5EC09F003C052F202C051F201C044
:103A800050F200C04FF203C084F202C083F201C0C2
:103A900082F200C081F20201886B876B866B856BB6
:103AA000000161EC0CF032E30201866B25C185F266
:103AB0000001D7EC08F003C052F202C051F201C07D
:103AC00050F200C04FF2D89203C088F202C087F2D1
:103AD00001C086F200C085F22AC18CF229C18BF2A6
:103AE00028C18AF227C189F2D5EC09F003C084F21B
:103AF00002C083F201C082F200C081F2A1EC09F0A1
:103B00007F0E01240101256F19D000012AC184F222
:103B100029C183F228C182F227C181F2A1EC09F008
:103B20000150010125250201506F5F6F7F0E606F0C
:103B30000001BFEC09F000C025F101010201866B14
:103B400026C185F20001D7EC08F003C052F202C092
:103B500051F201C050F200C04FF2D88203C088F287
:103B600002C087F201C086F200C085F22EC18CF23D
:103B70002DC18BF22CC18AF22BC189F2D5EC09F050
:103B800003C052F202C051F201C050F200C04FF225
:103B900003C084F202C083F201C082F200C081F24D
:103BA0000201886B876B866B856B000161EC0CF002
:103BB00032E30201866B26C185F20001D7EC08F0E2
:103BC00003C052F202C051F201C050F200C04FF2E5
:103BD000D88203C088F202C087F201C086F200C01A
:103BE00085F22EC18CF22DC18BF22CC18AF22BC131
:103BF00089F2D5EC09F003C084F202C083F201C05F
:103C000082F200C081F2A1EC09F03F0E0124010113
:103C1000266F19D000012EC184F22DC183F22CC170
:103C200082F22BC181F2A1EC09F001500101265D65
:103C30000201506F5F6F3F0E606F0001BFEC09F033
:103C400000C026F1010116C24FF2000119EC11F07B
:103C500003C03EF102C03DF101C03CF100C03BF1A8
:103C600017C24FF219EC11F003C042F102C041F14A
:103C700001C040F100C03FF10201866B39C185F2FD
:103C80000001D7EC08F003C052F202C051F201C0AB
:103C900050F200C04FF2D89203C088F202C087F2FF
:103CA00001C086F200C085F23EC18CF23DC18BF2AC
:103CB0003CC18AF23BC189F2D5EC09F003C052F253
:103CC00002C051F201C050F200C04FF203C084F2B2
:103CD00002C083F201C082F200C081F20201886B4F
:103CE000876B866B856B000161EC0CF032E302019F
:103CF000866B39C185F20001D7EC08F003C052F29F
:103D000002C051F201C050F200C04FF2D89203C07D
:103D100088F202C087F201C086F200C085F23EC17F
:103D20008CF23DC18BF23CC18AF23BC189F2D5ECE9
:103D300009F003C084F202C083F201C082F200C025
:103D400081F2A1EC09F07F0E01240101396F19D035
:103D500000013EC184F23DC183F23CC182F23BC10D
:103D600081F2A1EC09F00150010139250201506FE7
:103D70005F6F7F0E606F0001BFEC09F000C039F18A
:103D800001010201866B3AC185F20001D7EC08F00F
:103D900003C052F202C051F201C050F200C04FF213
:103DA000D88203C088F202C087F201C086F200C048
:103DB00085F242C18CF241C18BF240C18AF23FC10F
:103DC00089F2D5EC09F003C052F202C051F201C0F1
:103DD00050F200C04FF203C084F202C083F201C06F
:103DE00082F200C081F20201886B876B866B856B63
:103DF000000161EC0CF032E30201866B3AC185F2FE
:103E00000001D7EC08F003C052F202C051F201C029
:103E100050F200C04FF2D88203C088F202C087F28D
:103E200001C086F200C085F242C18CF241C18BF222
:103E300040C18AF23FC189F2D5EC09F003C084F297
:103E400002C083F201C082F200C081F2A1EC09F04D
:103E50003F0E012401013A6F19D0000142C184F2E2
:103E600041C183F240C182F23FC181F2A1EC09F06D
:103E7000015001013A5D0201506F5F6F3F0E606FAC
:103E80000001BFEC09F000C03AF1010143A102D0EA
:103E9000446B4DD04407445301E1438144510A0827
:103EA00046E14551FB0F43E2050F0001F1EF21F020
:103EB0006EC175F26FC176F2800E0201776F6FC12D
:103EC00078F2796B000138EC05F0010130D0000187
:103ED0006EC175F26FC176F26EC177F20201786B36
:103EE000796B000138EC05F0010121D000010201DD
:103EF000756B6FC176F26EC177F26FC178F2796B34
:103F0000000138EC05F0010112D000016EC175F21C
:103F10006FC176F26EC177F23F0E0201786F796B56
:103F2000000138EC05F0010102D00001010102019D
:103F300010A5BAD0010143B102D00201B5D014C21C
:103F40004FF215C250F2000156EC11F001C045F1DC
:103F500001014551FB0FD8B09FD0050F000103EFC1
:103F600022F025C175F226C176F2800E0201776F2C
:103F700026C178F2010E796F000138EC05F00101DD
:103F80003951255D13E2040E26253A5D0FE2040E39
:103F9000265D3A5D0BE00AE302012087690E0E6F91
:103FA000010E4F6F000175EC11F0010175D0000199
:103FB00025C175F226C176F225C177F20201786B30
:103FC000010E796F000138EC05F001013A51265DD0
:103FD00013E2040E2525395D0FE2040E255D395DDF
:103FE0000BE00AE302012087690E0E6F010E4F6F8E
:103FF000000175EC11F001014FD000010201756B59
:1040000026C176F225C177F226C178F2010E796FCA
:10401000000138EC05F001012551395D13E2040E71
:1040200026253A5D0FE2040E265D3A5D0BE00AE3B9
:1040300002012087690E0E6F010E4F6F000175ECB3
:1040400011F0010129D0000125C175F226C176F2D7
:1040500025C177F23F0E0201786F010E796F0001E2
:1040600038EC05F0010126513A5D13E2040E2525D6
:10407000395D0FE2040E255D395D0BE00AE30201B4
:104080002087690E0E6F010E4F6F000175EC11F065
:10409000010102D0000101010F0E446F439125C1BF
:1040A0006EF126C16FF10201010143A302D0466BFC
:1040B0004DD04607465301E1438346510A0846E185
:1040C0004751FB0F43E2050F000115EF22F07EC1BF
:1040D00075F27FC176F2800E0201776F7FC178F2B0
:1040E000796B000138EC05F0010130D000017EC190
:1040F00075F27FC176F27EC177F20201786B796B3F
:10410000000138EC05F0010121D000010201756BBE
:104110007FC176F27EC177F27FC178F2796B0001C0
:1041200038EC05F0010112D000017EC175F27FC1AB
:1041300076F27EC177F23F0E0201786F796B000153
:1041400038EC05F0010102D000010101020110A9C3
:10415000B6D0010143B302D00201B1D018C24FF270
:1041600019C250F2000156EC11F001C047F10101F3
:104170004751FB0FD8B09BD0050F000127EF22F06D
:1041800039C175F23AC176F2800E0201776F3AC1F9
:1041900078F2010E796F000138EC05F0010125512C
:1041A000395D12E2040E3A25265D0EE2040E3A5DF8
:1041B000265D0AE009E302012087690E0E6F4F6B4E
:1041C000000175EC11F0010172D0000139C175F2E6
:1041D0003AC176F239C177F20201786B010E796F3C
:1041E000000138EC05F0010126513A5D12E2040E9F
:1041F0003925255D0EE2040E395D255D0AE009E3EF
:1042000002012087690E0E6F4F6B000175EC11F0F3
:1042100001014DD000010201756B3AC176F239C13E
:1042200077F23AC178F2010E796F000138EC05F0AF
:1042300001013951255D12E2040E3A25265D0EE298
:10424000040E3A5D265D0AE009E302012087690E4B
:104250000E6F4F6B000175EC11F0010128D00001C9
:1042600039C175F23AC176F239C177F23F0E0201D7
:10427000786F010E796F000138EC05F001013A51B9
:10428000265D12E2040E3925255D0EE2040E395D2D
:10429000255D0AE009E302012087690E0E6F4F6B6E
:1042A000000175EC11F0010102D0000101010F0EB7
:1042B000466F439339C17EF13AC17FF1020123C1B8
:1042C0004FF224C150F2516B0001F3EC11F025C103
:1042D0004FF226C150F2010E0201516F0001F3ECC2
:1042E00011F025C123F126C124F137C14FF238C1A5
:1042F00050F20201516B0001F3EC11F039C14FF2A1
:104300003AC150F2010E0201516F0001F3EC11F0BD
:1043100039C137F13AC138F1230E02016F6F000144
:10432000F6EC02F0020120A152D0209120B328D057
:104330006E6B00012CEC03F0010E02014F6F0001C7
:1043400008EC06F0470E0201416F410E426F4E0E1F
:10435000436F410E446F200E456F310E466F476B21
:10436000160E756F320E766F020E786F410E776FF4
:10437000010E796F7A6F00015AEC04F027D0020128
:104380006E6B00012CEC03F0010E02014F6F000177
:1043900008EC06F0470E0201486F410E496F4E0EC1
:1043A0004A6F410E4B6F200E4C6F320E4D6F4E6BAD
:1043B000160E756F320E766F020E786F480E776F9D
:1043C000010E796F7A6F00015AEC04F0020102D0FD
:1043D00000010201700E9EA8FED7AD6EEDEF13F046
:1043E0000300E824F76AF736FD0FF66E430EF72256
:1043F0000A00F550FA6E0800F550F96EB03EB03E76
:10440000D03EEE3E0C3FE824F76AF736210FF66EF9
:10441000440EF7220A00F550FA6E0800F550F96EC6
:10442000623F623FB03FFC3F4840E824F76AF736FE
:10443000450FF66E440EF7220A00F550FA6E08009A
:10444000F550F96ECE40CE40EE400C412A41E824B2
:10445000F76AF736690FF66E440EF7220A00F55038
:10446000FA6E0800F550F96E80418041CC41164249
:024470006042A8
:020000040030CA
:0E00000004CC3E1E0007A1000FC00FE00F4011
:00000001FF
;PIC18F4550
;CRC=0841  CREATED="22-nov.-24 12:12"
