:04000000E6EF12F025
:08000800046ED8CF05F0E0CF33
:1000100006F00001E9CF0CF0EACF07F0E1CF08F0DD
:10002000E2CF09F0D9CF0AF0DACF0BF0F3CF12F01C
:10003000F4CF13F0FACF14F0F5CF15F0F6CF16F099
:10004000F7CF17F000C00EF001C00FF002C010F0A3
:1000500003C011F09DAA30EF00F09EBA88EF02F0C5
:100060000EC000F00FC001F010C002F011C003F08C
:100070000CC0E9FF07C0EAFF078E08C0E1FF09C016
:10008000E2FF0AC0D9FF0BC0DAFF12C0F3FF13C0B2
:10009000F4FF14C0FAFF15C0F5FF16C0F6FF17C035
:1000A000F7FF045006C0E0FF05C0D8FF1000F76A54
:1000B000BE0FF66E000EF7220900F5501200000088
:1000C00000000000005F00000003000300143E1465
:1000D0003E14242A7F2A124333086661364955228A
:1000E000500005030000001C2241000041221C00BA
:1000F00014083E081408083E0808005030000008A4
:1001000008080808006060000020100804023E5142
:1001100049453E04027F000042615149462241495F
:1001200049361814127F1027454545393E4949493B
:100130003201017109073649494936264949493E84
:100140000036360000005636000008142241001424
:1001500014141414004122140802015109063E41EE
:1001600059555E7E0909097E7F494949363E41411C
:1001700041227F4141413E7F494949417F09090967
:10018000013E4141493A7F0808087F00417F410014
:10019000304040403F7F081422417F404040407F34
:1001A000020C027F7F0204087F3E4141413E7F09ED
:1001B0000909061E2121215E7F0909097600F76AD7
:1001C000CE0FF66E010EF7220900F55012002649F7
:1001D00049493201017F01013F4040403F1F20401B
:1001E000201F7F2010207F41221C22410708700819
:1001F000076151494543007F410000020408102077
:100200000000417F000402010204404040404000E1
:100210000102040020545454787F44444438384444
:10022000444444384444447F385454541804047EAD
:100230000505085454543C7F0804047800447D406C
:10024000002040443D007F1028440000417F4000D2
:100250007C047804787C0804047838444444387C6E
:1002600014141408081414147C007C080404485462
:1002700054542004043F44443C4040207C1C204013
:10028000201C3C4030403C44281028440C50505026
:100290003C4464544C44000836414100007F000057
:1002A00041413608000201020402B80FF66E020E48
:1002B000F7220900F55012000000000000000100C4
:1002C000000000000000000000000000000000002E
:1002D000010000000000000000010000000000001C
:1002E000000000000000000002000000000000000C
:1002F00000000000000000020000000000000000FC
:1003000000000000020000000000000000000000EB
:1003100000000000000000000000000303000000D7
:1003200000030000000000000000000000000000CA
:1003300000020301000000000000000000000000B7
:1003400000000000000000020000010001000000A9
:100350000000000100010000000000000000000398
:100360000000030003000000000000000000000087
:10037000000000000000000000000000000000007D
:10038000000000000000000000000000000000006D
:10039000000000000000000000000000000000005D
:1003A000000000000000000000000000000000004D
:1003B000000000000000000000000000000000003D
:1003C000000000000000000000000000000000002D
:1003D000000000000000000000000000000000001D
:1003E000000000000000000000000000000000000D
:1003F00000000000000000000000000000000000FD
:1004000000000000000000000000000000000000EC
:1004100000000000000000000000000000000000DC
:1004200000000000000000000000000000000000CC
:1004300000000000000000000000000000000000BC
:1004400000000000000000000000000000000000AC
:10045000000000000000000000000000000000009C
:10046000000000000000000000000000000000008C
:10047000000000000000000000000000000000007C
:10048000000000000000000000000000000000006C
:10049000000000000000000000000000000000005C
:1004A000000000000000000000000000000000004C
:1004B000000000000000000000000000000000003C
:1004C000000000000000000000000000000000002C
:1004D000000000000000000000000000000000001C
:1004E000000000000000000000000000000000000C
:1004F00000000000000000000000000000000000FC
:1005000000000000000000000000000000000000EB
:100510009EAAFED7AECF09F202010C51F70F47E2B7
:10052000090F0001E0EF02F009C20EF202013FD014
:1005300009C20DF202013BD009C20FF2020137D00D
:1005400009C210F2020133D009C213F202012FD006
:1005500009C212F202012BD009C214F2020127D003
:1005600009C215F2020123D0020109A102D0010E35
:1005700001D0000E1191E8B0118109A302D0010E43
:1005800001D0000E1193E8B0118309A502D0010E2D
:1005900001D0000E1195E8B0118509A702D0010E17
:1005A00001D0000E1197E8B0118701D002010C2B89
:1005B0000C51090801E10C6B9E9A000130EF00F02C
:1005C000E824F76AF736DB0FF66E050EF7220A000D
:1005D000F550FA6E0800F550F96E2805300538051B
:1005E000400548055005580560056805020EEA6E8D
:1005F000600EE96EEF500DE0060E016E006A002EEF
:10060000FED7012EFBD77B0E006E002EFED7EF2EFD
:10061000F3D71200000E956E93988A9802019C53AE
:1006200003E093928A8202D093908A8000D000D017
:100630000000956A9DC28CFF00D000D00000939A04
:100640008A8A00D000D00000939A8A9A93908A9068
:1006500093928A92000112000201746B7451070890
:100660003CE393948A949C6B400E9D6F0001D2DF13
:10067000010E02019C6F400E9D6F0001CBDF020155
:100680007451B809766F9C6B9D6F0001C3DF020146
:100690007451B809766F010E9C6F76C29DF200010D
:1006A000B9DF93948A840201756B75513F0813E397
:1006B0007351FF0DF3CF9DF29C6B0001ABDF020184
:1006C0007351FF0DF3CF9DF2010E9C6F0001A2DF6D
:1006D0000201752BEAD7742BC1D700011200949048
:1006E0008B80939A8A9A93908A9093928A92939409
:1006F0008A9402019C6BC00E9D6F00018BDF010E7E
:1007000002019C6FC00E9D6F000184DF02019C6B93
:10071000400E9D6F00017EDF010E02019C6F400EB6
:100720009D6F000177DF02019C6BB80E9D6F000189
:1007300071DF010E02019C6FB80E9D6F00016ADF30
:1007400002015D2D0ED09C6B3F0E9D6F000162DF9C
:10075000010E02019C6F3F0E9D6F00015BDF0DD00B
:1007600002019C6B3E0E9D6F000154DF010E0201E1
:100770009C6F3E0E9D6F00014DDF0201736B000107
:100780006BDFFAEF13F0FF0E956E93988A880201E3
:100790009B5303E093928A8202D093908A8000D088
:1007A00000D00000939A8A8A00D000D0000095689B
:1007B00083CF9CF2939A8A9A93908A9093928A928A
:1007C0009CC201F0000112000201999195513F086D
:1007D00003E2400E955F998193948A94959F958D3D
:1007E000000E99B1010E9A6F9C6F95C29DF20001A7
:1007F00011DF000E020199B1010E9A6F9631006E61
:10080000003200321F0E00160050BF0BB8099B6F5C
:100810009AC29CF29D6F0001FDDE93948A84000EC3
:10082000020199B1010E9A6F9B6F0001ACDF000EBF
:10083000020199B1010E9A6F9B6F0001A4DF01C004
:1008400098F20201972D0FD09651070B9A6F010E67
:10085000006E9A51016E04E0D8900036012EFCD74C
:10086000005098130FD09651070B9A6F010E006E2F
:100870009A51016E04E0D8900036012EFCD700504A
:10088000FF0A981793948A94000E99B1010E9A6FFB
:100890009C6F95C29DF20001BDDE93948A84000E88
:1008A000020199B1010E9A6F9C6F98C29DF20001EE
:1008B000B1DE12000201896B89518525E96E000EB7
:1008C0008621EA6EEF52D8B4AAD089518525E96E07
:1008D000000E8621EA6EEF50520822E389518525E9
:1008E000E96E000E8621EA6E200EEF5C050DF350D6
:1008F000036A936F020EEA6E8E0EE96E976B93C2D7
:1009000096F2050E016EF76A9351000157EC00F064
:100910000A000900F5CFEEFF012EFBD731D002010E
:1009200089518525E96E000E8621EA6EEF507E081A
:1009300021E389518525E96E000E8621EA6E530E6A
:10094000EF5C050DF350036A936F020EEA6E8E0E94
:10095000E96E976B93C296F2050E016EF76A93519A
:1009600000012DDC0A000900F5CFEEFF012EFBD7B8
:1009700007D002018E6B8F6B906B916B926B0001B5
:1009800002018751050DF35083257F0806E2836B32
:100990008751070DF350010F84278A6B8A51040891
:1009A0003BE38B6B8751070DF3508B5D31E2036A9C
:1009B0008A518E0FE96E020E0320EA6EEFCF00F02F
:1009C0008B51016E04E0D8900032012EFCD700A0BC
:1009D0001DD08C6B87518C5D19E28D6B87518D5DBD
:1009E00013E28D518325936F8B518703F350842538
:1009F0008C25946F93C295F2966F88C297F200018E
:100A0000E3DE02018D2BEAD78C2BE4D78B2BCAD7E0
:100A10008A2B87518327C2D7892B832B4DD700017F
:100A20001200006A016A02019251D89093B1002627
:100A30000032013293B300260032013293B5002612
:100A40000032013293B700260032013293B90026FA
:100A50000032013293BB00260032013293BD0026E2
:100A60000032013293BF0026003201320001120031
:100A700002018351855D916F915191AF03D0000EBA
:100A8000D88091558C6F8451865D916F915191AF53
:100A900003D0000ED88091558D6F83C288F284C236
:100AA00089F28351855D02E28A6902D0010E8A6F64
:100AB0008451865D02E28B6902D0010E8B6F8D51ED
:100AC000800A006E8C51800A005C01E050E2020E48
:100AD000926F8DC293F20001A4DF02018C51015C80
:100AE000036AE8BE03068E6F03C08FF2906B8CBF63
:100AF0003DD090518C5D3AE388C295F289C296F25E
:100B000087C297F2000160DE02018FAF11D0020EA2
:100B1000926F8DC293F2000184DF0150036AE8BE38
:100B2000030602018E2703508F238A5188271CD089
:100B3000020E926F8DC293F2000173DF01C091F239
:100B4000020E0201926F8CC293F200016ADF015023
:100B50000201915D036AE8BE03068E2703508F23CE
:100B60008A5188278B518927902BC1D74FD0020EED
:100B7000926F8CC293F2000154DF02018D51015C2F
:100B8000036AE8BE03068E6F03C08FF2906B8DBFC1
:100B90003DD090518D5D3AE388C295F289C296F2BC
:100BA00087C297F2000110DE02018FAF11D0020E52
:100BB000926F8CC293F2000134DF0150036AE8BEE9
:100BC000030602018E2703508F238B5189271CD0E7
:100BD000020E926F8CC293F2000123DF01C091F2EA
:100BE000020E0201926F8DC293F200011ADF0150D2
:100BF0000201915D036AE8BE03068E2703508F232E
:100C00008A5188278B518927902BC1D70001120068
:100C100002015D51010A000104E0030AD8B496D034
:100C20002AD1410E02015E6F530E5F6F540E606F4A
:100C3000450E616F520E626F4F0E636F490E646F07
:100C4000440E656F530E666F676B260E836F040E3E
:100C5000846F020E866F5E0E856F010E876F886F40
:100C6000000128DE0201686B68510F086DE3696BB3
:100C700069510F0867E36951100DF350846B836F5E
:100C8000036A68518325016E8451032201501B0FB2
:100C9000E96E000E0320EA6EEF2C2AD0140E6825B0
:100CA000836F1A0E6925846F83C295F2966F976BD6
:100CB00000018ADD520E02016825836F1A0E692534
:100CC000846F83C295F2966F010E976F00017CDDF1
:100CD000600E02016825836F1A0E6925846F83C236
:100CE00095F2966F010E976F00016EDD28D002011C
:100CF000140E6825836F1A0E6925846F83C295F2DE
:100D0000966F010E976F00015FDD520E020168259C
:100D1000836F1A0E6925846F83C295F2966F976B65
:100D2000000152DD600E02016825836F1A0E6925ED
:100D3000846F83C295F2966F976B000145DD0201C7
:100D4000692B96D7682B90D73DD10001410E020147
:100D50006A6F530E6B6F540E6C6F450E6D6F520EB3
:100D60006E6F4F0E6F6F490E706F440E716F530EA2
:100D7000726F736B260E836F040E846F020E866F84
:100D80006A0E856F010E876F886F000193DD020187
:100D9000746B74510F086DE3756B75510F0867E341
:100DA0007551100DF350846B836F036A7451832562
:100DB000016E8451032201501B0FE96E000E0320C7
:100DC000EA6EEF2C29D0140E7425836F1A0E752548
:100DD000846F83C295F2966F010E976F0001F4DC69
:100DE000520E02017425836F1A0E7525846F83C21B
:100DF00095F2966F976B0001E7DC600E0201742597
:100E0000836F1A0E7525846F83C295F2966F976B68
:100E10000001DADC29D00201140E7425836F1A0E4A
:100E20007525846F83C295F2966F976B0001CCDCB9
:100E3000520E02017425836F1A0E7525846F83C2CA
:100E400095F2966F010E976F0001BEDC600E0201F5
:100E50007425836F1A0E7525846F83C295F2966F81
:100E6000010E976F0001B0DC0201752B96D7742B31
:100E700090D7A8D00001020E0201766F76510C08BF
:100E80000FE3200E836F76C284F2610E856F76C207
:100E900086F2010E876F0001EBDD0201762BEED7A3
:100EA000410E776F530E786F540E796F450E7A6F3F
:100EB000520E7B6F4F0E7C6F490E7D6F440E7E6F1E
:100EC000530E7F6F806B260E836F040E846F020EAD
:100ED000866F770E856F010E876F886B0001EADCE5
:100EE0000201816B81510F086DE3826B82510F0803
:100EF00067E38251100DF350846B836F036A815155
:100F00008325016E8451032201501B0FE96E000EF0
:100F10000320EA6EEF2C2BD0140E8125836F1A0E5E
:100F20008225846F83C295F2966F010E976F000140
:100F30004BDC520E02018125836F1A0E8225846FCD
:100F400083C295F2966F010E976F00013DDC600E33
:100F500002018125836F1A0E8225846F83C295F268
:100F6000966F010E976F00012FDC27D00201140E3F
:100F70008125836F1A0E8225846F83C295F2966F46
:100F8000976B000121DC520E02018125836F1A0E3E
:100F90008225846F83C295F2966F976B000114DCF3
:100FA000600E02018125836F1A0E8225846F83C231
:100FB00095F2966F976B000107DC0201822B96D7A2
:100FC000812B90D700011200520E02015E6F450E78
:100FD0005F6F540E606F550E616F520E626F4E0E52
:100FE000636F646B500E656F4C0E666F410E676FDA
:100FF000590E686F696B5D5344E01D0E6A6F6A514C
:1010000029080FE3140E836F6AC284F25A0E856FAB
:101010006AC286F2010E876F00012ADD02016A2B87
:10102000EED7180E836F1E0E846F020E866F650E4C
:10103000856F010E876F886B00013CDC2B0E02016F
:101040006B6F6B5137080EE3140E836F6BC284F223
:101050005A0E856F6BC286F2876B000109DD0201B3
:101060006B2BEFD7180E836F2C0E846F020E866FDA
:101070005E0E856F010E876F886F00011BDC45D007
:1010800002011D0E6C6F6C5129080EE3140E836F64
:101090006CC284F25A0E856F6CC286F2876B0001B7
:1010A000E7DC02016C2BEFD7180E836F1E0E846FE6
:1010B000020E866F650E856F010E876F886F0001C7
:1010C0005AEC04F02B0E02016D6F6D5137080FE3DF
:1010D000140E836F6DC284F25A0E856F6DC286F254
:1010E000010E876F0001C4DC02016D2BEED7180ED4
:1010F000836F2C0E846F020E866F5E0E856F010E5D
:10110000876F886B00015AEC04F0120002015F51F6
:101110006103F3CF01F0F4CF00F06203F350002637
:1011200060516103F3500020026E0001ECEF14F0F7
:101130000201736B00012CEC03F0500E02015D6F95
:10114000720E5E6F650E5F6F730E606F690E616F7A
:101150006F0E626F6E0E636F610E646F200E656FAF
:10116000700E666F610E676F720E686F610E696F49
:10117000200E6A6F720E6B6F650E6C6F730E6D6F63
:10118000740E6E6F610E6F6F720E706F740E716FF2
:10119000726B836B846B020E866F5D0E856F010E22
:1011A000876F886F00015AEC04F006EF15F08E0E81
:1011B000006E94C201F093C202F0036A015209E189
:1011C00002C001F0026A080E005E015202E1006AEC
:1011D00008D0D89001BE04D0023601360006F9D7F7
:1011E000019E120002016551D8B4A5D0716F6951FA
:1011F000D8B4A1D0715F05E37F0E7127D8B09BD022
:1012000006D0810E715FD8A096D0D8B494D071C2A8
:1012100000F0016A026A036A706B66C26FF26F8F38
:1012200067C26EF268C26DF2190E716F6C516D5F1C
:101230000DE2010E6E5F0AE26F5F08E2705F06E288
:10124000702B6F2B6E2B6C516D2728D06B516E5FFE
:1012500012E2010E6F5F0FE2705F0DE2702B6F2BD9
:101260006B516E276C516D2719E36E2B17E16F2BB5
:1012700015E1702B13D06A5180096F5F0EE2010EE9
:10128000705F0BE2702B6A5180096F276B516E27DC
:10129000E9E36F2BE7E1702BE5D70380712F01D0D5
:1012A0000BD0D8906D376E376F377037D8900336C4
:1012B000023601367237BAD772A106D0D890013201
:1012C00002320332723302D0000635E072BF1ED004
:1012D000D8906D376E376F3770376C516D5F07E29E
:1012E000010E6E5F04E26F5F02E2705F1AE36B5102
:1012F0006E5F05E2010E6F5F02E2705F12E36A51FA
:1013000080096F5F03E2010E705F0BE3032A09E1BE
:10131000022A07E1012A05E1002A0DE0013202322A
:10132000033266C271F26A51711B71AF02D0018E35
:1013300006D0019E04D0006A016A026A036A0001B5
:1013400012008E0E006E02018F51005E90C202F0FC
:1013500091C201F0028E005209E0D890025202E1DF
:10136000015204E002320132002EF7D790AF05D0CF
:10137000011E021E012AD8B4022A00011200020135
:101380006E51016A6D5D03E26DC200F00CD0006A1F
:10139000080E6F6F6D3700366E51005CD8B0006E6E
:1013A00001366F2FF7D700011200800ED8A202D0AD
:1013B0000201981B02019D6B9E6B94C29CF2985196
:1013C0009C1B9351D8B4DFD09B6F006E9751D8B45B
:1013D000E3D09B5FD8B483D03EE398C2A1F2A18F43
:1013E00099C2A0F29AC29FF29E6BD890A133A0330B
:1013F0009F339E339B2FF8D79CAF03D09D81E0D0C5
:101400009D919B919D89020EEA6E960EE96EEBD03E
:101410009D999CBF0AD09BA113D0A133A0339F33C9
:101420009E33002AD8B4C7D00BD0A1BF0CD0D8901F
:101430009E379F37A037A1370006D8B4BCD0F5D768
:101440009D8D6DD09D9D94C29CF294AF02D0A18FD2
:10145000ABD0A19FA9D097C29BF297C200F0935145
:101460009B5F94C2A1F2A18F95C2A0F296C29FF297
:101470009E6BD890A133A0339F339E339B2FF8D718
:101480009CAF03D09D839CD09D939B919D8B020E1E
:10149000EA6E9A0EE96EA7D09D9B9CBF0AD09BA1D5
:1014A00013D0A133A0339F339E33002AD8B483D006
:1014B0000BD0A1BF0CD0D8909E379F37A037A13753
:1014C0000006D8B478D0F5D79D8F29D09D9F98C2BB
:1014D0009CF298AF02D0A18F67D0A19F65D098C22F
:1014E000A1F2A18F99C2A0F29AC29FF29CAF04D040
:1014F000A19F9D8565D09D959E6B9B91020EEA6E86
:10150000960EE96E70D09CBF1CD094C29CF29BA139
:1015100006D0A133A0339F339E33002A4CE09EAF08
:101520000BD09F2B09E1A02B07E1A12B05E1A133F3
:10153000A0339F33002A3FE09DBD84D79DBFC6D70F
:101540001CD0800EA11BA1AF04D03AD098C29CF24F
:101550000AD094C29CF2A15306E1A05304E19F5328
:1015600002E1006A21D0A1BF08D0D8909E379F37F2
:10157000A037A137002EF7D71ED09CAF02D0A18F85
:1015800013D0A19F11D097C200F098C2A1F299C2C6
:10159000A0F29AC29FF208D093C200F094C2A1F2C6
:1015A00095C2A0F296C29FF2A1C201F0A0C202F0C1
:1015B0009FC203F034D0006A016A026A036A2FD026
:1015C0009E6B9F1FA01FA11F9E1F9E2B05E19F2B9F
:1015D00003E1A02B01E1A12B9DB112D79DB354D7FC
:1015E0009DB589D7B3D7EF509F2705E3A02B03E123
:1015F000A12BD8B49B81ED52EF50A02703E3A12B80
:10160000D8B49B81ED52EF50EFBE01D0800AA127E4
:10161000D8B09B819DB9FCD69DBB3ED774D7000145
:10162000120002010F514F081EE310514F0808E34A
:10163000860E006E610E016E026A036A4ED012D0F1
:101640001051AA0808E2860E006E070E016E026AAB
:10165000036A43D007D0860E006E340E016E026A14
:10166000036A3BD03AD00F51AA081DE210514F082F
:1016700009E3870E006E1D0E016E800E026E036A76
:101680002CD010D01051AA0808E2840E006E340E3F
:10169000016E026A036A21D005D0006A016A026AFB
:1016A000036A1BD01AD010514F0808E3870E006E52
:1016B000070E016E026A036A10D00FD01051AA08FB
:1016C00008E2860E006E340E016E026A036A05D0CF
:1016D00004D0006A016A026A036A0001AFEF15F0E4
:1016E00002019351D8B471D0006E9751D8B46DD027
:1016F000002604E3810E002668E204D07F0E005E1F
:1017000064E363E094C29BF298519B1B948F988F83
:1017100096519A03F4CF9DF295519903F4CF03F0BB
:10172000F3CF9CF29A03F3509D27F4509C23000EB4
:10173000032296519903F3509D27F4509C23000EE9
:10174000026A0322022294519A03F3509C27F45018
:101750000322000E022294519903F3500326F45001
:101760000222000E016A012296519803F3509C2731
:10177000F4500322000E0222012295519803F350E7
:101780000326F4500222000E012294519803F350D4
:101790000226F4500122002A01BE05D09C370336F0
:1017A000023601360006000E9CAF0AD0032A022240
:1017B0000122015005E1025003E1035001E1002A3A
:1017C0009BBF018E9BAF019E04D0006A016A026A32
:1017D000036A000112000201946B0DC293F2000132
:1017E000E6DC03C060F202C05FF201C05EF200C03E
:1017F0005DF2D88203C096F202C095F201C094F265
:1018000000C093F202019A6B996B7E0E986F850E61
:10181000976F0001CADD03C060F202C05FF201C031
:101820005EF200C05DF203C068F202C067F201C060
:1018300066F200C065F202016C6B6B6B700E6A6F32
:10184000830E696F0001CEDCEFEF15F00201946B9F
:101850000EC293F20001ABDC03C060F202C05FF283
:1018600001C05EF200C05DF2D88203C096F202C0F1
:1018700095F201C094F200C093F202019A6B996B49
:101880007E0E986F850E976F00018FDD03C060F2AA
:1018900002C05FF201C05EF200C05DF203C068F2F8
:1018A00002C067F201C066F200C065F202016C6B13
:1018B0006B6B700E6A6F830E696F000193DCF9EF3A
:1018C00015F090C297F202019451971B97AF05D083
:1018D000D894D89090BFD8802FD090C297F293C25E
:1018E00098F28F51985F06E097AF26D0D850010A42
:1018F000D86E22D094C298F29051985F06E097AFCC
:101900001BD0D850010AD86E17D095C298F29151C9
:10191000985F06E097AF10D0D850010AD86E0CD06F
:1019200096C298F29251985F06E097AF05D0D850D2
:10193000010AD86E01D0D8900001120002015D5159
:10194000070B006E5D31016E013201321F0E011670
:1019500001505F25E96E000E6021EA6E016A012ADE
:10196000002A01D00136002EFDD75E5303E001505E
:10197000EF1203D0011E0150EF1600011200020108
:10198000746B736B726B7F0E716F7E0E7B6F800E4C
:101990007C6F7D6B7E6B7A0E7F6F2A0E806FAA0E36
:1019A000816FA30E826F750E836FB60E846F090E62
:1019B000856FB40E866F6F0E876F4F0E886FB60EF1
:1019C000896FAA0E8A6F690E8B6F8B0E8C6FF60E65
:1019D0008D6FE80E8E6F68C292F267C291F266C296
:1019E00090F265C28FF2966B956B946B936B0001CE
:1019F00068DF05E302016651800A666F000168C274
:101A000096F267C295F266C294F265C293F2830EB3
:101A100002019A6FF90E996F220E986F7E0E976FE2
:101A200000015EDE03C092F202C091F201C090F2AA
:101A300000C08FF286DC01C075F268C296F267C200
:101A400095F266C294F265C293F2830E02019A6F18
:101A5000F90E996F220E986F7E0E976F000140DE8F
:101A600003C092F202C091F201C090F200C08FF266
:101A70000201946B75C293F20001D7EC08F0D88292
:101A800092C296F291C295F290C294F28FC293F2F2
:101A900003C09AF202C099F201C098F200C097F216
:101AA00084DC03C07AF202C079F201C078F200C08F
:101AB00077F2030E02017517755303E075510208A2
:101AC0001CE17AC296F279C295F278C294F277C29A
:101AD00093F2DB0E9A6F0F0E996F490E986F7F0E7F
:101AE000976F0001FDDD03C070F202C06FF201C00C
:101AF0006EF200C06DF26BD00201752D35D0D88228
:101B0000966B956B946B7F0E936F7AC29AF279C243
:101B100099F278C298F277C297F2000146DC03C0CE
:101B200092F202C091F201C090F200C08FF203C0A5
:101B300096F202C095F201C094F200C093F2DB0E5F
:101B400002019A6F0F0E996F490E986F7F0E976F73
:101B50000001C6DD03C070F202C06FF201C06EF278
:101B600000C06DF234D00201D8827AC296F279C2F6
:101B700095F278C294F277C293F29A6B996B986B54
:101B80007F0E976F000111DC03C092F202C091F248
:101B900001C090F200C08FF203C096F202C095F22D
:101BA00001C094F200C093F2DB0E02019A6F0F0E97
:101BB000996F490E986F7F0E976F000191DD03C0FA
:101BC00070F202C06FF201C06EF200C06DF202014D
:101BD0006C6B6B6B6A6B7F0E696F70C296F26FC233
:101BE00095F26EC294F26DC293F270C29AF26FC215
:101BF00099F26EC298F26DC297F2000171DD03C0D6
:101C000070F202C06FF201C06EF200C06DF202010C
:101C1000766B765104085CE374C296F273C295F257
:101C200072C294F271C293F270C29AF26FC299F2C8
:101C30006EC298F26DC297F2000152DD03C074F2D9
:101C400002C073F201C072F200C071F2020176515B
:101C5000040DF350036A7B0FE96E020E0320EA6E57
:101C6000EFCF93F2ECCF94F2ECCF95F2ECCF96F26B
:101C700074C29AF273C299F272C298F271C297F268
:101C800000012EDDEACF90F2E9CF8FF2D8926CC23C
:101C900096F26BC295F26AC294F269C293F203C0E3
:101CA0009AF202C099F201C098F200C097F2D5EC06
:101CB00009F090C2EAFF8FC2E9FF03C06CF202C0D4
:101CC0006BF201C06AF200C069F20201762BA1D763
:101CD0007551020802E0752D03D06A51800A6A6FBF
:101CE00069C200F06AC201F06BC202F06CC203F07C
:101CF00000011200D88260C296F25FC295F25EC205
:101D000094F25DC293F2DB0E02019A6F0F0E996F8F
:101D1000490E986F7F0E976F0001D5EC09F003C054
:101D200064F202C063F201C062F200C061F203C05B
:101D300068F202C067F201C066F200C065F21FDE01
:101D400046EF1AF002015D51070B006E5D31016E26
:101D5000013201321F0E011601505E25E96E000EA0
:101D60005F21EA6EEFCF01F0002A01D00132002E90
:101D7000FDD7010E01160001120002016251080D8B
:101D8000F3506025646F6251080DF3506125656F53
:101D900064517F08D8B0CCD060C283F261C284F2B3
:101DA0007F0E856F61C286F263C287F2000138EC54
:101DB00005F07F0E0201645D666F836B61C284F281
:101DC000856F61C286F263C287F2000138EC05F0CC
:101DD000020165513F086FE23F0E655D666F3F0E81
:101DE000655D676F60C283F266C284F27F0E856FA5
:101DF00067C286F263C287F2000138EC05F03F0E3D
:101E00000201655D666F7F0E645D676F3F0E655D05
:101E1000686F836B66C284F267C285F2866F63C2A5
:101E200087F2000138EC05F060C283F261C284F2EF
:101E300060C285F23F0E0201866F63C287F2000125
:101E400038EC05F03F0E0201655D666F60C283F2FB
:101E5000846B60C285F2866F63C287F2000138EC42
:101E600005F07F0E0201645D666F7F0E645D676F33
:101E700066C283F261C284F2856F3F0E866F63C2D1
:101E800087F2000138EC05F07F0E0201645D666F99
:101E90007F0E645D676F3F0E655D686F66C283F29B
:101EA000846B67C285F2866F63C287F2000138ECEB
:101EB00005F03CD0020160C283F265C284F27F0E5D
:101EC000856F65C286F263C287F2000138EC05F0C7
:101ED0007F0E0201645D666F836B65C284F2856F5D
:101EE00065C286F263C287F2000138EC05F060C279
:101EF00083F261C284F260C285F265C286F263C277
:101F000087F238EC05F07F0E0201645D666F7F0E8C
:101F1000645D676F66C283F261C284F2856F65C2D9
:101F200086F263C287F2000138EC05F085D0020129
:101F300060C283F261C284F264C285F261C286F239
:101F400063C287F2000138EC05F0020165513F08D9
:101F50004EE23F0E655D666F3F0E655D676F60C266
:101F600083F266C284F264C285F2866F63C287F22E
:101F7000000138EC05F060C283F261C284F260C2F5
:101F800085F23F0E0201866F63C287F2000138ECD2
:101F900005F03F0E0201655D666F60C283F2846BDF
:101FA00060C285F2866F63C287F2000138EC05F0EB
:101FB00064C283F261C284F264C285F23F0E020100
:101FC000866F63C287F2000138EC05F03F0E020114
:101FD000655D666F64C283F2846B64C285F2866F4E
:101FE00063C287F2000138EC05F026D0020160C21E
:101FF00083F265C284F264C285F265C286F263C26E
:1020000087F2000138EC05F060C283F261C284F20D
:1020100060C285F265C286F263C287F238EC05F0D1
:1020200064C283F261C284F264C285F265C286F240
:1020300063C287F238EC05F0120017C2EAFF16C23D
:10204000E9FF020174C2EFFFE92AD8B4EA2AEF6A75
:10205000162BD8B4172B00011200EACF73F2E9CF88
:1020600072F202016C39F0096E6F6E27E20F6F6F2A
:10207000320F716F6C510F0B6F276F277127E90FAC
:10208000706F702770276B390F0B702771277037AF
:102090007137711F71376B510F0B71276E37070E38
:1020A0006D6F0A0E70077127FDE36F077027FDE360
:1020B0006E076F27FDE36D076E27FDE3020EEA6EE4
:1020C0006D0EE96E070E7215729DE926000EEA226A
:1020D000E950710804E1EA50020801E1728DEF5005
:1020E000006E08E172BD06D072B915D072B702D089
:1020F000200E03D072877299300E0026EACF6CF260
:10210000E9CF6BF200C074F2000197DF6CC2EAFF06
:102110006BC2E9FF0201EE5072ADDAD70001E6EFC3
:1021200010F001506BC26DF2640E02016E6F00017F
:10213000BFEC09F000C06BF20150300E08E1020163
:102140006CA30FD06CB70DD06CB9200E04D0020177
:102150006C976C996C81012601C074F200016DDFEF
:1021600002016BC26DF20A0E6E6F0001BFEC09F046
:1021700000C06BF20150300E08E102016CB70AD0CA
:102180006CA108D06CB9200E0001012601C074F2C8
:1021900054DF0201300E6B276BC274F200014DDF79
:1021A0001200020E0201176F610E166F530E746F4C
:1021B000000143DF3A0E0201746F00013EDF100E92
:1021C000E96E5EC26CF25DC26BF247D70201836BAF
:1021D000846B020E866F610E856F010E876F60C281
:1021E00088F200015AEC04F0020E0201176F670E2C
:1021F000166F4C0E746F000120DF3A0E0201746FEF
:1022000000011BDF5FC26BF21B0E02016C6F00014D
:1022100088DF670E0201836F846B020E866F670E84
:10222000856F010E876F60C288F200015AEC04F0DE
:1022300012000201946B5DC293F20001D7EC08F02A
:1022400003C061F202C060F201C05FF200C05EF242
:10225000D88203C096F202C095F201C094F200C089
:1022600093F202019A6B996B7E0E986F850E976FB1
:102270000001D5EC09F003C061F202C060F201C0B8
:102280005FF200C05EF203C068F202C067F201C0F4
:1022900066F200C065F202016C6B6B6B700E6A6FC8
:1022A000830E696F0001F2EC08F0120002015D512B
:1022B0003B0822E35E513B080AE3810E006EB50E37
:1022C000016E040E026E810E036E51D014D05E5169
:1022D000BE080AE2810E006EB50E016E040E026E9B
:1022E000810E036E44D007D0820E006E800E016E08
:1022F000026A036A3CD03BD05D51BE0821E25E51C8
:102300003B080AE3810E006E350E016E040E026E6C
:10231000810E036E2CD013D05E51BE080AE2810EEE
:10232000006E350E016E040E026E810E036E1FD01C
:1023300006D0820E006E016A026A036A18D017D0B6
:102340005E513B0806E3006A016A026A036A0FD025
:102350000ED05E51BE0806E2006A016A026A036A94
:1023600006D005D0820E006E016A026A036A00017F
:1023700058EF21F002015D513B0820E35E513B081C
:102380000AE3810E006EB50E016E040E026E810E20
:10239000036E50D012D05E51BE080AE2810E006E6C
:1023A000350E016E040E026E810E036E43D005D011
:1023B000006A016A026A036A3DD03CD05D51BE08E2
:1023C00020E25E513B080AE3810E006EB50E016EFD
:1023D000040E026E810E036E2DD012D05E51BE0827
:1023E0000AE2810E006E350E016E040E026E810E41
:1023F000036E20D005D0006A016A026A036A1AD00F
:1024000019D05E513B0808E3820E006E800E016E0B
:10241000026A036A0FD00ED05E51BE0807E2820E38
:10242000006E016A026A036A05D004D0006A016A7C
:10243000026A036A000166EF21F0020E02015D5D8F
:10244000606F020E5E25616F020E5D25626F020EE7
:102450005E25636F60C283F261C284F262C285F25C
:10246000866F5FC287F2000138EC05F0020E0201B0
:102470005D5D606F020E5E5D616F020E5D25626FD5
:10248000020E5E5D636F60C283F261C284F262C25B
:1024900085F2866F5FC287F2000138EC05F0020E0C
:1024A00002015D5D606F020E5E25616F020E5D5D73
:1024B000626F020E5E5D636F60C283F261C284F27E
:1024C00062C285F2866F5FC287F2000138EC05F0C8
:1024D000020E02015D25606F020E5E25616F020E25
:1024E0005D25626F020E5E5D636F60C283F261C242
:1024F00084F262C285F2866F5FC287F2000138EC17
:1025000005F0040E02015D5D606F040E5E25616FD3
:10251000040E5D25626F040E5E25636F60C283F258
:1025200061C284F262C285F2866F5FC287F20001E7
:1025300038EC05F0040E02015D5D606F040E5E5D17
:10254000616F040E5D25626F040E5E5D636F60C295
:1025500083F261C284F262C285F2866F5FC287F243
:10256000000138EC05F0040E02015D5D606F040EA1
:102570005E25616F040E5D5D626F040E5E5D636FCC
:1025800060C283F261C284F262C285F2866F5FC26A
:1025900087F2000138EC05F0040E02015D25606F42
:1025A000040E5E25616F040E5D25626F040E5E5D94
:1025B000636F60C283F261C284F262C285F2866F89
:1025C0005FC287F2000138EC05F01200F86AD09E75
:1025D000078EB886080EAF6E020EB06EA60EAC6EF9
:1025E000900EAB6E01011E6B1D6B1C6B1B6B226B87
:1025F000216B206B1F6B400E256F200E266F2A6B00
:10260000296B286B276B2E6B2D6B2C6B2B6B326B16
:10261000316B306B2F6B366B356B346B336B400E1D
:10262000396F200E3A6F3E6B3D6B3C6B3B6B426BE0
:10263000416B406B3F6B466B456B446B436B4A6B26
:10264000496B486B476B400E4D6F200E4E6F526BBF
:10265000516B506B4F6B566B556B546B536B579163
:10266000636B626B616B606B676B666B656B646BF6
:102670005793736B726B716B706B776B766B756B5B
:10268000746B57955797836B826B816B806B876BED
:10269000866B856B846B57990201006B016B01019E
:1026A000578B0201036B026B056B046B076B0A0E01
:1026B000066F086F690E0A6F740E0B6F0101578D5C
:1026C000579F02010C6B7D0E0D6F0E6F0F6F106F19
:1026D00011911193126F136F146F156F119511975C
:1026E000176B166BC150C00B0F09C16E070EB46E8D
:1026F000020E1A6EA30E196E050EA46F590EA36F6B
:10270000A66BA56B000148D016401B0004C0010B4E
:10271000C00006C00109C00008C00108C00008C010
:102720000109C00006C0010BC00004C0011AC000AE
:102730000280010104C0000280010107C00004C042
:10274000010280000004C00106C0000AC00105C0EB
:10275000000CC00104C0000CC00103800000000E8A
:10276000C001028000000EC00111C0002801D8FE87
:1027700001FD03FE03FF02FD03FE02FF02FF02FE56
:1027800003FEFF02FFFE03FE02FF01FE03FF03FE46
:10279000FF02FDFD03FE0100000EF86E270EF76E2E
:1027A000080EF66E0900F550006E000A13E00900ED
:1027B000F550016EE8BE05D03F0BEA6E0900F550FA
:1027C000E96E01BC090001AC0900F550EE6E004E47
:1027D000E9D7F9D7F86AC00EF2129D8A640E020199
:1027E000606F0001F6EC02F0010E02015D6F000166
:1027F0006FEF03F00201736B00012CEC03F0020198
:10280000186B196B1A6B1B6B010E5D6F000108ECE6
:1028100006F002011C911C931C95326B336B346BD8
:10282000356B1C970A51690A00010EE01A0A56E03E
:102830001E0AD8B485D0070AD8B4B5D0200AD8B4B7
:1028400015EF1DF026EF22F002010E517D0802E285
:10285000186B08D00D517D0803E2020E186F02D0EC
:10286000010E186F1951185D09E0736B00012CEC13
:1028700003F018C25DF208EC06F0020111A329D0A2
:102880001851010A000103E0030A0FE01CD0730E87
:1028900002010A6F736B00012CEC03F0010E0201C0
:1028A0005D6F0001E4EC07F013D06D0E02010A6FBA
:1028B000736B00012CEC03F0010E02015D6F00014F
:1028C000E4EC07F005D0690E02010A6F1C870001D5
:1028D000020118C219F227EF22F0000102010E5185
:1028E0007C0803E2010E1A6F01D01A6B1B511A5DAE
:1028F00009E0736B00012CEC03F01AC25DF2E4EC0A
:1029000007F0020111A117D01A51000A000103E0DB
:10291000010A09E00FD0690E02010A6F736B000112
:102920002CEC03F007D06A0E02010A6F736B0001F2
:102930002CEC03F002011AC21BF227EF22F0000177
:1029400002010E517C0803E2010E1A6F01D01A6BCE
:102950001B511A5D09E0736B00012CEC03F01AC2E5
:102960005DF2E4EC07F0020111A118D01A51000A3F
:10297000000103E0010A09E010D0690E02010A6FAC
:10298000736B00012CEC03F008D04A0E02010A6FB1
:102990001C87736B00012CEC03F002011AC21BF2BE
:1029A00027EF22F00001010157ABD6D0579B02015F
:1029B000366B3651130825E3036A36511E0FE96E54
:1029C000020E0320EA6E606B00C25FF2626B140EAF
:1029D000616F000186EF08F002C060F201C05FF293
:1029E000020136510124016E000E0220036E0150D7
:1029F00003C0F7FF000155EC01F0EF6E0201362B2A
:102A0000D8D7005309E1000198EF08F03F0E01010B
:102A10004D6F1F0E4E6F0201002B376B375113089D
:102A2000D8A093D0036A3751B00FE96E010E03208E
:102A3000EA6E946B37C293F20001D7EC08F003C042
:102A400062F202C061F201C060F200C05FF203C036
:102A500068F202C067F201C066F200C065F20201CE
:102A60006C6B6B6B6A6B800E696F0001F2EC08F0A7
:102A700003C092F202C091F201C090F200C08FF246
:102A8000A1EC09F001C06DF20A0E02016E6F0001A7
:102A9000BFEC09F000C0EFFF036A02013751B00F2D
:102AA000E96E010E0320EA6E946B37C293F20001C7
:102AB000D7EC08F0EACF60F2E9CF5FF2D8820201EA
:102AC000966B956B200E946F830E936F03C09AF2F2
:102AD00002C099F201C098F200C097F20001D5EC53
:102AE00009F060C2EAFF5FC2E9FF03C064F202C0FE
:102AF00063F201C062F200C061F203C068F202C07A
:102B000067F201C066F200C065F202016C6B6B6B8C
:102B10006A6B800E696F0001F2EC08F003C092F25C
:102B200002C091F201C090F200C08FF2A1EC09F056
:102B300001C06DF20A0E02016E6F0001BFEC09F0D8
:102B400000C0EFFF0201372B69D7736B00012CEC3B
:102B500003F011EF1DF00101000111EF0BF003C0B4
:102B600060F202C05FF201C05EF200C05DF203C01D
:102B700096F202C095F201C094F200C093F2F90EF1
:102B800002019A6F0F0E996F490E986F800E976F22
:102B9000000170EC0BF003C060F202C05FF201C0F4
:102BA0005EF200C05DF203C068F202C067F201C0CD
:102BB00066F200C065F202016C6B6B6B340E6A6FDB
:102BC000860E696F0001F2EC08F003C04AF102C002
:102BD00049F101C048F100C047F1EBEF0BF003C031
:102BE00052F102C051F101C050F100C04FF126EF87
:102BF0000CF003C056F102C055F101C054F100C001
:102C000053F10201946B4DC193F20001D7EC08F02F
:102C100003C060F202C05FF201C05EF200C05DF26C
:102C2000D89203C096F202C095F201C094F200C09F
:102C300093F252C19AF251C199F250C198F24FC128
:102C400097F2D5EC09F003C060F202C05FF201C058
:102C50005EF200C05DF203C092F202C091F201C0C8
:102C600090F200C08FF20201966B956B946B936BA0
:102C7000000161EC0CF032E30201946B4DC193F260
:102C80000001D7EC08F003C060F202C05FF201C09F
:102C90005EF200C05DF2D89203C096F202C095F2D7
:102CA00001C094F200C093F252C19AF251C199F25C
:102CB00050C198F24FC197F2D5EC09F003C092F2DF
:102CC00002C091F201C090F200C08FF2A1EC09F0B5
:102CD0007F0E012401014D6F19D0000152C192F203
:102CE00051C191F250C190F24FC18FF2A1EC09F0A5
:102CF000015001014D2502015E6F6D6F7F0E6E6FF9
:102D00000001BFEC09F000C04DF101010201946B1C
:102D10004EC193F20001D7EC08F003C060F202C08C
:102D20005FF201C05EF200C05DF2D88203C096F28D
:102D300002C095F201C094F200C093F256C19AF21B
:102D400055C199F254C198F253C197F2D5EC09F0EC
:102D500003C060F202C05FF201C05EF200C05DF22B
:102D600003C092F202C091F201C090F200C08FF253
:102D70000201966B956B946B936B000161EC0CF008
:102D800032E30201946B4EC193F20001D7EC08F0DC
:102D900003C060F202C05FF201C05EF200C05DF2EB
:102DA000D88203C096F202C095F201C094F200C02E
:102DB00093F256C19AF255C199F254C198F253C197
:102DC00097F2D5EC09F003C092F202C091F201C073
:102DD00090F200C08FF2A1EC09F03F0E0124010136
:102DE0004E6F19D0000156C192F255C191F254C1F3
:102DF00090F253C18FF2A1EC09F0015001014E5D38
:102E000002015E6F6D6F3F0E6E6F0001BFEC09F047
:102E100000C04EF101010201386B38511308D8A0EF
:102E20001CD1036A3851B00FE96E010E0320EA6E1F
:102E3000EFCF5DF2036A3851D80FE96E010E03201F
:102E4000EA6EEF505D25006EE8AE24D0036A38517B
:102E5000B00F016E010E032201C05DF203C05EF2ED
:102E6000036A3851B00FE96E010E0320EA6EEFCF0E
:102E70005FF2036A3851D80FE96E010E0320EA6E43
:102E8000EF505F257F0F5F6F5EC2EAFF01C0E9FF71
:102E9000EF6E54D0036A3851B00FE96E010E032073
:102EA000EA6EEFCF5DF2036A3851D80FE96E010E7A
:102EB0000320EA6EEF505D257F0824E2036A385153
:102EC000B00F016E010E032201C05DF203C05EF27D
:102ED000036A3851B00FE96E010E0320EA6EEFCF9E
:102EE0005FF2036A3851D80FE96E010E0320EA6ED3
:102EF000EF505F25810F5F6F5EC2EAFF01C0E9FFFF
:102F0000EF6E1CD0036A3851B00F016E010E032220
:102F100003C05EF203C0EAFF01C0E9FFEFCF5FF23A
:102F2000036A3851D80FE96E010E0320EA6EEF50A4
:102F30005F255EC2EAFF01C0E9FFEF6E036A385108
:102F4000C40FE96E010E0320EA6EEFCF5DF2036A53
:102F50003851EC0FE96E010E0320EA6EEF505D254B
:102F6000006EE8AE24D0036A3851C40F016E010E22
:102F7000032201C05DF203C05EF2036A3851C40F40
:102F8000E96E010E0320EA6EEFCF5FF2036A38515B
:102F9000EC0FE96E010E0320EA6EEF505F253F0F44
:102FA0005F6F5EC2EAFF01C0E9FFEF6E54D0036AB3
:102FB0003851C40FE96E010E0320EA6EEFCF5DF2C7
:102FC000036A3851EC0FE96E010E0320EA6EEF50F0
:102FD0005D253F0824E2036A3851C40F016E010EDB
:102FE000032201C05DF203C05EF2036A3851C40FD0
:102FF000E96E010E0320EA6EEFCF5FF2036A3851EB
:10300000EC0FE96E010E0320EA6EEF505F25C10F51
:103010005F6F5EC2EAFF01C0E9FFEF6E1CD0036A7A
:103020003851C40F016E010E032203C05EF203C0CB
:10303000EAFF01C0E9FFEFCF5FF2036A3851EC0FFE
:10304000E96E010E0320EA6EEF505F255EC2EAFFD3
:1030500001C0E9FFEF6E382BE0D6396B3951130808
:10306000D8A07AD0036A39511E0FE96E020E0320F0
:10307000EA6EEF52D8B46CD0036A3951B00FE96EE2
:10308000010E0320EA6EEF5001014D5D62E061E345
:10309000036A02013951B00FE96E010E0320EA6E96
:1030A000EFCF5DF2036A39511E0FE96E020E032065
:1030B000EA6EEF50080DF3505D2501014D5D49E2C8
:1030C000036A02013951C40FE96E010E0320EA6E52
:1030D000EF5001014E5D3DE03CE3036A02013951CE
:1030E000C40FE96E010E0320EA6EEFCF5DF2036AB2
:1030F00039511E0FE96E020E0320EA6EEF50080DE3
:10310000F3505D2501014E5D24E2690E02010A6F54
:103110000101578B0201736B00012CEC03F00201DB
:103120005D6B000108EC06F002010551035D08E348
:1031300003E10251045D04E203C205F202C204F29B
:103140000051015D02E200C201F2036B026B006BF1
:1031500001010201392B82D7010157A15BD163C163
:1031600092F262C191F261C190F260C18FF20001EE
:10317000A1EC09F0036A0150E8BE030601015C27D7
:1031800003505D2367C192F266C191F265C190F26E
:1031900064C18FF20001A1EC09F0036A0150E8BE9E
:1031A000030601015E2703505F2302013A6B3A5187
:1031B0001308D8A0DCD0036A3A511E0FE96E020E44
:1031C0000320EA6EEF52D8B4CED0036A3A51B00F62
:1031D000E96E010E0320EA6EEF5001015DBF4ED093
:1031E0005D5303E15C5D4AE049E3036A02013A5141
:1031F000B00FE96E010E0320EA6EEFCF5DF2036AB5
:103200003A511E0FE96E020E0320EA6EEF50080DD0
:10321000F3505D2501015DBF04D05D532FE15C5D7E
:103220002DE2036A02013A51C40FE96E010E032038
:10323000EA6EEF5001015FBF21D05F5303E15E5D95
:103240001DE01CE3036A02013A51C40FE96E010E4E
:103250000320EA6EEFCF5DF2036A3A511E0FE96E6A
:10326000020E0320EA6EEF50080DF3505D250101B8
:103270005FBF56D05F5302E15E5D52E3036A020115
:103280003A51B00FE96E010E0320EA6EEF500101D2
:103290005ABF6AD05A5D68E067E3036A02013A5197
:1032A000B00FE96E010E0320EA6EEFCF5DF2036A04
:1032B0003A511E0FE96E020E0320EA6EEF50080D20
:1032C000F3505D2501015ABF02D05A5D4DE2036AF9
:1032D00002013A51C40FE96E010E0320EA6EEF506D
:1032E00001015BBF41D05B5D3FE03EE3036A020149
:1032F0003A51C40FE96E010E0320EA6EEFCF5DF282
:10330000036A3A511E0FE96E020E0320EA6EEF5077
:10331000080DF3505D2501015BBF02D05B5D24E227
:10332000036A02013A511E0FE96E020E0320EA6E93
:10333000EF50FF0A050F0227000E0323036A3A51DC
:103340001E0FE96E020E0320EA6EEF063AC25DF22E
:10335000010E5E6F020E606F320E5F6F00019EEC19
:103360000CF002011C85010102013A2B20D758C143
:1033700083F259C184F25AC185F25BC186F2876B30
:10338000000138EC05F05AC183F25BC184F25CC1E4
:1033900085F25EC186F2010E0201876F000138ECF2
:1033A00005F002011CB524D001015DBF05D05D53BD
:1033B0000EE15C517F080BE35DBF09D05FBF05D014
:1033C0005F5305E15E513F0802E35FAF0FD05791B5
:1033D0005AC183F25BC184F25CC185F25EC186F2A0
:1033E0000201876B000138EC05F0010112D00201E7
:1033F0001C95010157915AC183F25BC184F25CC1F3
:1034000085F25EC186F20201876B000138EC05F09F
:10341000010169D0020111A365D0010157814AC1A0
:1034200068F249C167F248C166F247C165F200011E
:10343000BFEC0CF003C060F202C05FF201C05EF2AC
:1034400000C05DF203C096F202C095F201C094F292
:1034500000C093F202019A6B996B400E986F810E37
:10346000976F000170EC0BF003C063F102C062F1D2
:1034700001C061F100C060F14AC160F249C15FF270
:1034800048C15EF247C15DF27AEF0EF003C060F210
:1034900002C05FF201C05EF200C05DF203C096F2AE
:1034A00002C095F201C094F200C093F202019A6B3F
:1034B000996B400E986F810E976F000170EC0BF0C6
:1034C00003C067F102C066F101C065F100C064F19C
:1034D00001014DC15CF15D6B4EC15EF15F6B020E8F
:1034E00002011D6F010102013B6B3B511308D8A083
:1034F000EFD0036A3B511E0FE96E020E0320EA6E05
:10350000EF52D8B47CD03BC25DF2020E5F6F320E38
:103510005E6F0001A2EC0EF001A02ED0036A020142
:103520003B51880FE96E010E0320EA6EEFCF60F287
:10353000036A3B519C0FE96E010E0320EA6EEFCF48
:1035400061F2036A3B511E0FE96E020E0320EA6E20
:10355000010EEF245F6F626F636B0001BDEC0EF034
:103560003BC25DF202015E6B020E606F320E5F6F56
:1035700000019EEC0CF020D0036A02013B51880F41
:10358000E96E010E0320EA6EEFCF60F2036A3B5151
:103590009C0FE96E010E0320EA6EEFCF61F2036A21
:1035A0003B511E0FE96E020E0320EA6EEFCF62F26E
:1035B000636B0001BDEC0EF0036A02013B51B00FDA
:1035C000E96E010E0320EA6EEFCF60F2036A3B5111
:1035D000C40FE96E010E0320EA6EEFCF61F2036AB9
:1035E0003B511E0FE96E020E0320EA6EEFCF62F22E
:1035F000010E636F0001BDEC0EF039D002013BC239
:103600005DF2020E5F6F320E5E6F0001A2EC0EF0F3
:1036100001A02DD0036A02013B51880FE96E010E13
:103620000320EA6EEFCF60F2036A3B519C0FE96E14
:10363000010E0320EA6EEFCF61F2036A3B511E0FC9
:10364000E96E020E0320EA6E010EEF245F6F626FD7
:10365000636B0001BDEC0EF03BC25DF202015E6BDC
:10366000020E606F320E5F6F00019EEC0CF0036A79
:1036700002013B51880F016E010E032203C05EF26E
:10368000036A3B51B00FE96E010E0320EA6EEFCFE3
:103690005FF25EC2EAFF01C0E9FF5FC2EFFF036AAB
:1036A0003B519C0F016E010E032203C05EF2036AC0
:1036B0003B51C40FE96E010E0320EA6EEFCF5FF2BB
:1036C0005EC2EAFF01C0E9FF5FC2EFFF3B2B0DD7EF
:1036D000010157A109D05AC158F15BC159F15CC130
:1036E0005AF15EC15BF108D04DC158F14EC159F19C
:1036F0004DC15AF14EC15BF1010E4B5D02015D6F90
:10370000010E01014C2502015E6F010E01014B25E6
:1037100002015F6F010E01014C250201606F5DC265
:1037200083F25EC284F25FC285F2866F876B00010E
:1037300038EC05F0010E01014B5D02015D6F010ED9
:1037400001014C5D02015E6F010E01014B2502017A
:103750005F6F010E01014C5D0201606F5DC283F27B
:103760005EC284F25FC285F2866F876B000138EC1F
:1037700005F0010E01014B5D02015D6F010E0101BB
:103780004C2502015E6F010E01014B5D02015F6F6E
:10379000010E01014C5D0201606F5DC283F25EC2E9
:1037A00084F25FC285F2866F876B000138EC05F00A
:1037B000010E01014B2502015D6F010E01014C2537
:1037C00002015E6F010E01014B2502015F6F010EC8
:1037D00001014C5D0201606F5DC283F25EC284F242
:1037E0005FC285F2866F876B000138EC05F0010E31
:1037F00001014D5D02015D6F010E01014E250201C7
:103800005E6F010E01014D2502015F6F010E010186
:103810004E250201606F5DC283F25EC284F25FC218
:1038200085F2866F010E876F000138EC05F0010EFE
:1038300001014D5D02015D6F010E01014E5D02014E
:103840005E6F010E01014D2502015F6F010E010146
:103850004E5D0201606F5DC283F25EC284F25FC2A0
:1038600085F2866F010E876F000138EC05F0010EBE
:1038700001014D5D02015D6F010E01014E25020146
:103880005E6F010E01014D5D02015F6F010E0101CE
:103890004E5D0201606F5DC283F25EC284F25FC260
:1038A00085F2866F010E876F000138EC05F0010E7E
:1038B00001014D2502015D6F010E01014E2502013E
:1038C0005E6F010E01014D2502015F6F010E0101C6
:1038D0004E5D0201606F5DC283F25EC284F25FC220
:1038E00085F2866F010E876F000138EC05F04AC142
:1038F00046F149C145F148C144F147C143F14DC1C9
:103900004BF14EC14CF102013C6B3C5113080BE3EF
:10391000036A3C511E0FE96E020E0320EA6EEF505F
:1039200035273C2BF2D7355304E0010157AB03D0C8
:1039300002010101578B07C25EF206C25DF208C2A6
:103940005FF20201606B0001D1EC10F003C25EF285
:1039500002C25DF200C25FF2010E0201606F00015F
:10396000D1EC10F003C207F202C206F200C208F264
:103970000201946B35C293F20001D7EC08F003C04A
:1039800060F202C05FF201C05EF200C05DF203C0EF
:1039900096F202C095F201C094F200C093F2CD0EEF
:1039A00002019A6FCC0E996F4C0E986F7C0E976F38
:1039B000000170EC0BF0D8820201966B956B300E13
:1039C000946F830E936F03C09AF202C099F201C004
:1039D00098F200C097F20001D5EC09F003C092F212
:1039E00002C091F201C090F200C08FF2A1EC09F088
:1039F00002C05EF201C05DF202C05FF202015F2B05
:103A00005F07D8B406D060690001F6EC02F002014D
:103A1000F7D75DC260F20001F6EC02F00201356BEF
:103A20000001020127EF22F0000102011CA70DD0C6
:103A30000A0E0101256F140E266F780E396F280EBD
:103A40003A6F5793579702011C970DC25DF2000120
:103A500019EC11F003C02AF102C029F101C028F1CC
:103A600000C027F10EC25DF219EC11F003C02EF177
:103A700002C02DF101C02CF100C02BF10201946BAA
:103A800025C193F20001D7EC08F003C060F202C038
:103A90005FF201C05EF200C05DF2D89203C096F200
:103AA00002C095F201C094F200C093F22AC19AF2CA
:103AB00029C199F228C198F227C197F2D5EC09F0F3
:103AC00003C060F202C05FF201C05EF200C05DF2AE
:103AD00003C092F202C091F201C090F200C08FF2D6
:103AE0000201966B956B946B936B000161EC0CF08B
:103AF00032E30201946B25C193F20001D7EC08F088
:103B000003C060F202C05FF201C05EF200C05DF26D
:103B1000D89203C096F202C095F201C094F200C0A0
:103B200093F22AC19AF229C199F228C198F227C1C9
:103B300097F2D5EC09F003C092F202C091F201C0F5
:103B400090F200C08FF2A1EC09F07F0E0124010178
:103B5000256F19D000012AC192F229C191F228C122
:103B600090F227C18FF2A1EC09F001500101252547
:103B700002015E6F6D6F7F0E6E6F0001BFEC09F08A
:103B800000C025F101010201946B26C193F20001EE
:103B9000D7EC08F003C060F202C05FF201C05EF231
:103BA00000C05DF2D88203C096F202C095F201C057
:103BB00094F200C093F22EC19AF22DC199F22CC159
:103BC00098F22BC197F2D5EC09F003C060F202C065
:103BD0005FF201C05EF200C05DF203C092F202C06B
:103BE00091F201C090F200C08FF20201966B956BCA
:103BF000946B936B000161EC0CF032E30201946B67
:103C000026C193F20001D7EC08F003C060F202C0B5
:103C10005FF201C05EF200C05DF2D88203C096F28E
:103C200002C095F201C094F200C093F22EC19AF244
:103C30002DC199F22CC198F22BC197F2D5EC09F065
:103C400003C092F202C091F201C090F200C08FF264
:103C5000A1EC09F03F0E01240101266F19D00001EB
:103C60002EC192F22DC191F22CC190F22BC18FF294
:103C7000A1EC09F001500101265D02015E6F6D6F3C
:103C80003F0E6E6F0001BFEC09F000C026F101018C
:103C900012C25DF2000119EC11F003C03EF102C046
:103CA0003DF101C03CF100C03BF113C25DF219ECE3
:103CB00011F003C042F102C041F101C040F100C067
:103CC0003FF10201946B39C193F20001D7EC08F087
:103CD00003C060F202C05FF201C05EF200C05DF29C
:103CE000D89203C096F202C095F201C094F200C0CF
:103CF00093F23EC19AF23DC199F23CC198F23BC1A8
:103D000097F2D5EC09F003C060F202C05FF201C087
:103D10005EF200C05DF203C092F202C091F201C0F7
:103D200090F200C08FF20201966B956B946B936BCF
:103D3000000161EC0CF032E30201946B39C193F2A3
:103D40000001D7EC08F003C060F202C05FF201C0CE
:103D50005EF200C05DF2D89203C096F202C095F206
:103D600001C094F200C093F23EC19AF23DC199F2B3
:103D70003CC198F23BC197F2D5EC09F003C092F236
:103D800002C091F201C090F200C08FF2A1EC09F0E4
:103D90007F0E01240101396F19D000013EC192F25A
:103DA0003DC191F23CC190F23BC18FF2A1EC09F010
:103DB00001500101392502015E6F6D6F7F0E6E6F3C
:103DC0000001BFEC09F000C039F101010201946B60
:103DD0003AC193F20001D7EC08F003C060F202C0D0
:103DE0005FF201C05EF200C05DF2D88203C096F2BD
:103DF00002C095F201C094F200C093F242C19AF25F
:103E000041C199F240C198F23FC197F2D5EC09F057
:103E100003C060F202C05FF201C05EF200C05DF25A
:103E200003C092F202C091F201C090F200C08FF282
:103E30000201966B956B946B936B000161EC0CF037
:103E400032E30201946B3AC193F20001D7EC08F01F
:103E500003C060F202C05FF201C05EF200C05DF21A
:103E6000D88203C096F202C095F201C094F200C05D
:103E700093F242C19AF241C199F240C198F23FC116
:103E800097F2D5EC09F003C092F202C091F201C0A2
:103E900090F200C08FF2A1EC09F03F0E0124010165
:103EA0003A6F19D0000142C192F241C191F240C172
:103EB00090F23FC18FF2A1EC09F0015001013A5D8F
:103EC00002015E6F6D6F3F0E6E6F0001BFEC09F077
:103ED00000C03AF1010157A3E2D0040E39256DBFAD
:103EE00004D06D531CE16C5D1AE2040E395D6DBFA8
:103EF00016D06D5303E16C5D12E011E3040E3A2518
:103F00006FBF04D06F530BE16E5D09E2040E3A5DA2
:103F10006FBF05D06F531DE16E5D01E01AE2040E24
:103F200039256ABF02D06A5D1EE2040E395D6ABFA0
:103F30001AD06A5D18E017E3040E3A256BBF02D071
:103F40006B5D11E2040E3A5D6BBF0DD06B5D0BE053
:103F50000AE302011C811C93690E0A6F0101578557
:103F600002011C87010168C183F269C184F26AC140
:103F700085F26BC186F20201876B000138EC05F017
:103F80006AC183F26BC184F26CC185F26EC186F2A4
:103F9000010E0201876F000138EC05F0020E0201EC
:103FA000176F3D0E166F6CC16BF21B0E6C6F00012C
:103FB00091EC10F00201836B360E846F020E866F57
:103FC0003D0E856F010E876F886F00015AEC04F07B
:103FD000020E0201176F3D0E166F6EC16BF21B0EC3
:103FE0006C6F000191EC10F0140E0201836F360E1D
:103FF000846F020E866F3D0E856F010E876F886F8E
:1040000000015AEC04F0000E010157B3010E020149
:104010005D6F020E176F3D0E166F5DC26BF21B0EC9
:104020006C6F000191EC10F00201836B2C0E846F19
:10403000020E866F3D0E856F010E876F886F00013F
:104040005AEC04F0010157B521D06DBF05D06D5376
:104050000EE16C517F080BE36DBF09D06FBF05D037
:104060006F5305E16E513F0802E36FAF0FD05793D6
:104070006AC183F26BC184F26CC185F26EC186F2B3
:104080000201876B000138EC05F001016AC168F19B
:104090006BC169F16CC16AF16EC16BF153D057838A
:1040A000736B726B716B820E706F776B766B756B67
:1040B000746B6D6B400E6C6F6F6B200E6E6F020138
:1040C000436F446F456F466F476F486B836B360E87
:1040D000846F020E866F430E856F010E876F886FA7
:1040E00000015AEC04F0140E0201836F360E846F47
:1040F000020E866F430E856F010E876F886F000179
:104100005AEC04F0000E010157B3010E02015D6F7D
:10411000020E176F490E166F5DC26BF21B0E6C6FAD
:10412000000191EC10F00201836B2C0E846F020EE3
:10413000866F490E856F010E876F886F00015AECFC
:1041400004F0010157A7ACD083C192F282C191F271
:1041500081C190F280C18FF20001A1EC09F0036AE5
:104160000150E8BE030601017C2703507D2387C16F
:1041700092F286C191F285C190F284C18FF2000162
:10418000A1EC09F0036A0150E8BE030601017E2795
:1041900003507F23040E25257DBF04D07D531CE1F1
:1041A0007C5D1AE2040E255D7DBF16D07D5303E1D0
:1041B0007C5D12E011E3040E26257FBF04D07F53FF
:1041C0000BE17E5D09E2040E265D7FBF05D07F53C3
:1041D0001DE17E5D01E01AE2040E25257ABF02D0C2
:1041E0007A5D1EE2040E255D7ABF1AD07A5D18E072
:1041F00017E3040E26257BBF02D07B5D11E2040E7F
:10420000265D7BBF0DD07B5D0BE00AE302011C81C4
:104210001C83690E0A6F0101578902011C87010185
:1042200078C183F279C184F27AC185F27BC186F2CA
:104230000201876B000138EC05F07AC183F27BC183
:1042400084F27CC185F27EC186F2010E0201876F85
:10425000000138EC05F0010157B921D07DBF05D030
:104260007D530EE17C517F080BE37DBF09D07FBFFA
:1042700005D07F5305E17E513F0802E37FAF0FD0A9
:1042800057937AC183F27BC184F27CC185F27EC1EF
:1042900086F20201876B000138EC05F0010125D0A0
:1042A000578714C25DF215C25EF2000156EF11F09D
:1042B00003C083F102C082F101C081F100C080F12E
:1042C00014C25DF215C25EF2BAEF11F003C087F1BD
:1042D00002C086F101C085F100C084F1010139C13D
:1042E0007CF17D6B3AC17EF17F6B57A309D06AC127
:1042F00068F16BC169F16CC16AF16EC16BF108D0F4
:1043000025C168F126C169F125C16AF126C16BF1A9
:1043100057A709D07AC178F17BC179F17CC17AF1D4
:104320007EC17BF108D039C178F13AC179F139C148
:104330007AF13AC17BF123C15DF224C15EF2020140
:104340005F6B00011DEC12F025C15DF226C15EF22B
:10435000010E02015F6F00011DEC12F025C123F177
:1043600026C124F137C15DF238C15EF202015F6BF4
:1043700000011DEC12F039C15DF23AC15EF2010E8E
:1043800002015F6F00011DEC12F039C137F13AC133
:1043900038F1230E0201606F0001F6EC02F0020119
:1043A0001CA152D01C911CB328D0736B00012CECC3
:1043B00003F0010E02015D6F000108EC06F0470EEC
:1043C00002014F6F410E506F4E0E516F410E526FF2
:1043D000200E536F310E546F556B160E836F320ED5
:1043E000846F020E866F4F0E856F010E876F886F88
:1043F00000015AEC04F027D00201736B00012CEC91
:1044000003F0010E02015D6F000108EC06F0470E9B
:104410000201566F410E576F4E0E586F410E596F85
:10442000200E5A6F320E5B6F5C6B160E836F320E6E
:10443000846F020E866F560E856F010E876F886F30
:1044400000015AEC04F0020102D000010201700EDA
:0C4450009EA8FED7AD6E12EF14F0030022
:020000040030CA
:0E00000004CC3E1E0007A1000FC00FE00F4011
:00000001FF
;PIC18F4550
;CRC=7723  CREATED="22-nov.-24 11:03"
