:0400000092EF16F075
:08000800046ED8CF05F0E0CF33
:1000100006F00001E9CF0CF0EACF07F0E1CF08F0DD
:10002000E2CF09F0D9CF0AF0DACF0BF0F3CF12F01C
:10003000F4CF13F0FACF14F0F5CF15F0F6CF16F099
:10004000F7CF17F000C00EF001C00FF002C010F0A3
:1000500003C011F09DAA30EF00F09EBA88EF02F0C5
:100060000EC000F00FC001F010C002F011C003F08C
:100070000CC0E9FF07C0EAFF078E08C0E1FF09C016
:10008000E2FF0AC0D9FF0BC0DAFF12C0F3FF13C0B2
:10009000F4FF14C0FAFF15C0F5FF16C0F6FF17C035
:1000A000F7FF045006C0E0FF05C0D8FF1000F76A54
:1000B000BE0FF66E000EF7220900F5501200000088
:1000C00000000000005F00000003000300143E1465
:1000D0003E14242A7F2A124333086661364955228A
:1000E000500005030000001C2241000041221C00BA
:1000F00014083E081408083E0808005030000008A4
:1001000008080808006060000020100804023E5142
:1001100049453E04027F000042615149462241495F
:1001200049361814127F1027454545393E4949493B
:100130003201017109073649494936264949493E84
:100140000036360000005636000008142241001424
:1001500014141414004122140802015109063E41EE
:1001600059555E7E0909097E7F494949363E41411C
:1001700041227F4141413E7F494949417F09090967
:10018000013E4141493A7F0808087F00417F410014
:10019000304040403F7F081422417F404040407F34
:1001A000020C027F7F0204087F3E4141413E7F09ED
:1001B0000909061E2121215E7F0909097600F76AD7
:1001C000CE0FF66E010EF7220900F55012002649F7
:1001D00049493201017F01013F4040403F1F20401B
:1001E000201F7F2010207F41221C22410708700819
:1001F000076151494543007F410000020408102077
:100200000000417F000402010204404040404000E1
:100210000102040020545454787F44444438384444
:10022000444444384444447F385454541804047EAD
:100230000505085454543C7F0804047800447D406C
:10024000002040443D007F1028440000417F4000D2
:100250007C047804787C0804047838444444387C6E
:1002600014141408081414147C007C080404485462
:1002700054542004043F44443C4040207C1C204013
:10028000201C3C4030403C44281028440C50505026
:100290003C4464544C44000836414100007F000057
:1002A00041413608000201020402B80FF66E020E48
:1002B000F7220900F55012000000000000000100C4
:1002C000000000000000000000000000000000002E
:1002D000010000000000000000010000000000001C
:1002E000000000000000000002000000000000000C
:1002F00000000000000000020000000000000000FC
:1003000000000000020000000000000000000000EB
:1003100000000000000000000000000303000000D7
:1003200000030000000000000000000000000000CA
:1003300000020301000000000000000000000000B7
:1003400000000000000000020000010001000000A9
:100350000000000100010000000000000000000398
:100360000000030003000000000000000000000087
:10037000000000000000000000000000000000007D
:10038000000000000000000000000000000000006D
:10039000000000000000000000000000000000005D
:1003A000000000000000000000000000000000004D
:1003B000000000000000000000000000000000003D
:1003C000000000000000000000000000000000002D
:1003D000000000000000000000000000000000001D
:1003E000000000000000000000000000000000000D
:1003F00000000000000000000000000000000000FD
:1004000000000000000000000000000000000000EC
:1004100000000000000000000000000000000000DC
:1004200000000000000000000000000000000000CC
:1004300000000000000000000000000000000000BC
:1004400000000000000000000000000000000000AC
:10045000000000000000000000000000000000009C
:10046000000000000000000000000000000000008C
:10047000000000000000000000000000000000007C
:10048000000000000000000000000000000000006C
:10049000000000000000000000000000000000005C
:1004A000000000000000000000000000000000004C
:1004B000000000000000000000000000000000003C
:1004C000000000000000000000000000000000002C
:1004D000000000000000000000000000000000001C
:1004E000000000000000000000000000000000000C
:1004F00000000000000000000000000000000000FC
:1005000000000000000000000000000000000000EB
:100510009EAAFED7AECF0DF202011151F70F47E2AE
:10052000090F0001E0EF02F00DC213F202013FD00B
:100530000DC212F202013BD00DC214F2020137D0FB
:100540000DC215F2020133D00DC217F202012FD0F5
:100550000DC216F202012BD00DC218F2020127D0F3
:100560000DC219F2020123D002010DA102D0010E29
:1005700001D0000E1095E8B010850DA302D0010E39
:1005800001D0000E1097E8B010870DA502D0010E23
:1005900001D0000E1099E8B010890DA702D0010E0D
:1005A00001D0000E109BE8B0108B01D00201112B7E
:1005B0001151090801E1116B9E9A000130EF00F022
:1005C000E824F76AF736DB0FF66E050EF7220A000D
:1005D000F550FA6E0800F550F96E2805300538051B
:1005E000400548055005580560056805020EEA6E8D
:1005F000790EE96EEF500DE0060E016E006A002ED6
:10060000FED7012EFBD77B0E006E002EFED7EF2EFD
:10061000F3D71200000E956E93988A980201F85352
:1006200003E093928A8202D093908A8000D000D017
:100630000000956AF9C28CFF00D000D00000939AA8
:100640008A8A00D000D00000939A8A9A93908A9068
:1006500093928A92000112000201796B7951070886
:100660003CE393948A94F86B400EF96F0001D2DF5B
:10067000010E0201F86F400EF96F0001CBDF02019D
:100680007951B8097B6FF86BF96F0001C3DF020184
:100690007951B8097B6F010EF86F7BC2F9F2000146
:1006A000B9DF93948A8402017A6B7A513F0813E38D
:1006B0007851FF0DF3CFF9F2F86B0001ABDF0201C7
:1006C0007851FF0DF3CFF9F2010EF86F0001A2DFB0
:1006D00002017A2BEAD7792BC1D70001120094903E
:1006E0008B80939A8A9A93908A9093928A92939409
:1006F0008A940201F86BC00EF96F00018BDF010EC6
:100700000201F86FC00EF96F000184DF0201F86B7F
:10071000400EF96F00017EDF010E0201F86F400EFE
:10072000F96F000177DF0201F86BB80EF96F000175
:1007300071DF010E0201F86FB80EF96F00016ADF78
:100740000201592D0ED0F86B3F0EF96F000162DFE8
:10075000010E0201F86F3F0EF96F00015BDF0DD053
:100760000201F86B3E0EF96F000154DF010E020129
:10077000F86F3E0EF96F00014DDF0201786B00014A
:100780006BDFABEF17F0006A016A0201EE51D890FF
:10079000EFB1002600320132EFB300260032013201
:1007A000EFB5002600320132EFB7002600320132E9
:1007B000EFB9002600320132EFBB002600320132D1
:1007C000EFBD002600320132EFBF002600320132B9
:1007D00000011200FF0E956E93988A880201F7536C
:1007E00003E093928A8202D093908A8000D000D056
:1007F0000000939A8A8A00D000D00000956883CFC9
:10080000F8F2939A8A9A93908A9093928A92F8C275
:1008100001F0000112000201F591F1513F0803E2DD
:10082000400EF15FF58193948A94F19FF18D000E53
:10083000F5B1010EF66FF86FF1C2F9F20001EADED0
:10084000000E0201F5B1010EF66FF231006E0032BA
:1008500000321F0E00160050BF0BB809F76FF6C22A
:10086000F8F2F96F0001D6DE93948A84000E02013B
:10087000F5B1010EF66FF76F0001ACDF000E02015B
:10088000F5B1010EF66FF76F0001A4DF01C0F4F2BD
:100890000201F32D0FD0F251070BF66F010E006E1F
:1008A000F651016E04E0D8900036012EFCD70050BE
:1008B000F4130FD0F251070BF66F010E006EF651D4
:1008C000016E04E0D8900036012EFCD70050FF0ADC
:1008D000F41793948A94000EF5B1010EF66FF86F39
:1008E000F1C2F9F2000196DE93948A84000E0201AF
:1008F000F5B1010EF66FF86FF4C2F9F200018ADE6D
:1009000012000201DF51E15DED6FED51EDAF03D05B
:10091000000ED880ED55E86FE051E25DED6FED51CE
:10092000EDAF03D0000ED880ED55E96FDFC2E4F2E1
:10093000E0C2E5F2DF51E15D02E2E66902D0010EBC
:10094000E66FE051E25D02E2E76902D0010EE76F77
:10095000E951800A006EE851800A005C01E050E233
:10096000020EEE6FE9C2EFF200010DDF0201E85165
:10097000015C036AE8BE0306EA6F03C0EBF2EC6BAE
:10098000E8BF3DD0EC51E85D3AE3E4C2F1F2E5C2E4
:10099000F2F2E3C2F3F200013EDF0201EBAF11D04D
:1009A000020EEE6FE9C2EFF20001EDDE0150036AC4
:1009B000E8BE03060201EA270350EB23E651E427D1
:1009C0001CD0020EEE6FE9C2EFF20001DCDE01C0C6
:1009D000EDF2020E0201EE6FE8C2EFF20001D3DE8B
:1009E00001500201ED5D036AE8BE0306EA270350E9
:1009F000EB23E651E427E751E527EC2BC1D74FD095
:100A0000020EEE6FE8C2EFF20001BDDE0201E95115
:100A1000015C036AE8BE0306EA6F03C0EBF2EC6B0D
:100A2000E9BF3DD0EC51E95D3AE3E4C2F1F2E5C241
:100A3000F2F2E3C2F3F20001EEDE0201EBAF11D0FD
:100A4000020EEE6FE8C2EFF200019DDE0150036A74
:100A5000E8BE03060201EA270350EB23E751E5272E
:100A60001CD0020EEE6FE8C2EFF200018CDE01C076
:100A7000EDF2020E0201EE6FE9C2EFF2000183DE39
:100A800001500201ED5D036AE8BE0306EA27035048
:100A9000EB23E651E427E751E527EC2BC1D7000112
:100AA000120076C2DFF277C2E0F278C2E1F277C2DA
:100AB000E2F2010E0201E36F000123DF76C2DFF2F2
:100AC00077C2E0F276C2E1F279C2E2F2010E0201EF
:100AD000E36F000116DF78C2DFF277C2E0F278C27E
:100AE000E1F279C2E2F2010E0201E36F000109DFD7
:100AF00076C2DFF279C2E0F278C2E1F279C2E2F2C4
:100B0000010E0201E36F0001FCDE12000201E56B41
:100B1000E551E125E96E000EE221EA6EEF52D8B40C
:100B2000ABD0E551E125E96E000EE221EA6EEF500F
:100B3000520822E3E551E125E96E000EE221EA6E5A
:100B4000200EEF5C050DF350036AEF6F020EEA6EA4
:100B5000EA0EE96EF36BEFC2F2F2050E016EF76A70
:100B6000EF51000157EC00F00A000900F5CFEEFF4D
:100B7000012EFBD732D00201E551E125E96E000ECE
:100B8000E221EA6EEF507E0822E3E551E125E96EAD
:100B9000000EE221EA6E530EEF5C050DF350036A7E
:100BA000EF6F020EEA6EEA0EE96EF36BEFC2F2F23D
:100BB000050E016EF76AEF510001DFEC00F00A004C
:100BC0000900F5CFEEFF012EFBD707D00201EA6B3B
:100BD000EB6BEC6BED6BEE6B00010201E351050D6D
:100BE000F350DF257F0806E2DF6BE351070DF3507A
:100BF000010FE027E66BE65104083BE3E76BE351A6
:100C0000070DF350E75D31E2036AE651EA0FE96E42
:100C1000020E0320EA6EEFCF00F0E751016E04E010
:100C2000D8900032012EFCD700A01DD0E86BE35114
:100C3000E85D19E2E96BE351E95D13E2E951DF2573
:100C4000EF6FE751E303F350E025E825F06FEFC2C3
:100C5000F1F2F26FE4C2F3F20001DDDD0201E92BF3
:100C6000EAD7E82BE4D7E72BCAD7E62BE351DF27F7
:100C7000C2D7E52BDF2B4CD700011200140E020166
:100C8000766F776F6C0E786F2C0E796F000109DF2D
:100C9000140E0201766F0A0E776F280E786F140E0D
:100CA000796F0001FEDE580E0201766F0A0E776F33
:100CB0006C0E786F140E796F0001F3DE160E0201D0
:100CC000766F180E776F360E786F220E796F0001EF
:100CD000E8DE4A0E0201766F180E776F6A0E786FA3
:100CE000220E796F0001DDDE420E0201596F4C0EBB
:100CF0005A6F5B6B160EDF6F0C0EE06F020EE26F29
:100D0000590EE16F010EE36FE46F0001FFDE420E4A
:100D100002015C6F520E5D6F5E6B5A0EDF6F0C0E40
:100D2000E06F020EE26F5C0EE16F010EE36FE46FA5
:100D30000001ECDE4C0E02015F6F4A0E606F616BCA
:100D4000180EDF6F1A0EE06F020EE26F5F0EE16F9A
:100D5000010EE36FE46F0001D9DE520E0201626FF3
:100D60004A0E636F646B4C0EDF6F1A0EE06F020E5B
:100D7000E26F620EE16F010EE36FE46F0001C6DE09
:100D8000550E0201656F730E666F650E676F200E5C
:100D9000686F500E696F310E6A6F200E6B6F690EAF
:100DA0006C6F6E0E6D6F200E6E6F6D0E6F6F650E39
:100DB000706F6E0E716F750E726F730E736F746B52
:100DC000140EDF6F380EE06F020EE26F650EE16FFA
:100DD000010EE36FE46F000199DEC0EF17F002012E
:100DE0005951010A000104E0030AD8B4EFD0E2D15E
:100DF000410E02015A6F530E5B6F540E5C6F450E2D
:100E00005D6F520E5E6F4F0E5F6F490E606F440E46
:100E1000616F530E626F636B260EDF6F040EE06F1F
:100E2000020EE26F5A0EE16F010EE36FE46F0001F4
:100E30006DDE530E0201646F450E656F4C0E666FDA
:100E4000450E676F430E686F540E696F200E6A6F10
:100E5000260E6B6F200E6C6F480E6D6F4F0E6E6F0F
:100E60004C0E6F6F440E706F3A0E716F200E726FE2
:100E70005B0E736F4C0E746F4A0E756F5D0E766F5E
:100E8000776B0A0EDF6F310EE06F020EE26F640EB9
:100E9000E16F010EE36FE46F000138DE500E0201D6
:100EA000786F520E796F450E7A6F530E7B6F7C6FA1
:100EB0003A0E7D6F200E7E6F5B0E7F6F420E806F4D
:100EC000520E816F5D0E826F836B280EDF6F390EBD
:100ED000E06F020EE26F780EE16F010EE36FE46FD8
:100EE000000114DE0201846B84510F086DE3856BF1
:100EF00085510F0867E38551100DF350E06BDF6FEC
:100F0000036A8451DF25016EE051032201501B0F5B
:100F1000E96E000E0320EA6EEF2C2AD0140E842511
:100F2000DF6F1A0E8525E06FDFC2F1F2F26FF36B0F
:100F3000000171DC520E02018425DF6F1A0E852537
:100F4000E06FDFC2F1F2F26F010EF36F000163DCBC
:100F5000600E02018425DF6F1A0E8525E06FDFC267
:100F6000F1F2F26F010EF36F000155DC28D002019F
:100F7000140E8425DF6F1A0E8525E06FDFC2F1F2B3
:100F8000F26F010EF36F000146DC520E0201842560
:100F9000DF6F1A0E8525E06FDFC2F1F2F26FF36B9F
:100FA000000139DC600E02018425DF6F1A0E8525F1
:100FB000E06FDFC2F1F2F26FF36B00012CDC020193
:100FC000852B96D7842B90D7FCD10001410E0201CE
:100FD000866F530E876F540E886F450E896F520EC1
:100FE0008A6F4F0E8B6F490E8C6F440E8D6F530EB0
:100FF0008E6F8F6B260EDF6F040EE06F020EE26FB6
:10100000860EE16F010EE36FE46F00017FDD530E8A
:101010000201906F450E916F4C0E926F450E936FCB
:10102000430E946F540E956F200E966F260E976F99
:10103000200E986F480E996F4F0E9A6F4C0E9B6F53
:10104000440E9C6F3A0E9D6F200E9E6F5B0E9F6F3D
:101050004C0EA06F4A0EA16F5D0EA26FA36B0A0E1D
:10106000DF6F310EE06F020EE26F900EE16F010E46
:10107000E36FE46F00014ADD500E0201A46F520ECF
:10108000A56F450EA66F530EA76FA86F3A0EA96FF6
:10109000200EAA6F5B0EAB6F420EAC6F520EAD6F9F
:1010A0005D0EAE6FAF6B280EDF6F390EE06F020E74
:1010B000E26FA40EE16F010EE36FE46F000126DD25
:1010C0000201B06BB0510F0873E3B16BB1510F085F
:1010D0006DE3B151100DF350E06BDF6F036AB05157
:1010E000DF25016EE051032201501B0FE96E000E57
:1010F0000320EA6EEF2C2CD0140EB025DF6F1A0EF1
:10110000B125E06FDFC2F1F2F26F010EF36F000163
:101110000BEC04F0520E0201B025DF6F1A0EB12560
:10112000E06FDFC2F1F2F26FF36B00010BEC04F041
:10113000600E0201B025DF6F1A0EB125E06FDFC22D
:10114000F1F2F26FF36B00010BEC04F02CD0020112
:10115000140EB025DF6F1A0EB125E06FDFC2F1F279
:10116000F26FF36B00010BEC04F0520E0201B0259C
:10117000DF6F1A0EB125E06FDFC2F1F2F26F010EE0
:10118000F36F00010BEC04F0600E0201B025DF6F7D
:101190001A0EB125E06FDFC2F1F2F26F010EF36FAC
:1011A00000010BEC04F00201B12B90D7B02B8AD7D1
:1011B00008D10001020E0201B26FB2510C0810E317
:1011C000200EDF6FB2C2E0F2610EE16FB2C2E2F256
:1011D000010EE36F000181EC04F00201B22BEDD7A8
:1011E000410EB36F530EB46F540EB56F450EB66F0C
:1011F000520EB76F4F0EB86F490EB96F440EBA6FEB
:10120000530EBB6FBC6B260EDF6F040EE06F020E39
:10121000E26FB30EE16F010EE36FE46B000176DC69
:10122000530E0201BD6F450EBE6F4C0EBF6F450ED3
:10123000C06F430EC16F540EC26F200EC36F260ED7
:10124000C46F200EC56F480EC66F4F0EC76F4C0E91
:10125000C86F440EC96F3A0ECA6F200ECB6F5B0E7B
:10126000CC6F4C0ECD6F4A0ECE6F5D0ECF6FD06B34
:101270000A0EDF6F310EE06F020EE26FBD0EE16FFE
:10128000010EE36FE46F000141DC500E0201D16FEB
:10129000520ED26F450ED36F530ED46FD56F3A0EE8
:1012A000D66F200ED76F5B0ED86F420ED96F520EDD
:1012B000DA6F5D0EDB6FDC6B280EDF6F390EE06FCF
:1012C000020EE26FD10EE16F010EE36FE46F0001D9
:1012D0001DDC0201DD6BDD510F0873E3DE6BDE51B7
:1012E0000F086DE3DE51100DF350E06BDF6F036A02
:1012F000DD51DF25016EE051032201501B0FE96E25
:10130000000E0320EA6EEF2C2ED0140EDD25DF6FC9
:101310001A0EDE25E06FDFC2F1F2F26F010EF36FFD
:1013200000010BEC04F0520E0201DD25DF6F1A0EF6
:10133000DE25E06FDFC2F1F2F26F010EF36F000104
:101340000BEC04F0600E0201DD25DF6F1A0EDE25C6
:10135000E06FDFC2F1F2F26F010EF36F00010BECF0
:1013600004F02AD00201140EDD25DF6F1A0EDE25EF
:10137000E06FDFC2F1F2F26FF36B00010BEC04F0EF
:10138000520E0201DD25DF6F1A0EDE25E06FDFC28F
:10139000F1F2F26FF36B00010BEC04F0600E02014E
:1013A000DD25DF6F1A0EDE25E06FDFC2F1F2F26F8E
:1013B000F36B00010BEC04F00201DE2B90D7DD2B68
:1013C0008AD700011200520E02015A6F450E5B6F60
:1013D000540E5C6F550E5D6F520E5E6F4E0E5F6F5A
:1013E000606B500E616F4C0E626F410E636F590E51
:1013F000646F656B5953D8B4A3D01D0E666F6651E8
:10140000290810E3140EDF6F66C2E0F25A0EE16F96
:1014100066C2E2F2010EE36F000181EC04F002010A
:10142000662BEDD7180EDF6F1E0EE06F020EE26F17
:10143000610EE16F010EE36FE46B000186EC05F0D5
:101440002B0E0201676F675137080FE3140EDF6F31
:1014500067C2E0F25A0EE16F67C2E2F2E36B00018D
:1014600081EC04F00201672BEED7180EDF6F2C0E13
:10147000E06F020EE26F5A0EE16F010EE36FE46F50
:10148000000186EC05F0530E0201686F450E696F8E
:101490004C0E6A6F450E6B6F430E6C6F540E6D6F82
:1014A000200E6E6F260E6F6F200E706F480E716FDC
:1014B0004F0E726F4C0E736F440E746F3A0E756F51
:1014C000200E766F5B0E776F4C0E786F4A0E796F39
:1014D0005D0E7A6F7B6B0A0EDF6F050EE06F020EFA
:1014E000E26F680EE16F010EE36FE46F000186ECBE
:1014F00005F0500E02017C6F520E7D6F450E7E6F1F
:10150000530E7F6F806F3A0E816F200E826F5B0EDD
:10151000836F420E846F4C0E856F5D0E866F876BF6
:101520000A0EDF6F0D0EE06F020EE26F7C0EE16FB0
:10153000010EE36FE46F000186EC05F0A2D002011A
:101540001D0E886F885129080FE3140EDF6F88C2C3
:10155000E0F25A0EE16F88C2E2F2E36B000181EC27
:1015600004F00201882BEED7180EDF6F1E0EE06F1D
:10157000020EE26F610EE16F010EE36FE46F000196
:1015800086EC05F02B0E0201896F8951370810E3B4
:10159000140EDF6F89C2E0F25A0EE16F89C2E2F2E7
:1015A000010EE36F000181EC04F00201892BEDD7FD
:1015B000180EDF6F2C0EE06F020EE26F5A0EE16F15
:1015C000010EE36FE46B000186EC05F0530E02019F
:1015D0008A6F450E8B6F4C0E8C6F450E8D6F430ED0
:1015E0008E6F540E8F6F200E906F260E916F200E0F
:1015F000926F480E936F4F0E946F4C0E956F440E82
:10160000966F3A0E976F200E986F5B0E996F4C0E87
:101610009A6F4A0E9B6F5D0E9C6F9D6B0A0EDF6F7B
:10162000050EE06F020EE26F8A0EE16F010EE36FAE
:10163000E46F000186EC05F0500E02019E6F520E21
:101640009F6F450EA06F530EA16FA26F3A0EA36F4E
:10165000200EA46F5B0EA56F420EA66F4C0EA76FF7
:101660005D0EA86FA96B0A0EDF6F0D0EE06F020E04
:10167000E26F9E0EE16F010EE36FE46F000186ECF6
:1016800005F01200140E0201766F776F6C0E786F02
:101690002C0E796F000151EC05F0140E0201766FEB
:1016A0000A0E776F280E786F140E796F000151ECD7
:1016B00005F0440E0201766F0A0E776F6C0E786F9C
:1016C000140E796F000151EC05F0160E0201766FD1
:1016D000180E776F360E786F220E796F000151EC7D
:1016E00005F04A0E0201766F180E776F6A0E786F5A
:1016F000220E796F000151EC05F02D0E0201596F99
:101700005A6B160EDF6F0C0EE06F020EE26F590E71
:10171000E16F010EE36FE46F000186EC05F0530EFC
:1017200002015B6F480E5C6F4F0E5D6F5E6F540E73
:101730005F6F606B460EDF6F0C0EE06F020EE26FA4
:101740005B0EE16F010EE36FE46F000186EC05F0C4
:101750004D0E0201616F4F0E626F560E636F450EA4
:10176000646F656B180EDF6F1A0EE06F020EE26F8A
:10177000610EE16F010EE36FE46F000186EC05F08E
:10178000410E0201666F490E676F4D0E686F696BFF
:101790004C0EDF6F1A0EE06F020EE26F660EE16F05
:1017A000010EE36FE46F000186EC05F0460E0201C6
:1017B0006A6F6F0E6B6F720E6C6F200E6D6F500E36
:1017C0006E6F310E6F6F200E706F6F0E716F6E0E39
:1017D000726F6C0E736F790E746F756B140EDF6F12
:1017E000380EE06F020EE26F6A0EE16F010EE36FDA
:1017F000E46F000186EC05F05BEF18F0140E0201B7
:10180000766F776F6C0E786F2C0E796F000151EC4C
:1018100005F0140E0201766F0A0E776F3C0E786F9A
:10182000140E796F000151EC05F0580E0201766F2D
:101830000A0E776F6C0E786F140E796F000151EC01
:1018400005F0160E0201766F180E776F360E786F60
:10185000220E796F000151EC05F04A0E0201766FFD
:10186000180E776F6A0E786F220E796F000151ECB7
:1018700005F0530E0201596F480E5A6F4F0E5B6F01
:101880005C6F540E5D6F5E6B160EDF6F0C0EE06FBB
:10189000020EE26F590EE16F010EE36FE46F00017B
:1018A00086EC05F02D0E02015F6F606B5A0EDF6F44
:1018B0000C0EE06F020EE26F5F0EE16F010EE36F40
:1018C000E46F000186EC05F04D0E0201616F4F0ED2
:1018D000626F560E636F450E646F656B180EDF6F97
:1018E0001A0EE06F020EE26F610EE16F010EE36F00
:1018F000E46F000186EC05F0410E0201666F490EAF
:10190000676F4D0E686F696B4C0EDF6F1A0EE06FDC
:10191000020EE26F660EE16F010EE36FE46F0001ED
:1019200086EC05F0460E02016A6F6F0E6B6F720E49
:101930006C6F200E6D6F500E6E6F310E6F6F200E3C
:10194000706F260E716F200E726F500E736F320E15
:10195000746F756B140EDF6F380EE06F020EE26F5E
:101960006A0EE16F010EE36FE46F000186EC05F093
:101970009FEF18F002015B515D03F3CF01F0F4CF4C
:1019800000F05E03F35000265C515D03F35000202D
:10199000026E0001CDEF18F00201786B00012CEC13
:1019A00003F0500E0201596F720E5A6F650E5B6F95
:1019B000730E5C6F690E5D6F6F0E5E6F6E0E5F6F04
:1019C000610E606F200E616F700E626F610E636F4B
:1019D000720E646F610E656F200E666F720E676F18
:1019E000650E686F730E696F740E6A6F610E6B6FB0
:1019F000720E6C6F740E6D6F6E6BDF6BE06B020EB0
:101A0000E26F590EE16F010EE36FE46F000186ECA7
:101A100005F0E7EF18F08E0E006E90C201F08FC255
:101A200002F0036A015209E102C001F0026A080EE5
:101A3000005E015202E1006A08D0D89001BE04D0D5
:101A4000023601360006F9D7019E120002016151EB
:101A5000D8B4A5D06D6F6551D8B4A1D06D5F05E342
:101A60007F0E6D27D8B09BD006D0810E6D5FD8A0B9
:101A700096D0D8B494D06DC200F0016A026A036AAD
:101A80006C6B62C26BF26B8F63C26AF264C269F202
:101A9000190E6D6F6851695F0DE2010E6A5F0AE20F
:101AA0006B5F08E26C5F06E26C2B6B2B6A2B685154
:101AB000692728D067516A5F12E2010E6B5F0FE25F
:101AC0006C5F0DE26C2B6B2B67516A27685169279D
:101AD00019E36A2B17E16B2B15E16C2B13D06651C0
:101AE00080096B5F0EE2010E6C5F0BE26C2B66519E
:101AF00080096B2767516A27E9E36B2BE7E16C2BC1
:101B0000E5D703806D2F01D00BD0D89069376A37A5
:101B10006B376C37D8900336023601366E37BAD73A
:101B20006EA106D0D8900132023203326E3302D059
:101B3000000635E06EBF1ED0D89069376A376B3724
:101B40006C376851695F07E2010E6A5F04E26B5F00
:101B500002E26C5F1AE367516A5F05E2010E6B5F98
:101B600002E26C5F12E3665180096B5F03E2010ED3
:101B70006C5F0BE3032A09E1022A07E1012A05E170
:101B8000002A0DE001320232033262C26DF2665168
:101B90006D1B6DAF02D0018E06D0019E04D0006A8D
:101BA000016A026A036A000112008E0E006E0201D1
:101BB0008B51005E8CC202F08DC201F0028E005289
:101BC00009E0D890025202E1015204E002320132EF
:101BD000002EF7D78CAF05D0011E021E012AD8B403
:101BE000022A0001120002016A51016A695D03E2E2
:101BF00069C200F00CD0006A080E6B6F69370036BE
:101C00006A51005CD8B0006E01366B2FF7D7000127
:101C10001200800ED8A202D00201941B0201996B1F
:101C20009A6B90C298F29451981B8F51D8B4DFD020
:101C3000976F006E9351D8B4E3D0975FD8B483D038
:101C40003EE394C29DF29D8F95C29CF296C29BF298
:101C50009A6BD8909D339C339B339A33972FF8D748
:101C600098AF03D09981E0D0999197919989020E0C
:101C7000EA6E920EE96EEBD0999998BF0AD097A1BF
:101C800013D09D339C339B339A33002AD8B4C7D0EA
:101C90000BD09DBF0CD0D8909A379B379C379D377F
:101CA0000006D8B4BCD0F5D7998D6DD0999D90C25F
:101CB00098F290AF02D09D8FABD09D9FA9D093C2D8
:101CC00097F293C200F08F51975F90C29DF29D8F63
:101CD00091C29CF292C29BF29A6BD8909D339C3336
:101CE0009B339A33972FF8D798AF03D099839CD022
:101CF00099939791998B020EEA6E960EE96EA7D092
:101D0000999B98BF0AD097A113D09D339C339B33E6
:101D10009A33002AD8B483D00BD09DBF0CD0D89072
:101D20009A379B379C379D370006D8B478D0F5D7C3
:101D3000998F29D0999F94C298F294AF02D09D8F29
:101D400067D09D9F65D094C29DF29D8F95C29CF2F5
:101D500096C29BF298AF04D09D9F998565D09995C6
:101D60009A6B9791020EEA6E920EE96E70D098BF50
:101D70001CD090C298F297A106D09D339C339B3320
:101D80009A33002A4CE09AAF0BD09B2B09E19C2B95
:101D900007E19D2B05E19D339C339B33002A3FE0F7
:101DA00099BD84D799BFC6D71CD0800E9D1B9DAF0F
:101DB00004D03AD094C298F20AD090C298F29D53BF
:101DC00006E19C5304E19B5302E1006A21D09DBFD0
:101DD00008D0D8909A379B379C379D37002EF7D77D
:101DE0001ED098AF02D09D8F13D09D9F11D093C26B
:101DF00000F094C29DF295C29CF296C29BF208D06C
:101E00008FC200F090C29DF291C29CF292C29BF2EE
:101E10009DC201F09CC202F09BC203F034D0006A64
:101E2000016A026A036A2FD09A6B9B1F9C1F9D1F39
:101E30009A1F9A2B05E19B2B03E19C2B01E19D2B23
:101E400099B112D799B354D799B589D7B3D7EF5071
:101E50009B2705E39C2B03E19D2BD8B49781ED5282
:101E6000EF509C2703E39D2BD8B49781ED52EF50A0
:101E7000EFBE01D0800A9D27D8B0978199B9FCD6D2
:101E800099BB3ED774D70001120002015951B9081D
:101E900014E2870E006E070E016E026A036A56D0C6
:101EA000850E006E340E016E026A036A4FD0006A1E
:101EB000016A026A036A4AD018D05951450815E3ED
:101EC000850E006E340E016E026A036A3FD0870EE3
:101ED000006E070E016E026A036A38D0860E006E2D
:101EE000340E016E026A036A31D05A51B90814E205
:101EF000006A016A026A036A29D0860E006E340EF7
:101F0000016E026A036A22D0850E006E340E016EE5
:101F1000026A036A1BD016D05A51450813E3860E95
:101F2000006E340E016E026A036A10D0006A016A04
:101F3000026A036A0BD0870E006E070E016E026AFA
:101F4000036A04D0006A016A026A036A000194EF1E
:101F500019F002018F51D8B471D0006E9351D8B4EA
:101F60006DD0002604E3810E002668E204D07F0EC7
:101F7000005E64E363E090C297F29451971B908FE8
:101F8000948F92519603F4CF99F291519503F4CF27
:101F900003F0F3CF98F29603F3509927F450982367
:101FA000000E032292519503F3509927F450982381
:101FB000000E026A0322022290519603F3509827E2
:101FC000F4500322000E022290519503F350032691
:101FD000F4500222000E016A012292519403F35040
:101FE0009827F4500322000E0222012291519403FB
:101FF000F3500326F4500222000E01229051940364
:10200000F3500226F4500122002A01BE05D0983771
:102010000336023601360006000E98AF0AD0032AB6
:1020200002220122015005E1025003E1035001E1C7
:10203000002A97BF018E97AF019E04D0006A016A03
:10204000026A036A000112000201906B12C28FF251
:102050000001E1DC03C05CF202C05BF201C05AF295
:1020600000C059F2D88203C092F202C091F201C0BE
:1020700090F200C08FF20201966B956B7E0E946F0A
:10208000850E936F0001C5DD03C05CF202C05BF2F8
:1020900001C05AF200C059F203C064F202C063F2F8
:1020A00001C062F200C061F20201686B676B700EE2
:1020B000666F830E656F0001C9DCD4EF19F0020171
:1020C000906B13C28FF20001A6DC03C05CF202C069
:1020D0005BF201C05AF200C059F2D88203C092F2FA
:1020E00002C091F201C090F200C08FF20201966B23
:1020F000956B7E0E946F850E936F00018ADD03C091
:102100005CF202C05BF201C05AF200C059F203C097
:1021100064F202C063F201C062F200C061F2020127
:10212000686B676B700E666F830E656F00018EDCE7
:10213000DEEF19F08CC293F202019051931B93AF22
:1021400005D0D894D8908CBFD8802FD08CC293F271
:102150008FC294F28B51945F06E093AF26D0D85093
:10216000010AD86E22D090C294F28C51945F06E09E
:1021700093AF1BD0D850010AD86E17D091C294F2F9
:102180008D51945F06E093AF10D0D850010AD86EFD
:102190000CD092C294F28E51945F06E093AF05D0BA
:1021A000D850010AD86E01D0D89000011200020167
:1021B0005951070B006E5931016E013201321F0E69
:1021C000011601505B25E96E000E5C21EA6E016A82
:1021D000012A002A01D00136002EFDD75A5303E010
:1021E0000150EF1203D0011E0150EF160001120042
:1021F0000201706B6F6B6E6B7F0E6D6F7E0E776F73
:10220000800E786F796B7A6B7A0E7B6F2A0E7C6FFB
:10221000AA0E7D6FA30E7E6F750E7F6FB60E806F58
:10222000090E816FB40E826F6F0E836F4F0E846F35
:10223000B60E856FAA0E866F690E876F8B0E886F3C
:10224000F60E896FE80E8A6F64C28EF263C28DF259
:1022500062C28CF261C28BF2926B916B906B8F6B4E
:10226000000168DF05E302016251800A626F00012C
:1022700064C292F263C291F262C290F261C28FF2C2
:10228000830E0201966FF90E956F220E946F7E0EEB
:10229000936F00015EDE03C08EF202C08DF201C0BA
:1022A0008CF200C08BF281DC01C071F264C292F248
:1022B00063C291F262C290F261C28FF2830E020198
:1022C000966FF90E956F220E946F7E0E936F00013C
:1022D00040DE03C08EF202C08DF201C08CF200C05D
:1022E0008BF20201906B71C28FF200010BEC0DF0CA
:1022F000D8828EC292F28DC291F28CC290F28BC2C1
:102300008FF203C096F202C095F201C094F200C0B1
:1023100093F27FDC03C076F202C075F201C074F262
:1023200000C073F2030E02017117715303E0715183
:1023300002081CE176C292F275C291F274C290F268
:1023400073C28FF2DB0E966F0F0E956F490E946F6E
:102350007F0E936F0001FDDD03C06CF202C06BF2D3
:1023600001C06AF200C069F26BD00201712D35D054
:10237000D882926B916B906B7F0E8F6F76C296F2C4
:1023800075C295F274C294F273C293F2000141DCFB
:1023900003C08EF202C08DF201C08CF200C08BF23D
:1023A00003C092F202C091F201C090F200C08FF21D
:1023B000DB0E0201966F0F0E956F490E946F7F0E24
:1023C000936F0001C6DD03C06CF202C06BF201C066
:1023D0006AF200C069F234D00201D88276C292F269
:1023E00075C291F274C290F273C28FF2966B956BC4
:1023F000946B7F0E936F00010CDC03C08EF202C061
:102400008DF201C08CF200C08BF203C092F202C0C8
:1024100091F201C090F200C08FF2DB0E0201966FC4
:102420000F0E956F490E946F7F0E936F000191DD33
:1024300003C06CF202C06BF201C06AF200C069F224
:102440000201686B676B666B7F0E656F6CC292F200
:102450006BC291F26AC290F269C28FF26CC296F2BC
:102460006BC295F26AC294F269C293F2000171DD07
:1024700003C06CF202C06BF201C06AF200C069F2E4
:102480000201726B725104085CE370C292F26FC277
:1024900091F26EC290F26DC28FF26CC296F26BC274
:1024A00095F26AC294F269C293F2000152DD03C050
:1024B00070F202C06FF201C06EF200C06DF2020154
:1024C0007251040DF350036A770FE96E020E032078
:1024D000EA6EEFCF8FF2ECCF90F2ECCF91F2ECCF2F
:1024E00092F270C296F26FC295F26EC294F26DC211
:1024F00093F200012EDDEACF8CF2E9CF8BF2D89275
:1025000068C292F267C291F266C290F265C28FF21F
:1025100003C096F202C095F201C094F200C093F29B
:1025200009EC0EF08CC2EAFF8BC2E9FF03C068F22F
:1025300002C067F201C066F200C065F20201722BB0
:10254000A1D77151020802E0712D03D06651800AB3
:10255000666F65C200F066C201F067C202F068C231
:1025600003F000011200D8825CC292F25BC291F2C9
:102570005AC290F259C28FF2DB0E0201966F0F0E13
:10258000956F490E946F7F0E936F000109EC0EF06A
:1025900003C060F202C05FF201C05EF200C05DF2F3
:1025A00003C064F202C063F201C062F200C061F2D3
:1025B0001FDE60EF1EF002015951070B006E59310A
:1025C000016E013201321F0E011601505A25E96ECB
:1025D000000E5B21EA6EEFCF01F0002A01D001323C
:1025E000002EFDD7010E01160001120002015E51FE
:1025F000080DF3505C25606F5E51080DF3505D25AA
:10260000616F60517F08D8B0CCD05CC2DFF25DC290
:10261000E0F27F0EE16F5DC2E2F25FC2E3F2000121
:1026200081EC04F07F0E0201605D626FDF6B5DC2C2
:10263000E0F2E16F5DC2E2F25FC2E3F2000181EC21
:1026400004F0020161513F086FE23F0E615D626F6D
:102650003F0E615D636F5CC2DFF262C2E0F27F0E2B
:10266000E16F63C2E2F25FC2E3F2000181EC04F0C9
:102670003F0E0201615D626F7F0E605D636F3F0E12
:10268000615D646FDF6B62C2E0F263C2E1F2E26F30
:102690005FC2E3F2000181EC04F05CC2DFF25DC2D4
:1026A000E0F25CC2E1F23F0E0201E26F5FC2E3F2D0
:1026B000000181EC04F03F0E0201615D626F5CC2BB
:1026C000DFF2E06B5CC2E1F2E26F5FC2E3F20001B5
:1026D00081EC04F07F0E0201605D626F7F0E605D31
:1026E000636F62C2DFF25DC2E0F2E16F3F0EE26F44
:1026F0005FC2E3F2000181EC04F07F0E0201605D35
:10270000626F7F0E605D636F3F0E615D646F62C2DA
:10271000DFF2E06B63C2E1F2E26F5FC2E3F200015D
:1027200081EC04F03CD002015CC2DFF261C2E0F255
:102730007F0EE16F61C2E2F25FC2E3F2000181EC61
:1027400004F07F0E0201605D626FDF6B61C2E0F238
:10275000E16F61C2E2F25FC2E3F2000181EC04F0DA
:102760005CC2DFF25DC2E0F25CC2E1F261C2E2F2A1
:102770005FC2E3F281EC04F07F0E0201605D626FE4
:102780007F0E605D636F62C2DFF25DC2E0F2E16FF7
:1027900061C2E2F25FC2E3F2000181EC04F085D095
:1027A00002015CC2DFF25DC2E0F260C2E1F25DC232
:1027B000E2F25FC2E3F2000181EC04F00201615138
:1027C0003F084EE23F0E615D626F3F0E615D636FD9
:1027D0005CC2DFF262C2E0F260C2E1F2E26F5FC2AD
:1027E000E3F2000181EC04F05CC2DFF25DC2E0F2D2
:1027F0005CC2E1F23F0E0201E26F5FC2E3F2000150
:1028000081EC04F03F0E0201615D626F5CC2DFF299
:10281000E06B5CC2E1F2E26F5FC2E3F2000181ECC7
:1028200004F060C2DFF25DC2E0F260C2E1F23F0E8E
:102830000201E26F5FC2E3F2000181EC04F03F0E9F
:102840000201615D626F60C2DFF2E06B60C2E1F2C3
:10285000E26F5FC2E3F2000181EC04F026D00201D6
:102860005CC2DFF261C2E0F260C2E1F261C2E2F298
:102870005FC2E3F2000181EC04F05CC2DFF25DC2F2
:10288000E0F25CC2E1F261C2E2F25FC2E3F281EC2B
:1028900004F060C2DFF25DC2E0F260C2E1F261C248
:1028A000E2F25FC2E3F281EC04F012001BC2EAFF25
:1028B0001AC2E9FF020170C2EFFFE92AD8B4EA2A7E
:1028C000EF6A1A2BD8B41B2B00011200EACF6FF26B
:1028D000E9CF6EF202016839F0096A6F6A27E20FE8
:1028E0006B6F320F6D6F68510F0B6B276B276D2766
:1028F000E90F6C6F6C276C2767390F0B6C276D27FE
:102900006C376D376D1F6D3767510F0B6D276A3749
:10291000070E696F0A0E6C076D27FDE36B076C27C6
:10292000FDE36A076B27FDE369076A27FDE3020EF3
:10293000EA6E690EE96E070E6E156E9DE926000EB1
:10294000EA22E9506D0804E1EA50020801E16E8DC7
:10295000EF50006E08E16EBD06D06EB915D06EB7AF
:1029600002D0200E03D06E876E99300E0026EACF7B
:1029700068F2E9CF67F200C070F2000197DF68C229
:10298000EAFF67C2E9FF0201EE506EADDAD700013F
:1029900020EF15F0015067C269F2640E02016A6F00
:1029A0000001F3EC0DF000C067F20150300E08E1B9
:1029B000020168A30FD068B70DD068B9200E04D00B
:1029C0000201689768996881012601C070F20001D0
:1029D0006DDF020167C269F20A0E6A6F0001F3EC53
:1029E0000DF000C067F20150300E08E1020168B737
:1029F0000AD068A108D068B9200E0001012601C0E4
:102A000070F254DF0201300E672767C270F20001D6
:102A10004DDF43EF15F0020E02011B6F5D0E1A6FC2
:102A2000530E706F000142DF3A0E0201706F000119
:102A30003DDF100EE96E5AC268F259C267F246D7FE
:102A40000201DF6BE06B020EE26F5D0EE16F010EC3
:102A5000E36F5CC2E4F2000186EC05F0020E0201B5
:102A60001B6F630E1A6F4C0E706F00011FDF3A0E62
:102A70000201706F00011ADF5BC267F21B0E0201D8
:102A8000686F000187D7670E0201DF6FE06B020EEF
:102A9000E26F630EE16F010EE36F5CC2E4F20001CE
:102AA00086EC05F012000201906B59C28FF2000112
:102AB0000BEC0DF003C05DF202C05CF201C05BF2F2
:102AC00000C05AF2D88203C092F202C091F201C053
:102AD00090F200C08FF20201966B956B7E0E946FA0
:102AE000850E936F000109EC0EF003C05DF202C089
:102AF0005CF201C05BF200C05AF203C064F202C093
:102B000063F201C062F200C061F20201686B676BA0
:102B1000700E666F830E656F000126EC0DF01200DB
:102B200002015951B90804E2020E016E16D006D016
:102B30005951450803E3040E016E0FD05A51B908EC
:102B400004E2010E016E09D006D05A51450803E394
:102B5000030E016E02D0000E016E00011200020190
:102B600059533DE0010E786F00012CEC03F0500E3C
:102B700002015A6F4C0E5B6F410E5C6F590E5D6F18
:102B8000450E5E6F520E5F6F200E606F310E616FEB
:102B9000200E626F570E636F490E646F4E0E656FA5
:102BA000530E666F210E676F686B1D0EDF6F160E7A
:102BB000E06F020EE26F5A0EE16F010EE36FE46BFD
:102BC000000186EC05F0020E0201786FFA0E796FB3
:102BD0000001F6EC02F00201782FF8D73CD0010E8C
:102BE000786F00012CEC03F0500E0201696F4C0E5F
:102BF0006A6F410E6B6F590E6C6F450E6D6F520E02
:102C00006E6F200E6F6F320E706F200E716F570E49
:102C1000726F490E736F4E0E746F530E756F210EE7
:102C2000766F776B1D0EDF6F160EE06F020EE26F90
:102C3000690EE16F010EE36FE46B000186EC05F0B5
:102C4000020E0201786FFA0E796F0001F6EC02F0C5
:102C50000201782FF8D700011200020E0201595D1F
:102C60005C6F020E5A255D6F020E59255E6F020ED3
:102C70005A255F6F5CC2DFF25DC2E0F25EC2E1F234
:102C8000E26F5BC2E3F2000181EC04F0020E02018C
:102C9000595D5C6F020E5A5D5D6F020E59255E6FC5
:102CA000020E5A5D5F6F5CC2DFF25DC2E0F25EC28F
:102CB000E1F2E26F5BC2E3F2000181EC04F0020E8C
:102CC0000201595D5C6F020E5A255D6F020E595D5F
:102CD0005E6F020E5A5D5F6F5CC2DFF25DC2E0F2B2
:102CE0005EC2E1F2E26F5BC2E3F2000181EC04F04C
:102CF000020E020159255C6F020E5A255D6F020E0D
:102D000059255E6F020E5A5D5F6F5CC2DFF25DC2D5
:102D1000E0F25EC2E1F2E26F5BC2E3F2000181EC3D
:102D200004F01200F86AD09E078EB886080EAF6EC7
:102D3000020EB06EA60EAC6E900EAB6E01011E6B55
:102D40001D6B1C6B1B6B226B216B206B1F6B400E72
:102D5000256F200E266F2A6B296B286B276B2E6B35
:102D60002D6B2C6B2B6B326B316B306B2F6B366B8F
:102D7000356B346B336B400E396F200E3A6F3E6B00
:102D80003D6B3C6B3B6B426B416B406B3F6B4381DC
:102D9000140E446F456B4383466F476B4B6B4A6B16
:102DA000496B486B4F6B4E6B4D6B4C6B400E526FCB
:102DB000200E536F576B566B556B546B5B6B5A6B96
:102DC000596B586B4395676B666B656B646B6B6B8C
:102DD0006A6B696B686B4397776B766B756B746B1B
:102DE0007B6B7A6B796B786B4399439B876B866BB4
:102DF000856B846B8B6B8A6B896B886B439D02013F
:102E0000046B056B0101438F0201076B066B096BB5
:102E1000086B0B6B0A0E0A6F0C6F690E0E6F740E47
:102E20000F6F10811093116B7D0E126F136F146F63
:102E3000156F10951097166F176F186F196F1099FF
:102E4000109B1B6B1A6BC150C00B0F09C16E070E94
:102E5000B46E020E1A6EFA0E196E050EFB6F020E9C
:102E6000FA6FFD6BFC6B000148D016401B0004C0DC
:102E7000010BC00006C00109C00008C00108C00065
:102E800008C00109C00006C0010BC00004C0011A3F
:102E9000C0000280010104C0000280010107C000DF
:102EA00004C0010280000004C00106C0000AC00185
:102EB00005C0000CC00104C0000CC001038000006C
:102EC000000EC001028000000EC00111C0002801E8
:102ED000DCFE01FD03FE03FF02FD03FE02FF02FF15
:102EE00002FE03FEFF02FFFE03FE02FF01FE03FFE0
:102EF00003FEFF02FDFD03FE0100000EF86E2E0E24
:102F0000F76E6A0EF66E0900F550006E000A13E0C7
:102F10000900F550016EE8BE05D03F0BEA6E0900CE
:102F2000F550E96E01BC090001AC0900F550EE6EE8
:102F3000004EE9D7F9D7F86AC00EF2129D8A640EE6
:102F40000201796F0001F6EC02F0010E0201596FE7
:102F500000016FEF03F00201786B00012CEC03F02D
:102F600002011C6B1D6B1E6B1F6B20912093209523
:102F7000366B376B386B396B209700013EEF06F0EC
:102F8000140E0201596FFA0E796F0001F6EC02F08F
:102F90000201592FF8D7010E596F0001EFEC06F02E
:102FA00002010E51690A00010EE01A0A56E01E0ADB
:102FB000D8B496D0070AD8B4D7D0200AD8B42FEF07
:102FC00021F07AEF26F0020113517D0802E21C6B1A
:102FD00008D012517D0803E2020E1C6F02D0010ED0
:102FE0001C6F1D511C5D09E0786B00012CEC03F097
:102FF0001CC259F2EFEC06F0020110A729D01C51B7
:10300000010A000103E0030A0FE01CD0730E020165
:103010000E6F786B00012CEC03F0010E0201596F6A
:103020000001E3EC09F013D06D0E02010E6F786B16
:1030300000012CEC03F0010E0201596F0001E3ECDA
:1030400009F005D0690E02010E6F20870001020110
:103050001CC21DF27BEF26F00001020113517C0817
:1030600003E2010E1E6F01D01E6B1F511E5D09E0B1
:10307000786B00012CEC03F01EC259F2E3EC09F06E
:10308000020110A528D01E51000A000103E0010A28
:1030900009E020D0690E02010E6F786B00012CEC64
:1030A00003F018D06A0E02010E6F786B00012CEC51
:1030B00003F042EF0BF00C0E0201596FFA0E796F1C
:1030C0000001F6EC02F00201592FF8D7786B0001ED
:1030D0002CEC03F002011EC21FF27BEF26F0000170
:1030E000020113517C0803E2010E1E6F01D01E6B1A
:1030F0001F511E5D09E0786B00012CEC03F01EC22D
:1031000059F2E3EC09F0020110A529D01E51000A82
:10311000000103E0010A09E021D0690E02010E6FEF
:10312000786B00012CEC03F019D04A0E02010E6FEF
:103130002087786B00012CEC03F0FEEF0BF00C0EF7
:103140000201596FFA0E796F0001F6EC02F00201EC
:10315000592FF8D7786B00012CEC03F002011EC246
:103160001FF27BEF26F00001010143AFD6D0439F51
:1031700002013A6B3A51130825E3036A3A51220FD0
:10318000E96E020E0320EA6E5C6B04C25BF25E6BBA
:10319000140E5D6F0001BAEF0CF002C05CF201C0CA
:1031A0005BF202013A510124016E000E0220036E0F
:1031B000015003C0F7FF000155EC01F0EF6E020172
:1031C0003A2BD8D7045309E10001CCEF0CF03F0EA5
:1031D0000101526F1F0E536F0201042B3B6B3B51D9
:1031E0001308D8A093D0036A3B51B40FE96E010EC7
:1031F0000320EA6E906B3BC28FF200010BEC0DF0E6
:1032000003C05EF202C05DF201C05CF200C05BF27E
:1032100003C064F202C063F201C062F200C061F256
:103220000201686B676B666B800E656F000126ECB0
:103230000DF003C08EF202C08DF201C08CF200C00E
:103240008BF2D5EC0DF001C069F20A0E02016A6F33
:103250000001F3EC0DF000C0EFFF036A02013B51E7
:10326000B40FE96E010E0320EA6E906B3BC28FF241
:1032700000010BEC0DF0EACF5CF2E9CF5BF2D882F3
:103280000201926B916B200E906F830E8F6F03C0C3
:1032900096F202C095F201C094F200C093F20001D0
:1032A00009EC0EF05CC2EAFF5BC2E9FF03C060F20A
:1032B00002C05FF201C05EF200C05DF203C064F2C2
:1032C00002C063F201C062F200C061F20201686BE9
:1032D000676B666B800E656F000126EC0DF003C016
:1032E0008EF202C08DF201C08CF200C08BF2D5ECE0
:1032F0000DF001C069F20A0E02016A6F0001F3ECE1
:103300000DF000C0EFFF02013B2B69D7786B000185
:103310002CEC03F02BEF21F0010114C259F215C27D
:103320005AF2000145EF0FF003C05CF202C05BF2FD
:1033300001C05AF200C059F203C092F202C091F2E9
:1033400001C090F200C08FF2F90E0201966F0F0ECD
:10335000956F490E946F800E936F0001A9EC0FF0EA
:1033600003C05CF202C05BF201C05AF200C059F225
:1033700003C064F202C063F201C062F200C061F2F5
:103380000201686B676B340E666F860E656F000115
:1033900026EC0DF003C04FF102C04EF101C04DF11B
:1033A00000C04CF124EF10F003C057F102C056F1F9
:1033B00001C055F100C054F15FEF10F003C05BF1A4
:1033C00002C05AF101C059F100C058F10201906BDE
:1033D00052C18FF200010BEC0DF003C05CF202C091
:1033E0005BF201C05AF200C059F2D89203C092F2C7
:1033F00002C091F201C090F200C08FF257C196F264
:1034000056C195F255C194F254C193F209EC0EF0F5
:1034100003C05CF202C05BF201C05AF200C059F274
:1034200003C08EF202C08DF201C08CF200C08BF29C
:103430000201926B916B906B8F6B00019AEC10F014
:1034400032E30201906B52C18FF200010BEC0DF0E0
:1034500003C05CF202C05BF201C05AF200C059F234
:10346000D89203C092F202C091F201C090F200C063
:103470008FF257C196F256C195F255C194F254C1DC
:1034800093F209EC0EF003C08EF202C08DF201C07F
:103490008CF200C08BF2D5EC0DF07F0E01240101FF
:1034A000526F19D0000157C18EF256C18DF255C12D
:1034B0008CF254C18BF2D5EC0DF001500101522574
:1034C00002015A6F696F7F0E6A6F0001F3EC0DF015
:1034D00000C052F101010201906B53C18FF2000153
:1034E0000BEC0DF003C05CF202C05BF201C05AF2BB
:1034F00000C059F2D88203C092F202C091F201C01A
:1035000090F200C08FF25BC196F25AC195F259C198
:1035100094F258C193F209EC0EF003C05CF202C0C1
:103520005BF201C05AF200C059F203C08EF202C031
:103530008DF201C08CF200C08BF20201926B916B94
:10354000906B8F6B00019AEC10F032E30201906BEC
:1035500053C18FF200010BEC0DF003C05CF202C00E
:103560005BF201C05AF200C059F2D88203C092F255
:1035700002C091F201C090F200C08FF25BC196F2DE
:103580005AC195F259C194F258C193F209EC0EF068
:1035900003C08EF202C08DF201C08CF200C08BF22B
:1035A000D5EC0DF03F0E01240101536F19D000013D
:1035B0005BC18EF25AC18DF259C18CF258C18BF2A7
:1035C000D5EC0DF001500101535D02015A6F696F96
:1035D0003F0E6A6F0001F3EC0DF000C053F10101E2
:1035E00002013C6B3C511308D8A01CD1036A3C512A
:1035F000B40FE96E010E0320EA6EEFCF59F2036AB1
:103600003C51DC0FE96E010E0320EA6EEF505925A4
:10361000006EE8AE24D0036A3C51B40F016E010E77
:10362000032201C059F203C05AF2036A3C51B40F9D
:10363000E96E010E0320EA6EEFCF5BF2036A3C51A4
:10364000DC0FE96E010E0320EA6EEF505B257F0F61
:103650005B6F5AC2EAFF01C0E9FFEF6E54D0036A04
:103660003C51B40FE96E010E0320EA6EEFCF59F220
:10367000036A3C51DC0FE96E010E0320EA6EEF5045
:1036800059257F0824E2036A3C51B40F016E010EF4
:10369000032201C059F203C05AF2036A3C51B40F2D
:1036A000E96E010E0320EA6EEFCF5BF2036A3C5134
:1036B000DC0FE96E010E0320EA6EEF505B25810FEF
:1036C0005B6F5AC2EAFF01C0E9FFEF6E1CD0036ACC
:1036D0003C51B40F016E010E032203C05AF203C025
:1036E000EAFF01C0E9FFEFCF5BF2036A3C51DC0F58
:1036F000E96E010E0320EA6EEF505B255AC2EAFF25
:1037000001C0E9FFEF6E036A3C51C80FE96E010E7C
:103710000320EA6EEFCF59F2036A3C51F00FE96ED5
:10372000010E0320EA6EEF505925006EE8AE24D05A
:10373000036A3C51C80F016E010E032201C059F209
:1037400003C05AF2036A3C51C80FE96E010E032010
:10375000EA6EEFCF5BF2036A3C51F00FE96E010EA7
:103760000320EA6EEF505B253F0F5B6F5AC2EAFF02
:1037700001C0E9FFEF6E54D0036A3C51C80FE96EF7
:10378000010E0320EA6EEFCF59F2036A3C51F00FAD
:10379000E96E010E0320EA6EEF5059253F0824E23E
:1037A000036A3C51C80F016E010E032201C059F299
:1037B00003C05AF2036A3C51C80FE96E010E0320A0
:1037C000EA6EEFCF5BF2036A3C51F00FE96E010E37
:1037D0000320EA6EEF505B25C10F5B6F5AC2EAFF10
:1037E00001C0E9FFEF6E1CD0036A3C51C80F016EA7
:1037F000010E032203C05AF203C0EAFF01C0E9FF31
:10380000EFCF5BF2036A3C51F00FE96E010E03202B
:10381000EA6EEF505B255AC2EAFF01C0E9FFEF6E86
:103820003C2BE0D63D6B3D511308D8A0AFD0036AC6
:103830003D51220FE96E020E0320EA6EEF52D8B41A
:10384000A1D0036A3D51B40FE96E010E0320EA6E68
:10385000EF500101525DD8B496D0D8A094D0036A3D
:1038600002013D51B40FE96E010E0320EA6EEFCF65
:1038700059F2036A3D51220FE96E020E0320EA6EEF
:10388000EF50080DF35059250101525DD8B07BD09F
:10389000036A02013D51C80FE96E010E0320EA6E72
:1038A000EF500101535D6FE06EE3036A02013D5189
:1038B000C80FE96E010E0320EA6EEFCF59F2036ADA
:1038C0003D51220FE96E020E0320EA6EEF50080D03
:1038D000F35059250101535D56E2690E02010E6F46
:1038E0000101438F010E0201786F00012CEC03F0FF
:1038F000590E02013E6F4F0E3F6F550E406F200E66
:10390000416F4C0E426F4F0E436F530E446F450E86
:10391000456F210E466F476B1D0EDF6F160EE06F71
:10392000020EE26F3E0EE16F010EE36FE46B0001E9
:1039300086EC05F0040E0201596FFA0E796F000152
:10394000F6EC02F00201592FF8D7786B00012CEC4D
:1039500003F00201596B0001EFEC06F0020109517E
:10396000075D08E303E10651085D04E207C209F2BE
:1039700006C208F20451055D02E204C205F2076BBB
:10398000066B046B010102013D2B4DD7010143A5DC
:103990005BD167C18EF266C18DF265C18CF264C1E4
:1039A0008BF20001D5EC0DF0036A0150E8BE03066E
:1039B00001016027035061236BC18EF26AC18DF251
:1039C00069C18CF268C18BF20001D5EC0DF0036A7D
:1039D0000150E8BE03060101622703506323020180
:1039E000486B48511308D8A0DCD0036A4851220F15
:1039F000E96E020E0320EA6EEF52D8B4CED0036A0D
:103A00004851B40FE96E010E0320EA6EEF50010138
:103A100061BF4ED0615303E1605D4AE049E3036A50
:103A200002014851B40FE96E010E0320EA6EEFCF98
:103A300059F2036A4851220FE96E020E0320EA6E22
:103A4000EF50080DF3505925010161BF04D06153B7
:103A50002FE1605D2DE2036A02014851C80FE96E53
:103A6000010E0320EA6EEF50010163BF21D06353C2
:103A700003E1625D1DE01CE3036A02014851C80FC7
:103A8000E96E010E0320EA6EEFCF59F2036A485146
:103A9000220FE96E020E0320EA6EEF50080DF3507C
:103AA0005925010163BF56D0635302E1625D52E3C1
:103AB000036A02014851B40FE96E010E0320EA6E59
:103AC000EF5001015EBF6AD05E5D68E067E3036AA4
:103AD00002014851B40FE96E010E0320EA6EEFCFE8
:103AE00059F2036A4851220FE96E020E0320EA6E72
:103AF000EF50080DF350592501015EBF02D05E5D05
:103B00004DE2036A02014851C80FE96E010E03201D
:103B1000EA6EEF5001015FBF41D05F5D3FE03EE3E1
:103B2000036A02014851C80FE96E010E0320EA6ED4
:103B3000EFCF59F2036A4851220FE96E020E0320BB
:103B4000EA6EEF50080DF350592501015FBF02D016
:103B50005F5D24E2036A02014851220FE96E020E02
:103B60000320EA6EEF50FF0A050F0627000E072319
:103B7000036A4851220FE96E020E0320EA6EEF0637
:103B800048C259F2010E5A6F020E5C6F360E5B6F1F
:103B90000001D7EC10F00201208501010201482B41
:103BA00020D75CC1DFF25DC1E0F25EC1E1F25FC12E
:103BB000E2F2E36B000181EC04F05EC1DFF25FC171
:103BC000E0F260C1E1F262C1E2F2010E0201E36FD4
:103BD000000181EC04F0020120B524D0010161BF95
:103BE00005D061530EE160517F080BE361BF09D03E
:103BF00063BF05D0635305E162513F0802E363AF41
:103C00000FD043955EC1DFF25FC1E0F260C1E1F227
:103C100062C1E2F20201E36B000181EC04F00101F8
:103C200012D002012095010143955EC1DFF25FC110
:103C3000E0F260C1E1F262C1E2F20201E36B000175
:103C400081EC04F0010169D0020110A765D00101E7
:103C500043854FC164F24EC163F24DC162F24CC163
:103C600061F20001F8EC10F003C05CF202C05BF2FC
:103C700001C05AF200C059F203C092F202C091F2A0
:103C800001C090F200C08FF20201966B956B400E5E
:103C9000946F810E936F0001A9EC0FF003C067F1E0
:103CA00002C066F101C065F100C064F14FC15CF271
:103CB0004EC15BF24DC15AF24CC159F2B3EF12F052
:103CC00003C05CF202C05BF201C05AF200C059F2BC
:103CD00003C092F202C091F201C090F200C08FF2D4
:103CE0000201966B956B400E946F810E936F0001ED
:103CF000A9EC0FF003C06BF102C06AF101C069F1D9
:103D000000C068F1010152C160F1616B53C162F101
:103D1000636B020E0201216F01010201496B4951DF
:103D20001308D8A0EFD0036A4951220FE96E020EA2
:103D30000320EA6EEF52D8B47CD049C259F2020E89
:103D40005B6F360E5A6F0001DBEC12F001A02ED033
:103D5000036A020149518C0FE96E010E0320EA6EDD
:103D6000EFCF5CF2036A4951A00FE96E010E032008
:103D7000EA6EEFCF5DF2036A4951220FE96E020E3F
:103D80000320EA6E010EEF245B6F5E6F5F6B000134
:103D9000F6EC12F049C259F202015A6B020E5C6F46
:103DA000360E5B6F0001D7EC10F020D0036A0201E1
:103DB00049518C0FE96E010E0320EA6EEFCF5CF2E1
:103DC000036A4951A00FE96E010E0320EA6EEFCF9E
:103DD0005DF2036A4951220FE96E020E0320EA6E7A
:103DE000EFCF5EF25F6B0001F6EC12F0036A0201A6
:103DF0004951B40FE96E010E0320EA6EEFCF5CF279
:103E0000036A4951C80FE96E010E0320EA6EEFCF35
:103E10005DF2036A4951220FE96E020E0320EA6E39
:103E2000EFCF5EF2010E5F6F0001F6EC12F039D0B9
:103E3000020149C259F2020E5B6F360E5A6F000141
:103E4000DBEC12F001A02DD0036A020149518C0F66
:103E5000E96E010E0320EA6EEFCF5CF2036A49516E
:103E6000A00FE96E010E0320EA6EEFCF5DF2036A48
:103E70004951220FE96E020E0320EA6E010EEF2473
:103E80005B6F5E6F5F6B0001F6EC12F049C259F296
:103E900002015A6B020E5C6F360E5B6F0001D7ECAD
:103EA00010F0036A020149518C0F016E010E0322CA
:103EB00003C05AF2036A4951B40FE96E010E0320A0
:103EC000EA6EEFCF5BF25AC2EAFF01C0E9FF5BC2C4
:103ED000EFFF036A4951A00F016E010E032203C0D8
:103EE0005AF2036A4951C80FE96E010E0320EA6EC7
:103EF000EFCF5BF25AC2EAFF01C0E9FF5BC2EFFFFE
:103F0000492B0DD7010143A509D05EC15CF15FC10A
:103F10005DF160C15EF162C15FF108D052C15CF138
:103F200053C15DF152C15EF153C15FF1010E505DAD
:103F30000201596F010E0101512502015A6F010E54
:103F40000101502502015B6F010E010151250201A3
:103F50005C6F59C2DFF25AC2E0F25BC2E1F2E26F7B
:103F6000E36B000181EC04F0010E0101505D0201E0
:103F7000596F010E0101515D02015A6F010E0101DD
:103F8000502502015B6F010E0101515D02015C6F62
:103F900059C2DFF25AC2E0F25BC2E1F2E26FE36BB8
:103FA000000181EC04F0010E0101505D0201596F26
:103FB000010E0101512502015A6F010E0101505DF0
:103FC00002015B6F010E0101515D02015C6F59C27C
:103FD000DFF25AC2E0F25BC2E1F2E26FE36B000192
:103FE00081EC04F0010E010150250201596F010E10
:103FF0000101512502015A6F010E010150250201F4
:104000005B6F010E0101515D02015C6F59C2DFF26D
:104010005AC2E0F25BC2E1F2E26FE36B000181ECB5
:1040200004F0010E0101525D0201596F010E010100
:10403000532502015A6F010E0101522502015B6FE7
:10404000010E0101532502015C6F59C2DFF25AC211
:10405000E0F25BC2E1F2E26F010EE36F000181EC7E
:1040600004F0010E0101525D0201596F010E0101C0
:10407000535D02015A6F010E0101522502015B6F6F
:10408000010E0101535D02015C6F59C2DFF25AC299
:10409000E0F25BC2E1F2E26F010EE36F000181EC3E
:1040A00004F0010E0101525D0201596F010E010180
:1040B000532502015A6F010E0101525D02015B6F2F
:1040C000010E0101535D02015C6F59C2DFF25AC259
:1040D000E0F25BC2E1F2E26F010EE36F000181ECFE
:1040E00004F0010E010152250201596F010E010178
:1040F000532502015A6F010E0101522502015B6F27
:10410000010E0101535D02015C6F59C2DFF25AC218
:10411000E0F25BC2E1F2E26F010EE36F000181ECBD
:1041200004F04FC14BF14EC14AF14DC149F14CC1B0
:1041300048F152C150F153C151F102014A6B4A5149
:1041400013080BE3036A4A51220FE96E020E0320A3
:10415000EA6EEF5039274A2BF2D7395304E00101B8
:1041600043AF03D002010101438F0BC25AF20AC2CE
:1041700059F20CC25BF202015C6B00010BEC15F012
:1041800007C25AF206C259F204C25BF2010E0201E2
:104190005C6F00010BEC15F007C20BF206C20AF2CD
:1041A00004C20CF20201906B39C28FF200010BECD9
:1041B0000DF003C05CF202C05BF201C05AF200C015
:1041C00059F203C092F202C091F201C090F200C015
:1041D0008FF2CD0E0201966FCC0E956F4C0E946F40
:1041E0007C0E936F0001A9EC0FF0D8820201926B54
:1041F000916B300E906F830E8F6F03C096F202C0EA
:1042000095F201C094F200C093F2000109EC0EF0A7
:1042100003C08EF202C08DF201C08CF200C08BF29E
:10422000D5EC0DF002C05AF201C059F202C05BF2A7
:1042300002015B2B5B07D8B406D079690001F6EC6C
:1042400002F00201F7D759C279F20001F6EC02F050
:104250000201396B000102017BEF26F0000102012F
:1042600020A70BD020970A0E0101256F140E266F90
:10427000780E396F280E3A6F020112C259F200010E
:1042800053EC15F003C02AF102C029F101C028F156
:1042900000C027F113C259F253EC15F003C02EF100
:1042A00002C02DF101C02CF100C02BF10201906B76
:1042B00025C18FF200010BEC0DF003C05CF202C0CF
:1042C0005BF201C05AF200C059F2D89203C092F2D8
:1042D00002C091F201C090F200C08FF22AC196F2A2
:1042E00029C195F228C194F227C193F209EC0EF08E
:1042F00003C05CF202C05BF201C05AF200C059F286
:1043000003C08EF202C08DF201C08CF200C08BF2AD
:104310000201926B916B906B810E8F6F00019AEC92
:1043200010F032E30201906B25C18FF200010BEC1B
:104330000DF003C05CF202C05BF201C05AF200C093
:1043400059F2D89203C092F202C091F201C090F2E9
:1043500000C08FF22AC196F229C195F228C194F2C9
:1043600027C193F209EC0EF003C08EF202C08DF269
:1043700001C08CF200C08BF2D5EC0DF07B0E012455
:104380000101256F19D000012AC18EF229C18DF2D9
:1043900028C18CF227C18BF2D5EC0DF00150010140
:1043A000252502015A6F696F7B0E6A6F0001F3ECDD
:1043B0000DF000C025F101010201906B26C18FF2C2
:1043C00000010BEC0DF003C05CF202C05BF201C017
:1043D0005AF200C059F2D88203C092F202C091F2A0
:1043E00001C090F200C08FF22EC196F22DC195F25D
:1043F0002CC194F22BC193F209EC0EF003C05CF2D5
:1044000002C05BF201C05AF200C059F203C08EF242
:1044100002C08DF201C08CF200C08BF20201926BDF
:10442000916B906B810E8F6F00019AEC10F032E36C
:104430000201906B26C18FF200010BEC0DF003C05E
:104440005CF202C05BF201C05AF200C059F2D8829D
:1044500003C092F202C091F201C090F200C08FF24C
:104460002EC196F22DC195F22CC194F22BC193F27C
:1044700009EC0EF003C08EF202C08DF201C08CF286
:1044800000C08BF2D5EC0DF03B0E01240101266F2C
:1044900019D000012EC18EF22DC18DF22CC18CF2EB
:1044A0002BC18BF2D5EC0DF001500101265D02010C
:1044B0005A6F696F3B0E6A6F0001F3EC0DF000C09C
:1044C00026F1010116C259F2000153EC15F003C0A8
:1044D0003EF102C03DF101C03CF100C03BF117C20A
:1044E00059F253EC15F003C042F102C041F101C092
:1044F00040F100C03FF10201906B39C18FF2000121
:104500000BEC0DF003C05CF202C05BF201C05AF28A
:1045100000C059F2D89203C092F202C091F201C0D9
:1045200090F200C08FF23EC196F23DC195F23CC1BF
:1045300094F23BC193F209EC0EF003C05CF202C0AE
:104540005BF201C05AF200C059F203C08EF202C001
:104550008DF201C08CF200C08BF20201926B916B64
:10456000906B810E8F6F00019AEC10F032E3020124
:10457000906B39C18FF200010BEC0DF003C05CF2BF
:1045800002C05BF201C05AF200C059F2D89203C0D7
:1045900092F202C091F201C090F200C08FF23EC1CF
:1045A00096F23DC195F23CC194F23BC193F209EC05
:1045B0000EF003C08EF202C08DF201C08CF200C07A
:1045C0008BF2D5EC0DF07B0E01240101396F19D06F
:1045D00000013EC18EF23DC18DF23CC18CF23BC167
:1045E0008BF2D5EC0DF001500101392502015A6F13
:1045F000696F7B0E6A6F0001F3EC0DF000C039F1BA
:1046000001010201906B3AC18FF200010BEC0DF039
:1046100003C05CF202C05BF201C05AF200C059F262
:10462000D88203C092F202C091F201C090F200C0A1
:104630008FF242C196F241C195F240C194F23FC15E
:1046400093F209EC0EF003C05CF202C05BF201C011
:104650005AF200C059F203C08EF202C08DF201C0BE
:104660008CF200C08BF20201926B916B906B810E09
:104670008F6F00019AEC10F032E30201906B3AC1A7
:104680008FF200010BEC0DF003C05CF202C05BF294
:1046900001C05AF200C059F2D88203C092F202C09F
:1046A00091F201C090F200C08FF242C196F241C176
:1046B00095F240C194F23FC193F209EC0EF003C0B1
:1046C0008EF202C08DF201C08CF200C08BF2D5ECEC
:1046D0000DF03B0E012401013A6F19D0000142C1D7
:1046E0008EF241C18DF240C18CF23FC18BF2D5EC0C
:1046F0000DF0015001013A5D02015A6F696F3B0EE6
:104700006A6F0001F3EC0DF000C03AF1010143A122
:1047100002D0446B4DD04407445301E143814451DE
:104720000A0846E14551FB0F43E2050F000182EF05
:1047300026F06EC1DFF26FC1E0F2800E0201E16F80
:104740006FC1E2F2E36B000181EC04F0010130D0B3
:1047500000016EC1DFF26FC1E0F26EC1E1F2020151
:10476000E26BE36B000181EC04F0010121D0000158
:104770000201DF6B6FC1E0F26EC1E1F26FC1E2F2E4
:10478000E36B000181EC04F0010112D000016EC165
:10479000DFF26FC1E0F26EC1E1F23F0E0201E26FA3
:1047A000E36B000181EC04F0010102D00001010182
:1047B000020110A5E2D0010143B102D00201DDD017
:1047C00014C259F215C25AF2000190EC15F001C062
:1047D00045F101014551FB0FD8B0C7D0050F0001CD
:1047E00094EF26F025C1DFF226C1E0F2800E02012F
:1047F000E16F26C1E2F2010EE36F000181EC04F0EB
:1048000001013951255D1DE2040E26253A5D19E2AC
:10481000040E265D3A5D15E014E302012087690E5F
:104820000E6F020E596FFA0E796F0001F6EC02F06E
:104830000201592FF8D7010E596F0001AFEC15F0A6
:10484000010193D0000125C1DFF226C1E0F225C1AC
:10485000E1F20201E26B010EE36F000181EC04F072
:10486000010126513A5D1DE2040E2525395D19E24C
:10487000040E255D395D15E014E302012087690E01
:104880000E6F020E596FFA0E796F0001F6EC02F00E
:104890000201592FF8D7010E596F0001AFEC15F046
:1048A000010163D000010201DF6B26C1E0F225C1E6
:1048B000E1F226C1E2F2010EE36F000181EC04F0A7
:1048C00001012551395D1DE2040E26253A5D19E2EC
:1048D000040E265D3A5D15E014E302012087690E9F
:1048E0000E6F020E596FFA0E796F0001F6EC02F0AE
:1048F0000201592FF8D7010E596F0001AFEC15F0E6
:10490000010133D0000125C1DFF226C1E0F225C14B
:10491000E1F23F0E0201E26F010EE36F000181EC54
:1049200004F001013A51265D1DE2040E2525395D92
:1049300019E2040E255D395D15E014E302012087BC
:10494000690E0E6F020E596FFA0E796F0001F6ECC8
:1049500002F00201592FF8D7010E596F0001AFEC98
:1049600015F0010102D0000101010F0E446F4391C7
:1049700025C16EF126C16FF10201010143A302D0EE
:10498000466B4DD04607465301E1438346510A0822
:1049900046E14751FB0F43E2050F0001A6EF26F069
:1049A0007EC1DFF27FC1E0F2800E0201E16F7FC1C4
:1049B000E2F2E36B000181EC04F0010130D0000170
:1049C0007EC1DFF27FC1E0F27EC1E1F20201E26B63
:1049D000E36B000181EC04F0010121D00001020130
:1049E000DF6B7FC1E0F27EC1E1F27FC1E2F2E36BF7
:1049F000000181EC04F0010112D000017EC1DFF260
:104A00007FC1E0F27EC1E1F23F0E0201E26FE36B93
:104A1000000181EC04F0010102D00001010102015A
:104A200010A9DED0010143B302D00201D9D018C2CF
:104A300059F219C25AF2000190EC15F001C047F189
:104A400001014751FB0FD8B0C3D0050F0001B8EFEB
:104A500026F039C1DFF23AC1E0F2800E0201E16FC7
:104A60003AC1E2F2010EE36F000181EC04F00101B2
:104A70002551395D1CE2040E3A25265D18E2040E2C
:104A80003A5D265D14E013E302012087690E0E6F84
:104A9000020E596FFA0E796F0001F6EC02F0020176
:104AA000592FF8D7596B0001AFEC15F0010190D0E8
:104AB000000139C1DFF23AC1E0F239C1E1F202018D
:104AC000E26B010EE36F000181EC04F001013A5149
:104AD000265D1CE2040E3925255D18E2040E395DC1
:104AE000255D14E013E302012087690E0E6F020EAC
:104AF000596FFA0E796F0001F6EC02F00201592F9E
:104B0000F8D7596B0001AFEC15F0010161D000013D
:104B10000201DF6B3AC1E0F239C1E1F23AC1E2F2DF
:104B2000010EE36F000181EC04F001013951255DB4
:104B30001CE2040E3A25265D18E2040E3A5D265D5D
:104B400014E013E302012087690E0E6F020E596F05
:104B5000FA0E796F0001F6EC02F00201592FF8D736
:104B6000596B0001AFEC15F0010132D0000139C1E1
:104B7000DFF23AC1E0F239C1E1F23F0E0201E26F29
:104B8000010EE36F000181EC04F0010126513A5D52
:104B90001CE2040E3925255D18E2040E395D255D01
:104BA00014E013E302012087690E0E6F020E596FA5
:104BB000FA0E796F0001F6EC02F00201592FF8D7D6
:104BC000596B0001AFEC15F0010102D000010101A9
:104BD0000F0E466F439339C17EF13AC17FF1020156
:104BE00023C159F224C15AF25B6B00012DEC16F07F
:104BF00025C159F226C15AF2010E02015B6F000174
:104C00002DEC16F025C123F126C124F137C159F24C
:104C100038C15AF202015B6B00012DEC16F039C16C
:104C200059F23AC15AF2010E02015B6F00012DECFC
:104C300016F039C137F13AC138F1230E0201796F0C
:104C40000001F6EC02F0020120A152D0209120B325
:104C500028D0786B00012CEC03F0010E0201596F93
:104C60000001EFEC06F0470E02014B6F410E4C6F56
:104C70004E0E4D6F410E4E6F200E4F6F310E506F26
:104C8000516B160EDF6F320EE06F020EE26F4B0EAD
:104C9000E16F010EE36FE46F000186EC05F027D0B1
:104CA0000201786B00012CEC03F0010E0201596F38
:104CB0000001EFEC06F0470E0201526F410E536FF8
:104CC0004E0E546F410E556F200E566F320E576FB9
:104CD000586B160EDF6F320EE06F020EE26F520E4F
:104CE000E16F010EE36FE46F000186EC05F0020155
:104CF00002D000010201700E9EA8FED7AD6ED1EF6A
:104D000017F00300E824F76AF7361F0FF66E4D0E12
:104D1000F7220A00F550FA6E0800F550F96E324796
:104D20003247524770478E47E824F76AF736430FF9
:104D3000F66E4D0EF7220A00F550FA6E0800F55097
:104D4000F96EE447E4474648A6480649E824F76A6E
:104D5000F736670FF66E4D0EF7220A00F550FA6E21
:104D60000800F550F96EA049A049C049DE49FC4948
:104D7000E824F76AF7368B0FF66E4D0EF7220A001D
:104D8000F550FA6E0800F550F96E524A524AB24A8E
:044D9000104B6E4B0B
:020000040030CA
:0E00000004CC3E1E0007A1000FC00FE00F4011
:00000001FF
;PIC18F4550
;CRC=8A7D  CREATED="22-nov.-24 13:51"
