:1000000013EF02F0000E956E93988A981C52D8B4A4
:100010000EEF00F093928A8210EF00F093908A80A6
:1000200000D000D00000956A1DC08CFF00D000D029
:100030000000939A8A8A00D000D00000939A8A9A8E
:1000400093908A9093928A921200096A0950070845
:1000500030E393948A941C6A400E1D6ED3DF010E28
:100060001C6E400E1D6ECEDF0950B8090B6E1C6A67
:100070001D6EC8DF0950B8090B6E010E1C6E0BC057
:100080001DF0C0DF93948A840A6A0A503F080FE388
:100090000850FF0DF3CF1DF01C6AB4DF0850FF0DB0
:1000A000F3CF1DF0010E1C6EADDF0A2AEED7092A30
:1000B000CDD7120094908B80939A8A9A93908A90CD
:1000C00093928A9293948A941C6AC00E1D6E9ADF52
:1000D000010E1C6EC00E1D6E95DF1C6A400E1D6E5B
:1000E00091DF010E1C6E400E1D6E8CDF1C6AB80E77
:1000F0001D6E88DF010E1C6EB80E1D6E83DF072C8F
:100100000AD01C6A3F0E1D6E7DDF010E1C6E3F0E75
:100110001D6E78DF09D01C6A3E0E1D6E73DF010E66
:100120001C6E3E0E1D6E6EDF086A8FDF1EEF02F042
:10013000006A016A1650D89017B0002600320132CA
:1001400017B200260032013217B400260032013205
:1001500017B600260032013217B8002600320132ED
:1001600017BA00260032013217BC002600320132D5
:1001700017BE0026003201321200FF0E956E9398D2
:100180008A881B5203E093928A8202D093908A80DD
:1001900000D000D00000939A8A8A00D000D00000DE
:1001A000956883CF1CF0939A8A9A93908A90939241
:1001B0008A921CC001F01200199015503F0803E20A
:1001C000400E155E198093948A94159E158C000E2E
:1001D00019B0010E1A6E1C6E15C01DF013DF000E53
:1001E00019B0010E1A6E1630006E003200321F0E6A
:1001F00000160050BF0BB8091B6E1AC01CF01D6E14
:1002000001DF93948A84000E19B0010E1A6E1B6EE2
:10021000B4DF000E19B0010E1A6E1B6EAEDF01C006
:1002200018F0172C0FD01650070B1A6E010E006E27
:100230001A50016E04E0D8900036012EFCD7005011
:1002400018120FD01650070B1A6E010E006E1A50BE
:10025000016E04E0D8900036012EFCD70050FF0A52
:10026000181693948A94000E19B0010E1A6E1C6E23
:1002700015C01DF0C7DE93948A84000E19B0010EDC
:100280001A6E1C6E18C01DF0BDDE12000750095C0E
:10029000156E155015AE03D0000ED8801554106E93
:1002A00008500A5C156E155015AE03D0000ED880AC
:1002B0001554116E07C00CF008C00DF00750095C12
:1002C00002E20E6802D0010E0E6E08500A5C02E2D5
:1002D0000F6802D0010E0F6E1150800A006E105090
:1002E000800A005C01E046E2020E166E11C017F0B3
:1002F0001FDF1050015C036AE8BE0306126E03C0E4
:1003000013F0146A10BE35D01450105C32E30CC0E8
:1003100015F00DC016F00BC017F04EDF13AE0FD066
:10032000020E166E11C017F003DF0150036AE8BE1B
:1003300003061226035013220E500C2618D0020E6C
:10034000166E11C017F0F4DE01C015F0020E166E25
:1003500010C017F0EDDE0150155C036AE8BE03061D
:100360001226035013220E500C260F500D26142A6D
:10037000C9D745D0020E166E10C017F0D9DE115045
:10038000015C036AE8BE0306126E03C013F0146A30
:1003900011BE35D01450115C32E30CC015F00DC005
:1003A00016F00BC017F008DF13AE0FD0020E166E5A
:1003B00010C017F0BDDE0150036AE8BE0306122626
:1003C000035013220F500D2618D0020E166E10C0C7
:1003D00017F0AEDE01C015F0020E166E11C017F058
:1003E000A7DE0150155C036AE8BE0306122603501F
:1003F00013220E500C260F500D26142AC9D71200B6
:10040000EA6A080EE96EEF500DE0060E016E006A12
:10041000002EFED7012EFBD77B0E006E002EFED7DE
:10042000EF2EF3D71200F86AD09EC150C00B0F090F
:10043000C16E070EB46E010E076E3CD6086A05DE6B
:10044000056A05503F080CE3076A05C008F0780EFE
:10045000096E05C00AF0010E0B6E18DF052AF1D7F0
:10046000030E076EC80E086ECBDF072EFBD7066A99
:1004700006503F080BE3076A06C008F0780E096EC5
:1004800006C00AF00B6A02DF062AF2D7030E076ED7
:0E049000C80E086EB5DF072EFBD7D2D70300CB
:020000040030CA
:0E00000004CC3E1E0007A1000FC00FE00F4011
:00000001FF
;PIC18F4550
;CRC=69DA  CREATED="22-nov.-24 05:36"
